{
  "contractName": "RequestRental",
  "abi": [
    {
      "anonymous": false,
      "inputs": [
        {
          "indexed": false,
          "internalType": "string",
          "name": "name",
          "type": "string"
        }
      ],
      "name": "addAddress",
      "type": "event"
    },
    {
      "anonymous": false,
      "inputs": [
        {
          "indexed": false,
          "internalType": "address",
          "name": "newOwner",
          "type": "address"
        }
      ],
      "name": "ownserChanged",
      "type": "event"
    },
    {
      "constant": true,
      "inputs": [
        {
          "internalType": "address",
          "name": "",
          "type": "address"
        }
      ],
      "name": "resource",
      "outputs": [
        {
          "internalType": "address",
          "name": "resourceAddress",
          "type": "address"
        }
      ],
      "payable": false,
      "stateMutability": "view",
      "type": "function"
    },
    {
      "constant": false,
      "inputs": [],
      "name": "changeResourceOwer",
      "outputs": [],
      "payable": false,
      "stateMutability": "nonpayable",
      "type": "function"
    },
    {
      "constant": false,
      "inputs": [
        {
          "internalType": "uint256",
          "name": "_resourceId",
          "type": "uint256"
        },
        {
          "internalType": "string",
          "name": "_fromTimeStamp",
          "type": "string"
        },
        {
          "internalType": "string",
          "name": "_toTimestamp",
          "type": "string"
        },
        {
          "internalType": "uint256",
          "name": "_rentalTimeStamp",
          "type": "uint256"
        }
      ],
      "name": "requestRental",
      "outputs": [],
      "payable": false,
      "stateMutability": "nonpayable",
      "type": "function"
    }
  ],
  "bytecode": "0x608060405234801561001057600080fd5b506102f5806100206000396000f3fe608060405234801561001057600080fd5b50600436106100415760003560e01c806334875791146100465780635a5ad1f9146101ac578063d262b05c14610230575b600080fd5b6101aa6004803603608081101561005c57600080fd5b81019080803590602001909291908035906020019064010000000081111561008357600080fd5b82018360208201111561009557600080fd5b803590602001918460018302840111640100000000831117156100b757600080fd5b91908080601f016020809104026020016040519081016040528093929190818152602001838380828437600081840152601f19601f8201169050808301925050505050505091929192908035906020019064010000000081111561011a57600080fd5b82018360208201111561012c57600080fd5b8035906020019184600183028401116401000000008311171561014e57600080fd5b91908080601f016020809104026020016040519081016040528093929190818152602001838380828437600081840152601f19601f8201169050808301925050505050505091929192908035906020019092919050505061023a565b005b6101ee600480360360208110156101c257600080fd5b81019080803573ffffffffffffffffffffffffffffffffffffffff169060200190929190505050610240565b604051808273ffffffffffffffffffffffffffffffffffffffff1673ffffffffffffffffffffffffffffffffffffffff16815260200191505060405180910390f35b61023861027e565b005b50505050565b60016020528060005260406000206000915090508060000160009054906101000a900473ffffffffffffffffffffffffffffffffffffffff16905081565b336000806101000a81548173ffffffffffffffffffffffffffffffffffffffff021916908373ffffffffffffffffffffffffffffffffffffffff16021790555056fea265627a7a72315820a87bcbe49e542f516cf1c2dd2733e17053fcd62f03605de987a9ac6158d61e0c64736f6c63430005100032",
  "source": "// SPDX-License-Identifier: MIT\npragma solidity >=0.4.22 <0.8.0;\n\ncontract ResourceRental {\n    //----------------------------------------------------------\n    // Storage\n    //----------------------------------------------------------\n\n    // Store renters\n    // solidity generiert getter\n    mapping(uint256 => Resource) public resources;\n    mapping(address => Permission) public permissionedRenters;\n\n    mapping(address => University) public universities;\n    mapping(uint256 => Rental) public rentals;\n\n    // Store index\n    uint256 public rentersCount;\n    uint256 public resourcesCount;\n    uint256 public resourcesAdvertCount;\n    uint256 public universitiesCount;\n    uint256 public rentalsCount;\n\n    // Store Rental\n\n    // Read Rental\n    string public candidate;\n\n    //----------------------------------------------------------\n    // Structs\n    //----------------------------------------------------------\n\n    // Model a Rental\n    struct Rental {\n        address renterAddress;\n        string resourceName;\n        uint256 bookingId;\n        uint256 resourceId;\n        string startTimestamp;\n        string endTimestamp;\n    }\n\n    // Model a Resource\n    struct Resource {\n        uint256 resourceId;\n        string name;\n        string picture;\n        string location;\n        string fromTimeStamp;\n        string toTimeStamp;\n        Permission permission;\n        // uint8[3] requiredTraining;\n    }\n\n    // Model a University\n    struct University {\n        uint256 universityId;\n        string name;\n        address universityAddress;\n    }\n\n    //----------------------------------------------------------\n    // ENUM\n    //----------------------------------------------------------\n\n    // Permission for Users\n    // For some Resources, the user need to have permissions\n    // these permissions are given by universities\n    enum Permission {\n        ALL,\n        STUDENT,\n        SCIENTIFIC_ASSISTANT,\n        PROFESSOR,\n        ADMIN\n    }\n\n    //----------------------------------------------------------\n    // Events\n    //----------------------------------------------------------\n\n    event RenterAdded(string _renterName, address _senderAddress);\n    event ResourceCreated(uint256 _id, address _creatorAddress);\n    event ResourceRented(\n        address _renter,\n        uint256 _resourceId,\n        string _fromTimeStamp,\n        string _toTimestamp,\n        uint256 _rentalTimeStamp\n    );\n    event UniversityAdded();\n    event PermissionToRenterAdded(\n        uint256 permission,\n        address useraddress,\n        address authority\n    );\n\n    //----------------------------------------------------------\n    // private Functions\n    //----------------------------------------------------------\n\n    function initializeUniversity(string memory _name, address _address)\n        private\n    {\n        // represent Id of the University\n        universitiesCount++;\n        universities[msg.sender] = University(\n            universitiesCount,\n            _name,\n            _address\n        );\n    }\n\n    //----------------------------------------------------------\n    // public Functions\n    //----------------------------------------------------------\n\n    function addUniversity(\n        uint256 _universityId,\n        string memory _name,\n        address _newUniversityAddress\n    ) private {\n        require(msg.sender == universities[msg.sender].universityAddress);\n\n        // represent Id of the University\n        universitiesCount++;\n        universities[msg.sender] = University(\n            universitiesCount,\n            _name,\n            _newUniversityAddress\n        );\n    }\n\n    function addPermissionToRenter(address renterAddress, uint256 permission)\n        public\n        _isUniversity\n    {\n        permissionedRenters[renterAddress] = Permission(permission);\n        emit PermissionToRenterAdded(permission, renterAddress, msg.sender);\n    }\n\n    function addResource(\n        string memory _name,\n        string memory _metaDataLink,\n        string memory _location,\n        string memory _fromTimeStamp,\n        string memory _toTimeStamp,\n        uint8 _permission // uint256 _universityId // uint8[] memory _requiredTraining\n    ) public {\n        // require();\n\n        // represent Id of the renter\n        if (_permission == 1) {\n            resourcesCount++;\n            resources[resourcesCount] = Resource(\n                resourcesCount,\n                _name,\n                _metaDataLink,\n                _location,\n                _fromTimeStamp,\n                _toTimeStamp,\n                Permission.ALL\n                // _requiredTraining\n            );\n        }\n\n        if (_permission == 2) {\n            resourcesCount++;\n            resources[resourcesCount] = Resource(\n                resourcesCount,\n                _name,\n                _metaDataLink,\n                _location,\n                _fromTimeStamp,\n                _toTimeStamp,\n                Permission.STUDENT\n                // _requiredTraining\n            );\n        }\n\n        if (_permission == 3) {\n            resourcesCount++;\n            resources[resourcesCount] = Resource(\n                resourcesCount,\n                _name,\n                _metaDataLink,\n                _location,\n                _fromTimeStamp,\n                _toTimeStamp,\n                Permission.SCIENTIFIC_ASSISTANT\n                // _requiredTraining\n            );\n        }\n\n        if (_permission == 4) {\n            resourcesCount++;\n            resources[resourcesCount] = Resource(\n                resourcesCount,\n                _name,\n                _metaDataLink,\n                _location,\n                _fromTimeStamp,\n                _toTimeStamp,\n                Permission.PROFESSOR\n                // _requiredTraining\n            );\n        }\n\n        if (_permission == 5) {\n            resourcesCount++;\n            resources[resourcesCount] = Resource(\n                resourcesCount,\n                _name,\n                _metaDataLink,\n                _location,\n                _fromTimeStamp,\n                _toTimeStamp,\n                Permission.ADMIN\n                // _requiredTraining\n            );\n        }\n\n        emit ResourceCreated(resourcesCount, msg.sender);\n    }\n\n    // making the function pure or view\n    // to call it through web3.js without needing\n    // a trancaction -> no gas cost, no confirmation delay\n    function isSenderUniversity() public view returns (bool) {\n        return msg.sender == universities[msg.sender].universityAddress;\n    }\n\n    function rentResource(uint256 _id) public {\n        if (resources[_id].permission == Permission.ALL) {\n            Resource memory resource = resources[_id];\n\n            delete resources[_id];\n\n            emit ResourceRented(\n                msg.sender,\n                _id,\n                resource.fromTimeStamp,\n                resource.toTimeStamp,\n                block.timestamp\n            );\n        }\n    }\n\n    function callSafetyBriefing() public {\n        SafetyBriefing called = SafetyBriefing(msg.sender);\n        called.sendMessage(\"Hi in der Blockchain\");\n    }\n\n    //----------------------------------------------------------\n    // Modifier\n    //----------------------------------------------------------\n\n    // isUniversity\n    modifier _isUniversity() {\n        require(\n            msg.sender == universities[msg.sender].universityAddress,\n            \"Caller is no university\"\n        );\n        _;\n    }\n\n    modifier _hasPermission(Permission permission) {\n        require(\n            permissionedRenters[msg.sender] >= permission,\n            \"Caller is no eligible\"\n        );\n        _;\n    }\n\n    //----------------------------------------------------------\n    // Constructor\n    //----------------------------------------------------------\n\n    // Constructor\n    constructor() public {\n        // add example renters\n        // addRenter(\"Student 1\");\n        // addRenter(\"Professor 1\");\n\n        // add example resources\n        addResource(\n            \"Normal Room\",\n            \"images/room1.jpeg\",\n            \"Furtwangen, Germany\",\n            \"1654782938174\",\n            \"1655992478797\",\n            1\n        );\n\n        addResource(\n            \"Concert Hall\",\n            \"images/room1.jpeg\",\n            \"Mannheim, Germani\",\n            \"1654782938174\",\n            \"1655992478797\",\n            1\n        );\n        addResource(\n            \"Theater\",\n            \"images/room1.jpeg\",\n            \"Rom, Italy\",\n            \"1654782938174\",\n            \"1655992478797\",\n            1\n        );\n        addResource(\n            \"Server Room\",\n            \"images/room1.jpeg\",\n            \"Paris, France\",\n            \"1654782938174\",\n            \"1655992478797\",\n            1\n        );\n        addResource(\n            \"Test Room\",\n            \"images/room1.jpeg\",\n            \"Barcelona, Spain\",\n            \"1654782938174\",\n            \"1655992478797\",\n            1\n        );\n        addResource(\n            \"Schulungszentrum Darmstadt\",\n            \"https://www.schulungszentrum-darmstadt.de/wp-content/uploads/2019/09/DSC1868.jpg\",\n            \"Darmstadt, Germany\",\n            \"1654782938174\",\n            \"1655992478797\",\n            1\n        );\n\n        // add universities who are allowed to create resrouces\n        // addUniversity(\n        //     \"Hochschule Furtwangen\",\n        //     0x9BB542Fa2BBC47dF6d5Da1F38dc78a186EA89CaB\n        // );\n        initializeUniversity(\n            \"Universität Mannheim\",\n            0xDeDE610A052Cd63D055B1e957b1952525d924F7e\n        );\n        // addUniversity(\"TUM\", 0xA5f4A3aa3cFAA342FC401580aE6Af12Ab56EA822);\n        // addUniversity(\n        // \"The Hague University of Applied Sciences\",\n        // 0xE82971C4A32C82556F072C73125e48C4c9c33a59\n        // );\n    }\n}\n\ncontract SafetyBriefing {\n    mapping(uint256 => Briefing) public briefings;\n    uint256 briefingsCount;\n\n    struct Briefing {\n        uint256 briefingId;\n        string briefingName;\n        address briefingAuthority;\n        uint256[] requiredBriefings;\n    }\n\n    event BriefingVerified(\n        address clientAddress,\n        uint256 briefingId,\n        string validity\n    );\n\n    event contractCalled(string message);\n\n    function sendMessage(string memory message) public {\n        emit contractCalled(message);\n    }\n\n    function createBriefing(\n        uint256[] memory requiredBriefings,\n        string memory _briefingName\n    ) public {\n        briefingsCount++;\n\n        if (requiredBriefings.length > 0) {\n            briefings[briefingsCount] = Briefing(\n                briefingsCount,\n                _briefingName,\n                msg.sender,\n                new uint256[](0)\n            );\n        } else {\n            briefings[briefingsCount] = Briefing(\n                briefingsCount,\n                _briefingName,\n                msg.sender,\n                requiredBriefings\n            );\n        }\n    }\n\n    function verifyBriefing(\n        address _clientAddress,\n        uint256 _briefingId,\n        string memory _validity\n    ) public isBriefingAuthority(_briefingId) {\n        emit BriefingVerified(_clientAddress, _briefingId, _validity);\n    }\n\n    //----------------------------------------------------------\n    // Modifier\n    //----------------------------------------------------------\n    modifier isBriefingAuthority(uint256 _id) {\n        require(\n            msg.sender == briefings[_id].briefingAuthority,\n            \"Caller is no Briefingauthority\"\n        );\n        _;\n    }\n}\n\n// Request Rental ----------------------------------------------------------\n\ncontract RequestRental {\n    //----------------------------------------------------------\n    // Attributes\n    //----------------------------------------------------------\n\n    address resourceOwner;\n    mapping(address => Resource) public resource;\n\n    //----------------------------------------------------------\n    // Structs\n    //----------------------------------------------------------\n\n    struct RentalRequest {\n        string _fromTimeStamp;\n        string _toTimestamp;\n    }\n\n    struct Resource {\n        address resourceAddress;\n    }\n\n    //----------------------------------------------------------\n    // Events\n    //----------------------------------------------------------\n\n    event addAddress(string name);\n    event ownserChanged(address newOwner);\n\n    //----------------------------------------------------------\n    // Functions\n    //----------------------------------------------------------\n\n    function changeResourceOwer() public {\n        resourceOwner = msg.sender;\n    }\n\n    function requestRental(\n        uint256 _resourceId,\n        string memory _fromTimeStamp,\n        string memory _toTimestamp,\n        uint256 _rentalTimeStamp\n    ) public {\n        // requestAllowFromOwner();\n    }\n}\n",
  "sourcePath": "/home/dizzle/Dev/Dapp/contracts/ResourceRental.sol",
  "compiler": {
    "name": "solc",
    "version": "0.5.16+commit.9c3226ce.Emscripten.clang"
  },
  "schemaVersion": "3.4.7",
  "updatedAt": "2022-08-23T16:23:25.477Z",
  "devdoc": {
    "methods": {}
  },
  "userdoc": {
    "methods": {}
  }
}