{
  "contractName": "ResourceRental",
  "abi": [
    {
      "inputs": [],
      "payable": false,
      "stateMutability": "nonpayable",
      "type": "constructor"
    },
    {
      "anonymous": false,
      "inputs": [
        {
          "indexed": false,
          "internalType": "uint256",
          "name": "permission",
          "type": "uint256"
        },
        {
          "indexed": false,
          "internalType": "address",
          "name": "useraddress",
          "type": "address"
        },
        {
          "indexed": false,
          "internalType": "address",
          "name": "authority",
          "type": "address"
        }
      ],
      "name": "PermissionToRenterAdded",
      "type": "event"
    },
    {
      "anonymous": false,
      "inputs": [
        {
          "indexed": false,
          "internalType": "string",
          "name": "_renterName",
          "type": "string"
        },
        {
          "indexed": false,
          "internalType": "address",
          "name": "_senderAddress",
          "type": "address"
        }
      ],
      "name": "RenterAdded",
      "type": "event"
    },
    {
      "anonymous": false,
      "inputs": [
        {
          "indexed": false,
          "internalType": "uint256",
          "name": "_id",
          "type": "uint256"
        },
        {
          "indexed": false,
          "internalType": "address",
          "name": "_creatorAddress",
          "type": "address"
        }
      ],
      "name": "ResourceCreated",
      "type": "event"
    },
    {
      "anonymous": false,
      "inputs": [
        {
          "indexed": false,
          "internalType": "address",
          "name": "_renter",
          "type": "address"
        },
        {
          "indexed": false,
          "internalType": "uint256",
          "name": "_resourceId",
          "type": "uint256"
        },
        {
          "indexed": false,
          "internalType": "string",
          "name": "_fromTimeStamp",
          "type": "string"
        },
        {
          "indexed": false,
          "internalType": "string",
          "name": "_toTimestamp",
          "type": "string"
        },
        {
          "indexed": false,
          "internalType": "uint256",
          "name": "_rentalTimeStamp",
          "type": "uint256"
        }
      ],
      "name": "ResourceRented",
      "type": "event"
    },
    {
      "anonymous": false,
      "inputs": [],
      "name": "UniversityAdded",
      "type": "event"
    },
    {
      "constant": true,
      "inputs": [],
      "name": "candidate",
      "outputs": [
        {
          "internalType": "string",
          "name": "",
          "type": "string"
        }
      ],
      "payable": false,
      "stateMutability": "view",
      "type": "function"
    },
    {
      "constant": true,
      "inputs": [
        {
          "internalType": "address",
          "name": "",
          "type": "address"
        }
      ],
      "name": "permissionedRenters",
      "outputs": [
        {
          "internalType": "enum ResourceRental.Permission",
          "name": "",
          "type": "uint8"
        }
      ],
      "payable": false,
      "stateMutability": "view",
      "type": "function"
    },
    {
      "constant": true,
      "inputs": [
        {
          "internalType": "uint256",
          "name": "",
          "type": "uint256"
        }
      ],
      "name": "rentals",
      "outputs": [
        {
          "internalType": "address",
          "name": "renterAddress",
          "type": "address"
        },
        {
          "internalType": "string",
          "name": "resourceName",
          "type": "string"
        },
        {
          "internalType": "uint256",
          "name": "bookingId",
          "type": "uint256"
        },
        {
          "internalType": "uint256",
          "name": "resourceId",
          "type": "uint256"
        },
        {
          "internalType": "string",
          "name": "startTimestamp",
          "type": "string"
        },
        {
          "internalType": "string",
          "name": "endTimestamp",
          "type": "string"
        }
      ],
      "payable": false,
      "stateMutability": "view",
      "type": "function"
    },
    {
      "constant": true,
      "inputs": [],
      "name": "rentalsCount",
      "outputs": [
        {
          "internalType": "uint256",
          "name": "",
          "type": "uint256"
        }
      ],
      "payable": false,
      "stateMutability": "view",
      "type": "function"
    },
    {
      "constant": true,
      "inputs": [],
      "name": "rentersCount",
      "outputs": [
        {
          "internalType": "uint256",
          "name": "",
          "type": "uint256"
        }
      ],
      "payable": false,
      "stateMutability": "view",
      "type": "function"
    },
    {
      "constant": true,
      "inputs": [
        {
          "internalType": "uint256",
          "name": "",
          "type": "uint256"
        }
      ],
      "name": "resources",
      "outputs": [
        {
          "internalType": "uint256",
          "name": "resourceId",
          "type": "uint256"
        },
        {
          "internalType": "string",
          "name": "name",
          "type": "string"
        },
        {
          "internalType": "string",
          "name": "picture",
          "type": "string"
        },
        {
          "internalType": "string",
          "name": "location",
          "type": "string"
        },
        {
          "internalType": "string",
          "name": "fromTimeStamp",
          "type": "string"
        },
        {
          "internalType": "string",
          "name": "toTimeStamp",
          "type": "string"
        },
        {
          "internalType": "enum ResourceRental.Permission",
          "name": "permission",
          "type": "uint8"
        }
      ],
      "payable": false,
      "stateMutability": "view",
      "type": "function"
    },
    {
      "constant": true,
      "inputs": [],
      "name": "resourcesAdvertCount",
      "outputs": [
        {
          "internalType": "uint256",
          "name": "",
          "type": "uint256"
        }
      ],
      "payable": false,
      "stateMutability": "view",
      "type": "function"
    },
    {
      "constant": true,
      "inputs": [],
      "name": "resourcesCount",
      "outputs": [
        {
          "internalType": "uint256",
          "name": "",
          "type": "uint256"
        }
      ],
      "payable": false,
      "stateMutability": "view",
      "type": "function"
    },
    {
      "constant": true,
      "inputs": [
        {
          "internalType": "address",
          "name": "",
          "type": "address"
        }
      ],
      "name": "universities",
      "outputs": [
        {
          "internalType": "uint256",
          "name": "universityId",
          "type": "uint256"
        },
        {
          "internalType": "string",
          "name": "name",
          "type": "string"
        },
        {
          "internalType": "address",
          "name": "universityAddress",
          "type": "address"
        }
      ],
      "payable": false,
      "stateMutability": "view",
      "type": "function"
    },
    {
      "constant": true,
      "inputs": [],
      "name": "universitiesCount",
      "outputs": [
        {
          "internalType": "uint256",
          "name": "",
          "type": "uint256"
        }
      ],
      "payable": false,
      "stateMutability": "view",
      "type": "function"
    },
    {
      "constant": false,
      "inputs": [
        {
          "internalType": "address",
          "name": "renterAddress",
          "type": "address"
        },
        {
          "internalType": "uint256",
          "name": "permission",
          "type": "uint256"
        }
      ],
      "name": "addPermissionToRenter",
      "outputs": [],
      "payable": false,
      "stateMutability": "nonpayable",
      "type": "function"
    },
    {
      "constant": false,
      "inputs": [
        {
          "internalType": "string",
          "name": "_name",
          "type": "string"
        },
        {
          "internalType": "string",
          "name": "_metaDataLink",
          "type": "string"
        },
        {
          "internalType": "string",
          "name": "_location",
          "type": "string"
        },
        {
          "internalType": "string",
          "name": "_fromTimeStamp",
          "type": "string"
        },
        {
          "internalType": "string",
          "name": "_toTimeStamp",
          "type": "string"
        },
        {
          "internalType": "uint8",
          "name": "_permission",
          "type": "uint8"
        }
      ],
      "name": "addResource",
      "outputs": [],
      "payable": false,
      "stateMutability": "nonpayable",
      "type": "function"
    },
    {
      "constant": true,
      "inputs": [],
      "name": "isSenderUniversity",
      "outputs": [
        {
          "internalType": "bool",
          "name": "",
          "type": "bool"
        }
      ],
      "payable": false,
      "stateMutability": "view",
      "type": "function"
    },
    {
      "constant": false,
      "inputs": [
        {
          "internalType": "uint256",
          "name": "_id",
          "type": "uint256"
        }
      ],
      "name": "rentResource",
      "outputs": [],
      "payable": false,
      "stateMutability": "nonpayable",
      "type": "function"
    },
    {
      "constant": false,
      "inputs": [],
      "name": "callSafetyBriefing",
      "outputs": [],
      "payable": false,
      "stateMutability": "nonpayable",
      "type": "function"
    }
  ],
  "bytecode": "0x60806040523480156200001157600080fd5b50620001326040518060400160405280600b81526020017f4e6f726d616c20526f6f6d0000000000000000000000000000000000000000008152506040518060400160405280601181526020017f696d616765732f726f6f6d312e6a7065670000000000000000000000000000008152506040518060400160405280601381526020017f4675727477616e67656e2c204765726d616e79000000000000000000000000008152506040518060400160405280600d81526020017f31363534373832393338313734000000000000000000000000000000000000008152506040518060400160405280600d81526020017f313635353939323437383739370000000000000000000000000000000000000081525060016200071760201b60201c565b620002526040518060400160405280600c81526020017f436f6e636572742048616c6c00000000000000000000000000000000000000008152506040518060400160405280601181526020017f696d616765732f726f6f6d312e6a7065670000000000000000000000000000008152506040518060400160405280601181526020017f4d616e6e6865696d2c204765726d616e690000000000000000000000000000008152506040518060400160405280600d81526020017f31363534373832393338313734000000000000000000000000000000000000008152506040518060400160405280600d81526020017f313635353939323437383739370000000000000000000000000000000000000081525060016200071760201b60201c565b620003726040518060400160405280600781526020017f54686561746572000000000000000000000000000000000000000000000000008152506040518060400160405280601181526020017f696d616765732f726f6f6d312e6a7065670000000000000000000000000000008152506040518060400160405280600a81526020017f526f6d2c204974616c79000000000000000000000000000000000000000000008152506040518060400160405280600d81526020017f31363534373832393338313734000000000000000000000000000000000000008152506040518060400160405280600d81526020017f313635353939323437383739370000000000000000000000000000000000000081525060016200071760201b60201c565b620004926040518060400160405280600b81526020017f53657276657220526f6f6d0000000000000000000000000000000000000000008152506040518060400160405280601181526020017f696d616765732f726f6f6d312e6a7065670000000000000000000000000000008152506040518060400160405280600d81526020017f50617269732c204672616e6365000000000000000000000000000000000000008152506040518060400160405280600d81526020017f31363534373832393338313734000000000000000000000000000000000000008152506040518060400160405280600d81526020017f313635353939323437383739370000000000000000000000000000000000000081525060016200071760201b60201c565b620005b26040518060400160405280600981526020017f5465737420526f6f6d00000000000000000000000000000000000000000000008152506040518060400160405280601181526020017f696d616765732f726f6f6d312e6a7065670000000000000000000000000000008152506040518060400160405280601081526020017f42617263656c6f6e612c20537061696e000000000000000000000000000000008152506040518060400160405280600d81526020017f31363534373832393338313734000000000000000000000000000000000000008152506040518060400160405280600d81526020017f313635353939323437383739370000000000000000000000000000000000000081525060016200071760201b60201c565b620006b66040518060400160405280601a81526020017f536368756c756e67737a656e7472756d204461726d73746164740000000000008152506040518060800160405280605081526020016200333b605091396040518060400160405280601281526020017f4461726d73746164742c204765726d616e7900000000000000000000000000008152506040518060400160405280600d81526020017f31363534373832393338313734000000000000000000000000000000000000008152506040518060400160405280600d81526020017f313635353939323437383739370000000000000000000000000000000000000081525060016200071760201b60201c565b620007116040518060400160405280601581526020017f556e69766572736974c3a474204d616e6e6865696d000000000000000000000081525073dede610a052cd63d055b1e957b1952525d924f7e62000df360201b60201c565b62000f9d565b60018160ff1614156200085f576005600081548092919060010191905055506040518060e001604052806005548152602001878152602001868152602001858152602001848152602001838152602001600060048111156200077557fe5b8152506000806005548152602001908152602001600020600082015181600001556020820151816001019080519060200190620007b492919062000eee565b506040820151816002019080519060200190620007d392919062000eee565b506060820151816003019080519060200190620007f292919062000eee565b5060808201518160040190805190602001906200081192919062000eee565b5060a08201518160050190805190602001906200083092919062000eee565b5060c08201518160060160006101000a81548160ff021916908360048111156200085657fe5b02179055509050505b60028160ff161415620009a7576005600081548092919060010191905055506040518060e00160405280600554815260200187815260200186815260200185815260200184815260200183815260200160016004811115620008bd57fe5b8152506000806005548152602001908152602001600020600082015181600001556020820151816001019080519060200190620008fc92919062000eee565b5060408201518160020190805190602001906200091b92919062000eee565b5060608201518160030190805190602001906200093a92919062000eee565b5060808201518160040190805190602001906200095992919062000eee565b5060a08201518160050190805190602001906200097892919062000eee565b5060c08201518160060160006101000a81548160ff021916908360048111156200099e57fe5b02179055509050505b60038160ff16141562000aef576005600081548092919060010191905055506040518060e0016040528060055481526020018781526020018681526020018581526020018481526020018381526020016002600481111562000a0557fe5b815250600080600554815260200190815260200160002060008201518160000155602082015181600101908051906020019062000a4492919062000eee565b50604082015181600201908051906020019062000a6392919062000eee565b50606082015181600301908051906020019062000a8292919062000eee565b50608082015181600401908051906020019062000aa192919062000eee565b5060a082015181600501908051906020019062000ac092919062000eee565b5060c08201518160060160006101000a81548160ff0219169083600481111562000ae657fe5b02179055509050505b60048160ff16141562000c37576005600081548092919060010191905055506040518060e0016040528060055481526020018781526020018681526020018581526020018481526020018381526020016003600481111562000b4d57fe5b815250600080600554815260200190815260200160002060008201518160000155602082015181600101908051906020019062000b8c92919062000eee565b50604082015181600201908051906020019062000bab92919062000eee565b50606082015181600301908051906020019062000bca92919062000eee565b50608082015181600401908051906020019062000be992919062000eee565b5060a082015181600501908051906020019062000c0892919062000eee565b5060c08201518160060160006101000a81548160ff0219169083600481111562000c2e57fe5b02179055509050505b60058160ff16141562000d7e576005600081548092919060010191905055506040518060e00160405280600554815260200187815260200186815260200185815260200184815260200183815260200160048081111562000c9457fe5b815250600080600554815260200190815260200160002060008201518160000155602082015181600101908051906020019062000cd392919062000eee565b50604082015181600201908051906020019062000cf292919062000eee565b50606082015181600301908051906020019062000d1192919062000eee565b50608082015181600401908051906020019062000d3092919062000eee565b5060a082015181600501908051906020019062000d4f92919062000eee565b5060c08201518160060160006101000a81548160ff0219169083600481111562000d7557fe5b02179055509050505b7fa02fe1d7778794c89948c61459253f245c59f299315977dd4a957eb678b22ab260055433604051808381526020018273ffffffffffffffffffffffffffffffffffffffff1673ffffffffffffffffffffffffffffffffffffffff1681526020019250505060405180910390a1505050505050565b600760008154809291906001019190505550604051806060016040528060075481526020018381526020018273ffffffffffffffffffffffffffffffffffffffff16815250600260003373ffffffffffffffffffffffffffffffffffffffff1673ffffffffffffffffffffffffffffffffffffffff16815260200190815260200160002060008201518160000155602082015181600101908051906020019062000e9f92919062000eee565b5060408201518160020160006101000a81548173ffffffffffffffffffffffffffffffffffffffff021916908373ffffffffffffffffffffffffffffffffffffffff1602179055509050505050565b828054600181600116156101000203166002900490600052602060002090601f016020900481019282601f1062000f3157805160ff191683800117855562000f62565b8280016001018555821562000f62579182015b8281111562000f6157825182559160200191906001019062000f44565b5b50905062000f71919062000f75565b5090565b62000f9a91905b8082111562000f9657600081600090555060010162000f7c565b5090565b90565b61238e8062000fad6000396000f3fe608060405234801561001057600080fd5b50600436106100f55760003560e01c8063915b4f1d11610097578063cacd1c3c11610066578063cacd1c3c146109d2578063d562dc72146109f4578063e6a8597714610a12578063f099556014610a78576100f5565b8063915b4f1d146104a2578063a14dcd6f146104d0578063af94a1d1146104ee578063bb555056146106ae576100f5565b806351ac7b8c116100d357806351ac7b8c146103955780635c51ffaf146103b35780636c8381f8146103d157806390a4ab5e14610454576100f5565b806301a9d792146100fa578063244d6daa1461010457806329e493b214610377575b600080fd5b610102610b6f565b005b6101306004803603602081101561011a57600080fd5b8101908080359060200190929190505050610c13565b60405180888152602001806020018060200180602001806020018060200187600481111561015a57fe5b60ff16815260200186810386528c818151815260200191508051906020019080838360005b8381101561019a57808201518184015260208101905061017f565b50505050905090810190601f1680156101c75780820380516001836020036101000a031916815260200191505b5086810385528b818151815260200191508051906020019080838360005b838110156102005780820151818401526020810190506101e5565b50505050905090810190601f16801561022d5780820380516001836020036101000a031916815260200191505b5086810384528a818151815260200191508051906020019080838360005b8381101561026657808201518184015260208101905061024b565b50505050905090810190601f1680156102935780820380516001836020036101000a031916815260200191505b50868103835289818151815260200191508051906020019080838360005b838110156102cc5780820151818401526020810190506102b1565b50505050905090810190601f1680156102f95780820380516001836020036101000a031916815260200191505b50868103825288818151815260200191508051906020019080838360005b83811015610332578082015181840152602081019050610317565b50505050905090810190601f16801561035f5780820380516001836020036101000a031916815260200191505b509c5050505050505050505050505060405180910390f35b61037f610f5a565b6040518082815260200191505060405180910390f35b61039d610f60565b6040518082815260200191505060405180910390f35b6103bb610f66565b6040518082815260200191505060405180910390f35b6103d9610f6c565b6040518080602001828103825283818151815260200191508051906020019080838360005b838110156104195780820151818401526020810190506103fe565b50505050905090810190601f1680156104465780820380516001836020036101000a031916815260200191505b509250505060405180910390f35b6104a06004803603604081101561046a57600080fd5b81019080803573ffffffffffffffffffffffffffffffffffffffff1690602001909291908035906020019092919050505061100a565b005b6104ce600480360360208110156104b857600080fd5b810190808035906020019092919050505061121b565b005b6104d86117bf565b6040518082815260200191505060405180910390f35b61051a6004803603602081101561050457600080fd5b81019080803590602001909291905050506117c5565b604051808773ffffffffffffffffffffffffffffffffffffffff1673ffffffffffffffffffffffffffffffffffffffff168152602001806020018681526020018581526020018060200180602001848103845289818151815260200191508051906020019080838360005b838110156105a0578082015181840152602081019050610585565b50505050905090810190601f1680156105cd5780820380516001836020036101000a031916815260200191505b50848103835286818151815260200191508051906020019080838360005b838110156106065780820151818401526020810190506105eb565b50505050905090810190601f1680156106335780820380516001836020036101000a031916815260200191505b50848103825285818151815260200191508051906020019080838360005b8381101561066c578082015181840152602081019050610651565b50505050905090810190601f1680156106995780820380516001836020036101000a031916815260200191505b50995050505050505050505060405180910390f35b6109d0600480360360c08110156106c457600080fd5b81019080803590602001906401000000008111156106e157600080fd5b8201836020820111156106f357600080fd5b8035906020019184600183028401116401000000008311171561071557600080fd5b91908080601f016020809104026020016040519081016040528093929190818152602001838380828437600081840152601f19601f8201169050808301925050505050505091929192908035906020019064010000000081111561077857600080fd5b82018360208201111561078a57600080fd5b803590602001918460018302840111640100000000831117156107ac57600080fd5b91908080601f016020809104026020016040519081016040528093929190818152602001838380828437600081840152601f19601f8201169050808301925050505050505091929192908035906020019064010000000081111561080f57600080fd5b82018360208201111561082157600080fd5b8035906020019184600183028401116401000000008311171561084357600080fd5b91908080601f016020809104026020016040519081016040528093929190818152602001838380828437600081840152601f19601f820116905080830192505050505050509192919290803590602001906401000000008111156108a657600080fd5b8201836020820111156108b857600080fd5b803590602001918460018302840111640100000000831117156108da57600080fd5b91908080601f016020809104026020016040519081016040528093929190818152602001838380828437600081840152601f19601f8201169050808301925050505050505091929192908035906020019064010000000081111561093d57600080fd5b82018360208201111561094f57600080fd5b8035906020019184600183028401116401000000008311171561097157600080fd5b91908080601f016020809104026020016040519081016040528093929190818152602001838380828437600081840152601f19601f820116905080830192505050505050509192919290803560ff1690602001909291905050506119e9565b005b6109da612084565b604051808215151515815260200191505060405180910390f35b6109fc61211c565b6040518082815260200191505060405180910390f35b610a5460048036036020811015610a2857600080fd5b81019080803573ffffffffffffffffffffffffffffffffffffffff169060200190929190505050612122565b60405180826004811115610a6457fe5b60ff16815260200191505060405180910390f35b610aba60048036036020811015610a8e57600080fd5b81019080803573ffffffffffffffffffffffffffffffffffffffff169060200190929190505050612142565b60405180848152602001806020018373ffffffffffffffffffffffffffffffffffffffff1673ffffffffffffffffffffffffffffffffffffffff168152602001828103825284818151815260200191508051906020019080838360005b83811015610b32578082015181840152602081019050610b17565b50505050905090810190601f168015610b5f5780820380516001836020036101000a031916815260200191505b5094505050505060405180910390f35b60003390508073ffffffffffffffffffffffffffffffffffffffff1663469c81106040518163ffffffff1660e01b81526004018080602001828103825260148152602001807f486920696e2064657220426c6f636b636861696e000000000000000000000000815250602001915050600060405180830381600087803b158015610bf857600080fd5b505af1158015610c0c573d6000803e3d6000fd5b5050505050565b6000602052806000526040600020600091509050806000015490806001018054600181600116156101000203166002900480601f016020809104026020016040519081016040528092919081815260200182805460018160011615610100020316600290048015610cc55780601f10610c9a57610100808354040283529160200191610cc5565b820191906000526020600020905b815481529060010190602001808311610ca857829003601f168201915b505050505090806002018054600181600116156101000203166002900480601f016020809104026020016040519081016040528092919081815260200182805460018160011615610100020316600290048015610d635780601f10610d3857610100808354040283529160200191610d63565b820191906000526020600020905b815481529060010190602001808311610d4657829003601f168201915b505050505090806003018054600181600116156101000203166002900480601f016020809104026020016040519081016040528092919081815260200182805460018160011615610100020316600290048015610e015780601f10610dd657610100808354040283529160200191610e01565b820191906000526020600020905b815481529060010190602001808311610de457829003601f168201915b505050505090806004018054600181600116156101000203166002900480601f016020809104026020016040519081016040528092919081815260200182805460018160011615610100020316600290048015610e9f5780601f10610e7457610100808354040283529160200191610e9f565b820191906000526020600020905b815481529060010190602001808311610e8257829003601f168201915b505050505090806005018054600181600116156101000203166002900480601f016020809104026020016040519081016040528092919081815260200182805460018160011615610100020316600290048015610f3d5780601f10610f1257610100808354040283529160200191610f3d565b820191906000526020600020905b815481529060010190602001808311610f2057829003601f168201915b5050505050908060060160009054906101000a900460ff16905087565b60075481565b60055481565b60065481565b60098054600181600116156101000203166002900480601f0160208091040260200160405190810160405280929190818152602001828054600181600116156101000203166002900480156110025780601f10610fd757610100808354040283529160200191611002565b820191906000526020600020905b815481529060010190602001808311610fe557829003601f168201915b505050505081565b600260003373ffffffffffffffffffffffffffffffffffffffff1673ffffffffffffffffffffffffffffffffffffffff16815260200190815260200160002060020160009054906101000a900473ffffffffffffffffffffffffffffffffffffffff1673ffffffffffffffffffffffffffffffffffffffff163373ffffffffffffffffffffffffffffffffffffffff161461110d576040517f08c379a00000000000000000000000000000000000000000000000000000000081526004018080602001828103825260178152602001807f43616c6c6572206973206e6f20756e697665727369747900000000000000000081525060200191505060405180910390fd5b80600481111561111957fe5b600160008473ffffffffffffffffffffffffffffffffffffffff1673ffffffffffffffffffffffffffffffffffffffff16815260200190815260200160002060006101000a81548160ff0219169083600481111561117357fe5b02179055507fd0a03b24c90042a1d1efb7e54b816bd1aa246f363ff8aeb34acd6a77053d4073818333604051808481526020018373ffffffffffffffffffffffffffffffffffffffff1673ffffffffffffffffffffffffffffffffffffffff1681526020018273ffffffffffffffffffffffffffffffffffffffff1673ffffffffffffffffffffffffffffffffffffffff168152602001935050505060405180910390a15050565b6000600481111561122857fe5b60008083815260200190815260200160002060060160009054906101000a900460ff16600481111561125657fe5b14156117bc57611264612224565b6000808381526020019081526020016000206040518060e001604052908160008201548152602001600182018054600181600116156101000203166002900480601f0160208091040260200160405190810160405280929190818152602001828054600181600116156101000203166002900480156113245780601f106112f957610100808354040283529160200191611324565b820191906000526020600020905b81548152906001019060200180831161130757829003601f168201915b50505050508152602001600282018054600181600116156101000203166002900480601f0160208091040260200160405190810160405280929190818152602001828054600181600116156101000203166002900480156113c65780601f1061139b576101008083540402835291602001916113c6565b820191906000526020600020905b8154815290600101906020018083116113a957829003601f168201915b50505050508152602001600382018054600181600116156101000203166002900480601f0160208091040260200160405190810160405280929190818152602001828054600181600116156101000203166002900480156114685780601f1061143d57610100808354040283529160200191611468565b820191906000526020600020905b81548152906001019060200180831161144b57829003601f168201915b50505050508152602001600482018054600181600116156101000203166002900480601f01602080910402602001604051908101604052809291908181526020018280546001816001161561010002031660029004801561150a5780601f106114df5761010080835404028352916020019161150a565b820191906000526020600020905b8154815290600101906020018083116114ed57829003601f168201915b50505050508152602001600582018054600181600116156101000203166002900480601f0160208091040260200160405190810160405280929190818152602001828054600181600116156101000203166002900480156115ac5780601f10611581576101008083540402835291602001916115ac565b820191906000526020600020905b81548152906001019060200180831161158f57829003601f168201915b505050505081526020016006820160009054906101000a900460ff1660048111156115d357fe5b60048111156115de57fe5b81525050905060008083815260200190815260200160002060008082016000905560018201600061160f919061226c565b60028201600061161f919061226c565b60038201600061162f919061226c565b60048201600061163f919061226c565b60058201600061164f919061226c565b6006820160006101000a81549060ff021916905550507faf36a679cfd776e8c7fc5ce228d41375b352362905921fb2aae0c2aa212ff4b4338383608001518460a0015142604051808673ffffffffffffffffffffffffffffffffffffffff1673ffffffffffffffffffffffffffffffffffffffff1681526020018581526020018060200180602001848152602001838103835286818151815260200191508051906020019080838360005b838110156117155780820151818401526020810190506116fa565b50505050905090810190601f1680156117425780820380516001836020036101000a031916815260200191505b50838103825285818151815260200191508051906020019080838360005b8381101561177b578082015181840152602081019050611760565b50505050905090810190601f1680156117a85780820380516001836020036101000a031916815260200191505b5097505050505050505060405180910390a1505b50565b60085481565b60036020528060005260406000206000915090508060000160009054906101000a900473ffffffffffffffffffffffffffffffffffffffff1690806001018054600181600116156101000203166002900480601f0160208091040260200160405190810160405280929190818152602001828054600181600116156101000203166002900480156118975780601f1061186c57610100808354040283529160200191611897565b820191906000526020600020905b81548152906001019060200180831161187a57829003601f168201915b505050505090806002015490806003015490806004018054600181600116156101000203166002900480601f0160208091040260200160405190810160405280929190818152602001828054600181600116156101000203166002900480156119415780601f1061191657610100808354040283529160200191611941565b820191906000526020600020905b81548152906001019060200180831161192457829003601f168201915b505050505090806005018054600181600116156101000203166002900480601f0160208091040260200160405190810160405280929190818152602001828054600181600116156101000203166002900480156119df5780601f106119b4576101008083540402835291602001916119df565b820191906000526020600020905b8154815290600101906020018083116119c257829003601f168201915b5050505050905086565b60018160ff161415611b24576005600081548092919060010191905055506040518060e00160405280600554815260200187815260200186815260200185815260200184815260200183815260200160006004811115611a4557fe5b8152506000806005548152602001908152602001600020600082015181600001556020820151816001019080519060200190611a829291906122b4565b506040820151816002019080519060200190611a9f9291906122b4565b506060820151816003019080519060200190611abc9291906122b4565b506080820151816004019080519060200190611ad99291906122b4565b5060a0820151816005019080519060200190611af69291906122b4565b5060c08201518160060160006101000a81548160ff02191690836004811115611b1b57fe5b02179055509050505b60028160ff161415611c5f576005600081548092919060010191905055506040518060e00160405280600554815260200187815260200186815260200185815260200184815260200183815260200160016004811115611b8057fe5b8152506000806005548152602001908152602001600020600082015181600001556020820151816001019080519060200190611bbd9291906122b4565b506040820151816002019080519060200190611bda9291906122b4565b506060820151816003019080519060200190611bf79291906122b4565b506080820151816004019080519060200190611c149291906122b4565b5060a0820151816005019080519060200190611c319291906122b4565b5060c08201518160060160006101000a81548160ff02191690836004811115611c5657fe5b02179055509050505b60038160ff161415611d9a576005600081548092919060010191905055506040518060e00160405280600554815260200187815260200186815260200185815260200184815260200183815260200160026004811115611cbb57fe5b8152506000806005548152602001908152602001600020600082015181600001556020820151816001019080519060200190611cf89291906122b4565b506040820151816002019080519060200190611d159291906122b4565b506060820151816003019080519060200190611d329291906122b4565b506080820151816004019080519060200190611d4f9291906122b4565b5060a0820151816005019080519060200190611d6c9291906122b4565b5060c08201518160060160006101000a81548160ff02191690836004811115611d9157fe5b02179055509050505b60048160ff161415611ed5576005600081548092919060010191905055506040518060e00160405280600554815260200187815260200186815260200185815260200184815260200183815260200160036004811115611df657fe5b8152506000806005548152602001908152602001600020600082015181600001556020820151816001019080519060200190611e339291906122b4565b506040820151816002019080519060200190611e509291906122b4565b506060820151816003019080519060200190611e6d9291906122b4565b506080820151816004019080519060200190611e8a9291906122b4565b5060a0820151816005019080519060200190611ea79291906122b4565b5060c08201518160060160006101000a81548160ff02191690836004811115611ecc57fe5b02179055509050505b60058160ff16141561200f576005600081548092919060010191905055506040518060e001604052806005548152602001878152602001868152602001858152602001848152602001838152602001600480811115611f3057fe5b8152506000806005548152602001908152602001600020600082015181600001556020820151816001019080519060200190611f6d9291906122b4565b506040820151816002019080519060200190611f8a9291906122b4565b506060820151816003019080519060200190611fa79291906122b4565b506080820151816004019080519060200190611fc49291906122b4565b5060a0820151816005019080519060200190611fe19291906122b4565b5060c08201518160060160006101000a81548160ff0219169083600481111561200657fe5b02179055509050505b7fa02fe1d7778794c89948c61459253f245c59f299315977dd4a957eb678b22ab260055433604051808381526020018273ffffffffffffffffffffffffffffffffffffffff1673ffffffffffffffffffffffffffffffffffffffff1681526020019250505060405180910390a1505050505050565b6000600260003373ffffffffffffffffffffffffffffffffffffffff1673ffffffffffffffffffffffffffffffffffffffff16815260200190815260200160002060020160009054906101000a900473ffffffffffffffffffffffffffffffffffffffff1673ffffffffffffffffffffffffffffffffffffffff163373ffffffffffffffffffffffffffffffffffffffff1614905090565b60045481565b60016020528060005260406000206000915054906101000a900460ff1681565b6002602052806000526040600020600091509050806000015490806001018054600181600116156101000203166002900480601f0160208091040260200160405190810160405280929190818152602001828054600181600116156101000203166002900480156121f45780601f106121c9576101008083540402835291602001916121f4565b820191906000526020600020905b8154815290600101906020018083116121d757829003601f168201915b5050505050908060020160009054906101000a900473ffffffffffffffffffffffffffffffffffffffff16905083565b6040518060e001604052806000815260200160608152602001606081526020016060815260200160608152602001606081526020016000600481111561226657fe5b81525090565b50805460018160011615610100020316600290046000825580601f1061229257506122b1565b601f0160209004906000526020600020908101906122b09190612334565b5b50565b828054600181600116156101000203166002900490600052602060002090601f016020900481019282601f106122f557805160ff1916838001178555612323565b82800160010185558215612323579182015b82811115612322578251825591602001919060010190612307565b5b5090506123309190612334565b5090565b61235691905b8082111561235257600081600090555060010161233a565b5090565b9056fea265627a7a7231582014b23aeff539a4ba6426e1890a101c1ee4576974785291129483974375be29d864736f6c6343000510003268747470733a2f2f7777772e736368756c756e67737a656e7472756d2d6461726d73746164742e64652f77702d636f6e74656e742f75706c6f6164732f323031392f30392f445343313836382e6a7067",
  "source": "// SPDX-License-Identifier: MIT\npragma solidity >=0.4.22 <0.8.0;\n\ncontract ResourceRental {\n    //----------------------------------------------------------\n    // Storage\n    //----------------------------------------------------------\n\n    // Store renters\n    // solidity generiert getter\n    mapping(uint256 => Resource) public resources;\n    mapping(address => Permission) public permissionedRenters;\n\n    mapping(address => University) public universities;\n    mapping(uint256 => Rental) public rentals;\n\n    // Store index\n    uint256 public rentersCount;\n    uint256 public resourcesCount;\n    uint256 public resourcesAdvertCount;\n    uint256 public universitiesCount;\n    uint256 public rentalsCount;\n\n    // Store Rental\n\n    // Read Rental\n    string public candidate;\n\n    //----------------------------------------------------------\n    // Structs\n    //----------------------------------------------------------\n\n    // Model a Rental\n    struct Rental {\n        address renterAddress;\n        string resourceName;\n        uint256 bookingId;\n        uint256 resourceId;\n        string startTimestamp;\n        string endTimestamp;\n    }\n\n    // Model a Resource\n    struct Resource {\n        uint256 resourceId;\n        string name;\n        string picture;\n        string location;\n        string fromTimeStamp;\n        string toTimeStamp;\n        Permission permission;\n        // uint8[3] requiredTraining;\n    }\n\n    // Model a University\n    struct University {\n        uint256 universityId;\n        string name;\n        address universityAddress;\n    }\n\n    //----------------------------------------------------------\n    // ENUM\n    //----------------------------------------------------------\n\n    // Permission for Users\n    // For some Resources, the user need to have permissions\n    // these permissions are given by universities\n    enum Permission {\n        ALL,\n        STUDENT,\n        SCIENTIFIC_ASSISTANT,\n        PROFESSOR,\n        ADMIN\n    }\n\n    //----------------------------------------------------------\n    // Events\n    //----------------------------------------------------------\n\n    event RenterAdded(string _renterName, address _senderAddress);\n    event ResourceCreated(uint256 _id, address _creatorAddress);\n    event ResourceRented(\n        address _renter,\n        uint256 _resourceId,\n        string _fromTimeStamp,\n        string _toTimestamp,\n        uint256 _rentalTimeStamp\n    );\n    event UniversityAdded();\n    event PermissionToRenterAdded(\n        uint256 permission,\n        address useraddress,\n        address authority\n    );\n\n    //----------------------------------------------------------\n    // private Functions\n    //----------------------------------------------------------\n\n    function initializeUniversity(string memory _name, address _address)\n        private\n    {\n        // represent Id of the University\n        universitiesCount++;\n        universities[msg.sender] = University(\n            universitiesCount,\n            _name,\n            _address\n        );\n    }\n\n    //----------------------------------------------------------\n    // public Functions\n    //----------------------------------------------------------\n\n    function addUniversity(\n        uint256 _universityId,\n        string memory _name,\n        address _newUniversityAddress\n    ) private {\n        require(msg.sender == universities[msg.sender].universityAddress);\n\n        // represent Id of the University\n        universitiesCount++;\n        universities[msg.sender] = University(\n            universitiesCount,\n            _name,\n            _newUniversityAddress\n        );\n    }\n\n    function addPermissionToRenter(address renterAddress, uint256 permission)\n        public\n        _isUniversity\n    {\n        permissionedRenters[renterAddress] = Permission(permission);\n        emit PermissionToRenterAdded(permission, renterAddress, msg.sender);\n    }\n\n    function addResource(\n        string memory _name,\n        string memory _metaDataLink,\n        string memory _location,\n        string memory _fromTimeStamp,\n        string memory _toTimeStamp,\n        uint8 _permission // uint256 _universityId // uint8[] memory _requiredTraining\n    ) public {\n        // require();\n\n        // represent Id of the renter\n        if (_permission == 1) {\n            resourcesCount++;\n            resources[resourcesCount] = Resource(\n                resourcesCount,\n                _name,\n                _metaDataLink,\n                _location,\n                _fromTimeStamp,\n                _toTimeStamp,\n                Permission.ALL\n                // _requiredTraining\n            );\n        }\n\n        if (_permission == 2) {\n            resourcesCount++;\n            resources[resourcesCount] = Resource(\n                resourcesCount,\n                _name,\n                _metaDataLink,\n                _location,\n                _fromTimeStamp,\n                _toTimeStamp,\n                Permission.STUDENT\n                // _requiredTraining\n            );\n        }\n\n        if (_permission == 3) {\n            resourcesCount++;\n            resources[resourcesCount] = Resource(\n                resourcesCount,\n                _name,\n                _metaDataLink,\n                _location,\n                _fromTimeStamp,\n                _toTimeStamp,\n                Permission.SCIENTIFIC_ASSISTANT\n                // _requiredTraining\n            );\n        }\n\n        if (_permission == 4) {\n            resourcesCount++;\n            resources[resourcesCount] = Resource(\n                resourcesCount,\n                _name,\n                _metaDataLink,\n                _location,\n                _fromTimeStamp,\n                _toTimeStamp,\n                Permission.PROFESSOR\n                // _requiredTraining\n            );\n        }\n\n        if (_permission == 5) {\n            resourcesCount++;\n            resources[resourcesCount] = Resource(\n                resourcesCount,\n                _name,\n                _metaDataLink,\n                _location,\n                _fromTimeStamp,\n                _toTimeStamp,\n                Permission.ADMIN\n                // _requiredTraining\n            );\n        }\n\n        emit ResourceCreated(resourcesCount, msg.sender);\n    }\n\n    // making the function pure or view\n    // to call it through web3.js without needing\n    // a trancaction -> no gas cost, no confirmation delay\n    function isSenderUniversity() public view returns (bool) {\n        return msg.sender == universities[msg.sender].universityAddress;\n    }\n\n    function rentResource(uint256 _id) public {\n        if (resources[_id].permission == Permission.ALL) {\n            Resource memory resource = resources[_id];\n\n            delete resources[_id];\n\n            emit ResourceRented(\n                msg.sender,\n                _id,\n                resource.fromTimeStamp,\n                resource.toTimeStamp,\n                block.timestamp\n            );\n        }\n    }\n\n    function callSafetyBriefing() public {\n        SafetyBriefing called = SafetyBriefing(msg.sender);\n        called.sendMessage(\"Hi in der Blockchain\");\n    }\n\n    //----------------------------------------------------------\n    // Modifier\n    //----------------------------------------------------------\n\n    // isUniversity\n    modifier _isUniversity() {\n        require(\n            msg.sender == universities[msg.sender].universityAddress,\n            \"Caller is no university\"\n        );\n        _;\n    }\n\n    modifier _hasPermission(Permission permission) {\n        require(\n            permissionedRenters[msg.sender] >= permission,\n            \"Caller is no eligible\"\n        );\n        _;\n    }\n\n    //----------------------------------------------------------\n    // Constructor\n    //----------------------------------------------------------\n\n    // Constructor\n    constructor() public {\n        // add example renters\n        // addRenter(\"Student 1\");\n        // addRenter(\"Professor 1\");\n\n        // add example resources\n        addResource(\n            \"Normal Room\",\n            \"images/room1.jpeg\",\n            \"Furtwangen, Germany\",\n            \"1654782938174\",\n            \"1655992478797\",\n            1\n        );\n\n        addResource(\n            \"Concert Hall\",\n            \"images/room1.jpeg\",\n            \"Mannheim, Germani\",\n            \"1654782938174\",\n            \"1655992478797\",\n            1\n        );\n        addResource(\n            \"Theater\",\n            \"images/room1.jpeg\",\n            \"Rom, Italy\",\n            \"1654782938174\",\n            \"1655992478797\",\n            1\n        );\n        addResource(\n            \"Server Room\",\n            \"images/room1.jpeg\",\n            \"Paris, France\",\n            \"1654782938174\",\n            \"1655992478797\",\n            1\n        );\n        addResource(\n            \"Test Room\",\n            \"images/room1.jpeg\",\n            \"Barcelona, Spain\",\n            \"1654782938174\",\n            \"1655992478797\",\n            1\n        );\n        addResource(\n            \"Schulungszentrum Darmstadt\",\n            \"https://www.schulungszentrum-darmstadt.de/wp-content/uploads/2019/09/DSC1868.jpg\",\n            \"Darmstadt, Germany\",\n            \"1654782938174\",\n            \"1655992478797\",\n            1\n        );\n\n        // add universities who are allowed to create resrouces\n        // addUniversity(\n        //     \"Hochschule Furtwangen\",\n        //     0x9BB542Fa2BBC47dF6d5Da1F38dc78a186EA89CaB\n        // );\n        initializeUniversity(\n            \"Universitt Mannheim\",\n            0xDeDE610A052Cd63D055B1e957b1952525d924F7e\n        );\n        // addUniversity(\"TUM\", 0xA5f4A3aa3cFAA342FC401580aE6Af12Ab56EA822);\n        // addUniversity(\n        // \"The Hague University of Applied Sciences\",\n        // 0xE82971C4A32C82556F072C73125e48C4c9c33a59\n        // );\n    }\n}\n\ncontract SafetyBriefing {\n    mapping(uint256 => Briefing) public briefings;\n    uint256 briefingsCount;\n\n    struct Briefing {\n        uint256 briefingId;\n        string briefingName;\n        address briefingAuthority;\n        uint256[] requiredBriefings;\n    }\n\n    event BriefingVerified(\n        address clientAddress,\n        uint256 briefingId,\n        string validity\n    );\n\n    event contractCalled(string message);\n\n    function sendMessage(string memory message) public {\n        emit contractCalled(message);\n    }\n\n    function createBriefing(\n        uint256[] memory requiredBriefings,\n        string memory _briefingName\n    ) public {\n        briefingsCount++;\n\n        if (requiredBriefings.length > 0) {\n            briefings[briefingsCount] = Briefing(\n                briefingsCount,\n                _briefingName,\n                msg.sender,\n                new uint256[](0)\n            );\n        } else {\n            briefings[briefingsCount] = Briefing(\n                briefingsCount,\n                _briefingName,\n                msg.sender,\n                requiredBriefings\n            );\n        }\n    }\n\n    function verifyBriefing(\n        address _clientAddress,\n        uint256 _briefingId,\n        string memory _validity\n    ) public isBriefingAuthority(_briefingId) {\n        emit BriefingVerified(_clientAddress, _briefingId, _validity);\n    }\n\n    //----------------------------------------------------------\n    // Modifier\n    //----------------------------------------------------------\n    modifier isBriefingAuthority(uint256 _id) {\n        require(\n            msg.sender == briefings[_id].briefingAuthority,\n            \"Caller is no Briefingauthority\"\n        );\n        _;\n    }\n}\n\n// Request Rental ----------------------------------------------------------\n\ncontract RequestRental {\n    //----------------------------------------------------------\n    // Attributes\n    //----------------------------------------------------------\n\n    address resourceOwner;\n    mapping(address => Resource) public resource;\n\n    //----------------------------------------------------------\n    // Structs\n    //----------------------------------------------------------\n\n    struct RentalRequest {\n        string _fromTimeStamp;\n        string _toTimestamp;\n    }\n\n    struct Resource {\n        address resourceAddress;\n    }\n\n    //----------------------------------------------------------\n    // Events\n    //----------------------------------------------------------\n\n    event addAddress(string name);\n    event ownserChanged(address newOwner);\n\n    //----------------------------------------------------------\n    // Functions\n    //----------------------------------------------------------\n\n    function changeResourceOwer() public {\n        resourceOwner = msg.sender;\n    }\n\n    function requestRental(\n        uint256 _resourceId,\n        string memory _fromTimeStamp,\n        string memory _toTimestamp,\n        uint256 _rentalTimeStamp\n    ) public {\n        // requestAllowFromOwner();\n    }\n}\n",
  "sourcePath": "/home/dizzle/Dev/Dapp/contracts/ResourceRental.sol",
  "compiler": {
    "name": "solc",
    "version": "0.5.16+commit.9c3226ce.Emscripten.clang"
  },
  "schemaVersion": "3.4.7",
  "updatedAt": "2022-08-24T11:43:34.197Z",
  "networkType": "ethereum",
  "devdoc": {
    "methods": {}
  },
  "userdoc": {
    "methods": {}
  }
}