{
  "contractName": "ResourceRental",
  "abi": [
    {
      "inputs": [],
      "payable": false,
      "stateMutability": "nonpayable",
      "type": "constructor"
    },
    {
      "constant": true,
      "inputs": [],
      "name": "candidate",
      "outputs": [
        {
          "internalType": "string",
          "name": "",
          "type": "string"
        }
      ],
      "payable": false,
      "stateMutability": "view",
      "type": "function"
    },
    {
      "constant": true,
      "inputs": [
        {
          "internalType": "uint256",
          "name": "",
          "type": "uint256"
        }
      ],
      "name": "renters",
      "outputs": [
        {
          "internalType": "uint256",
          "name": "renterId",
          "type": "uint256"
        },
        {
          "internalType": "string",
          "name": "renterName",
          "type": "string"
        },
        {
          "internalType": "uint256",
          "name": "rentCount",
          "type": "uint256"
        }
      ],
      "payable": false,
      "stateMutability": "view",
      "type": "function"
    },
    {
      "constant": true,
      "inputs": [],
      "name": "rentersCount",
      "outputs": [
        {
          "internalType": "uint256",
          "name": "",
          "type": "uint256"
        }
      ],
      "payable": false,
      "stateMutability": "view",
      "type": "function"
    },
    {
      "constant": true,
      "inputs": [
        {
          "internalType": "uint256",
          "name": "",
          "type": "uint256"
        }
      ],
      "name": "resources",
      "outputs": [
        {
          "internalType": "uint256",
          "name": "resourceId",
          "type": "uint256"
        },
        {
          "internalType": "string",
          "name": "name",
          "type": "string"
        },
        {
          "internalType": "string",
          "name": "picture",
          "type": "string"
        },
        {
          "internalType": "string",
          "name": "location",
          "type": "string"
        }
      ],
      "payable": false,
      "stateMutability": "view",
      "type": "function"
    },
    {
      "constant": true,
      "inputs": [],
      "name": "resourcesAdvertCount",
      "outputs": [
        {
          "internalType": "uint256",
          "name": "",
          "type": "uint256"
        }
      ],
      "payable": false,
      "stateMutability": "view",
      "type": "function"
    },
    {
      "constant": true,
      "inputs": [
        {
          "internalType": "uint256",
          "name": "",
          "type": "uint256"
        }
      ],
      "name": "resourcesAdverts",
      "outputs": [
        {
          "internalType": "uint256",
          "name": "advertId",
          "type": "uint256"
        },
        {
          "internalType": "uint256",
          "name": "resourceId",
          "type": "uint256"
        },
        {
          "internalType": "string",
          "name": "fromTimeStamp",
          "type": "string"
        },
        {
          "internalType": "string",
          "name": "toTimeStamp",
          "type": "string"
        }
      ],
      "payable": false,
      "stateMutability": "view",
      "type": "function"
    },
    {
      "constant": true,
      "inputs": [],
      "name": "resourcesCount",
      "outputs": [
        {
          "internalType": "uint256",
          "name": "",
          "type": "uint256"
        }
      ],
      "payable": false,
      "stateMutability": "view",
      "type": "function"
    }
  ],
  "bytecode": "0x60806040523480156200001157600080fd5b50620000586040518060400160405280600981526020017f53747564656e74203100000000000000000000000000000000000000000000008152506200041e60201b60201c565b6200009e6040518060400160405280600b81526020017f50726f666573736f7220310000000000000000000000000000000000000000008152506200041e60201b60201c565b620001506040518060400160405280600b81526020017f4e6f726d616c20526f6f6d0000000000000000000000000000000000000000008152506040518060400160405280601181526020017f696d616765732f726f6f6d312e6a7065670000000000000000000000000000008152506040518060400160405280601381526020017f4675727477616e67656e2c204765726d616e79000000000000000000000000008152506200049b60201b60201c565b620002026040518060400160405280600c81526020017f436f6e636572742048616c6c00000000000000000000000000000000000000008152506040518060400160405280601181526020017f696d616765732f726f6f6d312e6a7065670000000000000000000000000000008152506040518060400160405280601181526020017f4d616e6e6865696d2c204765726d616e690000000000000000000000000000008152506200049b60201b60201c565b620002b46040518060400160405280600781526020017f54686561746572000000000000000000000000000000000000000000000000008152506040518060400160405280601181526020017f696d616765732f726f6f6d312e6a7065670000000000000000000000000000008152506040518060400160405280600a81526020017f526f6d2c204974616c79000000000000000000000000000000000000000000008152506200049b60201b60201c565b620003666040518060400160405280600b81526020017f53657276657220526f6f6d0000000000000000000000000000000000000000008152506040518060400160405280601181526020017f696d616765732f726f6f6d312e6a7065670000000000000000000000000000008152506040518060400160405280600d81526020017f50617269732c204672616e6365000000000000000000000000000000000000008152506200049b60201b60201c565b620004186040518060400160405280600981526020017f5465737420526f6f6d00000000000000000000000000000000000000000000008152506040518060400160405280601181526020017f696d616765732f726f6f6d312e6a7065670000000000000000000000000000008152506040518060400160405280601081526020017f42617263656c6f6e612c20537061696e000000000000000000000000000000008152506200049b60201b60201c565b62000603565b60036000815480929190600101919050555060405180606001604052806003548152602001828152602001600081525060008060035481526020019081526020016000206000820151816000015560208201518160010190805190602001906200048a92919062000554565b506040820151816002015590505050565b60046000815480929190600101919050555060405180608001604052806004548152602001848152602001838152602001828152506001600060045481526020019081526020016000206000820151816000015560208201518160010190805190602001906200050d92919062000554565b5060408201518160020190805190602001906200052c92919062000554565b5060608201518160030190805190602001906200054b92919062000554565b50905050505050565b828054600181600116156101000203166002900490600052602060002090601f016020900481019282601f106200059757805160ff1916838001178555620005c8565b82800160010185558215620005c8579182015b82811115620005c7578251825591602001919060010190620005aa565b5b509050620005d79190620005db565b5090565b6200060091905b80821115620005fc576000816000905550600101620005e2565b5090565b90565b6109ba80620006136000396000f3fe608060405234801561001057600080fd5b506004361061007d5760003560e01c80635c51ffaf1161005b5780635c51ffaf146103475780636c8381f814610365578063d562dc72146103e8578063dcc3974b146104065761007d565b8063244d6daa14610082578063374cfc701461020857806351ac7b8c14610329575b600080fd5b6100ae6004803603602081101561009857600080fd5b81019080803590602001909291905050506104bb565b60405180858152602001806020018060200180602001848103845287818151815260200191508051906020019080838360005b838110156100fc5780820151818401526020810190506100e1565b50505050905090810190601f1680156101295780820380516001836020036101000a031916815260200191505b50848103835286818151815260200191508051906020019080838360005b83811015610162578082015181840152602081019050610147565b50505050905090810190601f16801561018f5780820380516001836020036101000a031916815260200191505b50848103825285818151815260200191508051906020019080838360005b838110156101c85780820151818401526020810190506101ad565b50505050905090810190601f1680156101f55780820380516001836020036101000a031916815260200191505b5097505050505050505060405180910390f35b6102346004803603602081101561021e57600080fd5b81019080803590602001909291905050506106b3565b604051808581526020018481526020018060200180602001838103835285818151815260200191508051906020019080838360005b83811015610284578082015181840152602081019050610269565b50505050905090810190601f1680156102b15780820380516001836020036101000a031916815260200191505b50838103825284818151815260200191508051906020019080838360005b838110156102ea5780820151818401526020810190506102cf565b50505050905090810190601f1680156103175780820380516001836020036101000a031916815260200191505b50965050505050505060405180910390f35b610331610813565b6040518082815260200191505060405180910390f35b61034f610819565b6040518082815260200191505060405180910390f35b61036d61081f565b6040518080602001828103825283818151815260200191508051906020019080838360005b838110156103ad578082015181840152602081019050610392565b50505050905090810190601f1680156103da5780820380516001836020036101000a031916815260200191505b509250505060405180910390f35b6103f06108bd565b6040518082815260200191505060405180910390f35b6104326004803603602081101561041c57600080fd5b81019080803590602001909291905050506108c3565b6040518084815260200180602001838152602001828103825284818151815260200191508051906020019080838360005b8381101561047e578082015181840152602081019050610463565b50505050905090810190601f1680156104ab5780820380516001836020036101000a031916815260200191505b5094505050505060405180910390f35b6001602052806000526040600020600091509050806000015490806001018054600181600116156101000203166002900480601f01602080910402602001604051908101604052809291908181526020018280546001816001161561010002031660029004801561056d5780601f106105425761010080835404028352916020019161056d565b820191906000526020600020905b81548152906001019060200180831161055057829003601f168201915b505050505090806002018054600181600116156101000203166002900480601f01602080910402602001604051908101604052809291908181526020018280546001816001161561010002031660029004801561060b5780601f106105e05761010080835404028352916020019161060b565b820191906000526020600020905b8154815290600101906020018083116105ee57829003601f168201915b505050505090806003018054600181600116156101000203166002900480601f0160208091040260200160405190810160405280929190818152602001828054600181600116156101000203166002900480156106a95780601f1061067e576101008083540402835291602001916106a9565b820191906000526020600020905b81548152906001019060200180831161068c57829003601f168201915b5050505050905084565b6002602052806000526040600020600091509050806000015490806001015490806002018054600181600116156101000203166002900480601f01602080910402602001604051908101604052809291908181526020018280546001816001161561010002031660029004801561076b5780601f106107405761010080835404028352916020019161076b565b820191906000526020600020905b81548152906001019060200180831161074e57829003601f168201915b505050505090806003018054600181600116156101000203166002900480601f0160208091040260200160405190810160405280929190818152602001828054600181600116156101000203166002900480156108095780601f106107de57610100808354040283529160200191610809565b820191906000526020600020905b8154815290600101906020018083116107ec57829003601f168201915b5050505050905084565b60045481565b60055481565b60068054600181600116156101000203166002900480601f0160208091040260200160405190810160405280929190818152602001828054600181600116156101000203166002900480156108b55780601f1061088a576101008083540402835291602001916108b5565b820191906000526020600020905b81548152906001019060200180831161089857829003601f168201915b505050505081565b60035481565b6000602052806000526040600020600091509050806000015490806001018054600181600116156101000203166002900480601f0160208091040260200160405190810160405280929190818152602001828054600181600116156101000203166002900480156109755780601f1061094a57610100808354040283529160200191610975565b820191906000526020600020905b81548152906001019060200180831161095857829003601f168201915b505050505090806002015490508356fea265627a7a72315820cd3994650e85bc7762bc67685fe213738ef36a2edf20ac6abd587dcaaef81b0264736f6c63430005100032",
  "source": "// SPDX-License-Identifier: MIT\npragma solidity >=0.4.22 <0.8.0;\n\ncontract ResourceRental {\n    // Model a Rental\n    struct Rental {\n        string resourceName;\n        uint256 bookingId;\n        uint256 resourceId;\n        uint256 startTimestamp;\n        uint256 endTimestamp;\n    }\n\n    // Model a Renter\n    struct Renter {\n        uint256 renterId;\n        string renterName;\n        uint256 rentCount;\n    }\n\n    // Model a Resource\n    struct Resource {\n        uint256 resourceId;\n        string name;\n        string picture;\n        string location;\n    }\n\n    // Model a Resource Advert\n    struct ResourceAdvert {\n        uint256 advertId;\n        uint256 resourceId;\n        string fromTimeStamp;\n        string toTimeStamp;\n    }\n\n    // Store renters\n    // solidity generiert getter\n    mapping(uint256 => Renter) public renters;\n    mapping(uint256 => Resource) public resources;\n    mapping(uint256 => ResourceAdvert) public resourcesAdverts;\n\n    // Store renters count\n    uint256 public rentersCount;\n    uint256 public resourcesCount;\n    uint256 public resourcesAdvertCount;\n\n    // Store Rental\n\n    // Read Rental\n    string public candidate;\n\n    function addRenter(string memory _name) private {\n        // represent Id of the renter\n        rentersCount++;\n        renters[rentersCount] = Renter(rentersCount, _name, 0);\n    }\n\n    function addResource(\n        string memory _name,\n        string memory _picture,\n        string memory _location\n    ) private {\n        // represent Id of the renter\n        resourcesCount++;\n        resources[resourcesCount] = Resource(\n            resourcesCount,\n            _name,\n            _picture,\n            _location\n        );\n    }\n\n    function addResourceAdvert(\n        uint256 _resourceId,\n        string memory _fromTimeStamp,\n        string memory _toTimeStamp\n    ) private {\n        // represent Id of the renter\n        resourcesAdvertCount++;\n        resourcesAdverts[resourcesAdvertCount] = ResourceAdvert(\n            resourcesCount,\n            _resourceId,\n            _fromTimeStamp,\n            _toTimeStamp\n        );\n    }\n\n    // Store Rental -> from to free\n\n    // Fetch Rental\n\n    // Store Rental count\n\n    // Constructor\n    constructor() public {\n        addRenter(\"Student 1\");\n        addRenter(\"Professor 1\");\n        addResource(\"Normal Room\", \"images/room1.jpeg\", \"Furtwangen, Germany\");\n        addResource(\"Concert Hall\", \"images/room1.jpeg\", \"Mannheim, Germani\");\n        addResource(\"Theater\", \"images/room1.jpeg\", \"Rom, Italy\");\n        addResource(\"Server Room\", \"images/room1.jpeg\", \"Paris, France\");\n        addResource(\"Test Room\", \"images/room1.jpeg\", \"Barcelona, Spain\");\n    }\n}\n",
  "sourcePath": "/home/dizzle/Dev/Dapp/contracts/ResourceRental.sol",
  "compiler": {
    "name": "solc",
    "version": "0.5.16+commit.9c3226ce.Emscripten.clang"
  },
  "schemaVersion": "3.4.7",
  "updatedAt": "2022-06-09T07:42:31.300Z",
  "networkType": "ethereum",
  "devdoc": {
    "methods": {}
  },
  "userdoc": {
    "methods": {}
  }
}