{
  "contractName": "ResourceRental",
  "abi": [
    {
      "inputs": [],
      "payable": false,
      "stateMutability": "nonpayable",
      "type": "constructor"
    },
    {
      "anonymous": false,
      "inputs": [
        {
          "indexed": false,
          "internalType": "uint256",
          "name": "permission",
          "type": "uint256"
        },
        {
          "indexed": false,
          "internalType": "address",
          "name": "useraddress",
          "type": "address"
        },
        {
          "indexed": false,
          "internalType": "address",
          "name": "authority",
          "type": "address"
        }
      ],
      "name": "PermissionToRenterAdded",
      "type": "event"
    },
    {
      "anonymous": false,
      "inputs": [
        {
          "indexed": false,
          "internalType": "string",
          "name": "_renterName",
          "type": "string"
        },
        {
          "indexed": false,
          "internalType": "address",
          "name": "_senderAddress",
          "type": "address"
        }
      ],
      "name": "RenterAdded",
      "type": "event"
    },
    {
      "anonymous": false,
      "inputs": [
        {
          "indexed": false,
          "internalType": "uint256",
          "name": "_id",
          "type": "uint256"
        },
        {
          "indexed": false,
          "internalType": "address",
          "name": "_creatorAddress",
          "type": "address"
        }
      ],
      "name": "ResourceCreated",
      "type": "event"
    },
    {
      "anonymous": false,
      "inputs": [
        {
          "indexed": false,
          "internalType": "address",
          "name": "_renter",
          "type": "address"
        },
        {
          "indexed": false,
          "internalType": "uint256",
          "name": "_resourceId",
          "type": "uint256"
        },
        {
          "indexed": false,
          "internalType": "string",
          "name": "_fromTimeStamp",
          "type": "string"
        },
        {
          "indexed": false,
          "internalType": "string",
          "name": "_toTimestamp",
          "type": "string"
        },
        {
          "indexed": false,
          "internalType": "uint256",
          "name": "_rentalTimeStamp",
          "type": "uint256"
        }
      ],
      "name": "ResourceRented",
      "type": "event"
    },
    {
      "anonymous": false,
      "inputs": [],
      "name": "UniversityAdded",
      "type": "event"
    },
    {
      "constant": true,
      "inputs": [],
      "name": "candidate",
      "outputs": [
        {
          "internalType": "string",
          "name": "",
          "type": "string"
        }
      ],
      "payable": false,
      "stateMutability": "view",
      "type": "function"
    },
    {
      "constant": true,
      "inputs": [
        {
          "internalType": "address",
          "name": "",
          "type": "address"
        }
      ],
      "name": "permissionedRenters",
      "outputs": [
        {
          "internalType": "enum ResourceRental.Permission",
          "name": "",
          "type": "uint8"
        }
      ],
      "payable": false,
      "stateMutability": "view",
      "type": "function"
    },
    {
      "constant": true,
      "inputs": [
        {
          "internalType": "uint256",
          "name": "",
          "type": "uint256"
        }
      ],
      "name": "rentals",
      "outputs": [
        {
          "internalType": "address",
          "name": "renterAddress",
          "type": "address"
        },
        {
          "internalType": "string",
          "name": "resourceName",
          "type": "string"
        },
        {
          "internalType": "uint256",
          "name": "bookingId",
          "type": "uint256"
        },
        {
          "internalType": "uint256",
          "name": "resourceId",
          "type": "uint256"
        },
        {
          "internalType": "string",
          "name": "startTimestamp",
          "type": "string"
        },
        {
          "internalType": "string",
          "name": "endTimestamp",
          "type": "string"
        }
      ],
      "payable": false,
      "stateMutability": "view",
      "type": "function"
    },
    {
      "constant": true,
      "inputs": [],
      "name": "rentalsCount",
      "outputs": [
        {
          "internalType": "uint256",
          "name": "",
          "type": "uint256"
        }
      ],
      "payable": false,
      "stateMutability": "view",
      "type": "function"
    },
    {
      "constant": true,
      "inputs": [],
      "name": "rentersCount",
      "outputs": [
        {
          "internalType": "uint256",
          "name": "",
          "type": "uint256"
        }
      ],
      "payable": false,
      "stateMutability": "view",
      "type": "function"
    },
    {
      "constant": true,
      "inputs": [
        {
          "internalType": "uint256",
          "name": "",
          "type": "uint256"
        }
      ],
      "name": "resources",
      "outputs": [
        {
          "internalType": "uint256",
          "name": "resourceId",
          "type": "uint256"
        },
        {
          "internalType": "string",
          "name": "name",
          "type": "string"
        },
        {
          "internalType": "string",
          "name": "picture",
          "type": "string"
        },
        {
          "internalType": "string",
          "name": "location",
          "type": "string"
        },
        {
          "internalType": "string",
          "name": "fromTimeStamp",
          "type": "string"
        },
        {
          "internalType": "string",
          "name": "toTimeStamp",
          "type": "string"
        },
        {
          "internalType": "enum ResourceRental.Permission",
          "name": "permission",
          "type": "uint8"
        }
      ],
      "payable": false,
      "stateMutability": "view",
      "type": "function"
    },
    {
      "constant": true,
      "inputs": [],
      "name": "resourcesAdvertCount",
      "outputs": [
        {
          "internalType": "uint256",
          "name": "",
          "type": "uint256"
        }
      ],
      "payable": false,
      "stateMutability": "view",
      "type": "function"
    },
    {
      "constant": true,
      "inputs": [],
      "name": "resourcesCount",
      "outputs": [
        {
          "internalType": "uint256",
          "name": "",
          "type": "uint256"
        }
      ],
      "payable": false,
      "stateMutability": "view",
      "type": "function"
    },
    {
      "constant": true,
      "inputs": [
        {
          "internalType": "address",
          "name": "",
          "type": "address"
        }
      ],
      "name": "universities",
      "outputs": [
        {
          "internalType": "uint256",
          "name": "universityId",
          "type": "uint256"
        },
        {
          "internalType": "string",
          "name": "name",
          "type": "string"
        },
        {
          "internalType": "address",
          "name": "universityAddress",
          "type": "address"
        }
      ],
      "payable": false,
      "stateMutability": "view",
      "type": "function"
    },
    {
      "constant": true,
      "inputs": [],
      "name": "universitiesCount",
      "outputs": [
        {
          "internalType": "uint256",
          "name": "",
          "type": "uint256"
        }
      ],
      "payable": false,
      "stateMutability": "view",
      "type": "function"
    },
    {
      "constant": false,
      "inputs": [
        {
          "internalType": "address",
          "name": "renterAddress",
          "type": "address"
        },
        {
          "internalType": "uint256",
          "name": "permission",
          "type": "uint256"
        }
      ],
      "name": "addPermissionToRenter",
      "outputs": [],
      "payable": false,
      "stateMutability": "nonpayable",
      "type": "function"
    },
    {
      "constant": false,
      "inputs": [
        {
          "internalType": "string",
          "name": "_name",
          "type": "string"
        },
        {
          "internalType": "string",
          "name": "_metaDataLink",
          "type": "string"
        },
        {
          "internalType": "string",
          "name": "_location",
          "type": "string"
        },
        {
          "internalType": "string",
          "name": "_fromTimeStamp",
          "type": "string"
        },
        {
          "internalType": "string",
          "name": "_toTimeStamp",
          "type": "string"
        },
        {
          "internalType": "enum ResourceRental.Permission",
          "name": "_permission",
          "type": "uint8"
        }
      ],
      "name": "addResource",
      "outputs": [],
      "payable": false,
      "stateMutability": "nonpayable",
      "type": "function"
    },
    {
      "constant": true,
      "inputs": [],
      "name": "isSenderUniversity",
      "outputs": [
        {
          "internalType": "bool",
          "name": "",
          "type": "bool"
        }
      ],
      "payable": false,
      "stateMutability": "view",
      "type": "function"
    },
    {
      "constant": false,
      "inputs": [
        {
          "internalType": "uint256",
          "name": "_id",
          "type": "uint256"
        }
      ],
      "name": "rentResource",
      "outputs": [],
      "payable": false,
      "stateMutability": "nonpayable",
      "type": "function"
    }
  ],
  "bytecode": "0x60806040523480156200001157600080fd5b50620001326040518060400160405280600b81526020017f4e6f726d616c20526f6f6d0000000000000000000000000000000000000000008152506040518060400160405280601181526020017f696d616765732f726f6f6d312e6a7065670000000000000000000000000000008152506040518060400160405280601381526020017f4675727477616e67656e2c204765726d616e79000000000000000000000000008152506040518060400160405280600d81526020017f31363534373832393338313734000000000000000000000000000000000000008152506040518060400160405280600d81526020017f313635353939323437383739370000000000000000000000000000000000000081525060006200071760201b60201c565b620002526040518060400160405280600c81526020017f436f6e636572742048616c6c00000000000000000000000000000000000000008152506040518060400160405280601181526020017f696d616765732f726f6f6d312e6a7065670000000000000000000000000000008152506040518060400160405280601181526020017f4d616e6e6865696d2c204765726d616e690000000000000000000000000000008152506040518060400160405280600d81526020017f31363534373832393338313734000000000000000000000000000000000000008152506040518060400160405280600d81526020017f313635353939323437383739370000000000000000000000000000000000000081525060006200071760201b60201c565b620003726040518060400160405280600781526020017f54686561746572000000000000000000000000000000000000000000000000008152506040518060400160405280601181526020017f696d616765732f726f6f6d312e6a7065670000000000000000000000000000008152506040518060400160405280600a81526020017f526f6d2c204974616c79000000000000000000000000000000000000000000008152506040518060400160405280600d81526020017f31363534373832393338313734000000000000000000000000000000000000008152506040518060400160405280600d81526020017f313635353939323437383739370000000000000000000000000000000000000081525060006200071760201b60201c565b620004926040518060400160405280600b81526020017f53657276657220526f6f6d0000000000000000000000000000000000000000008152506040518060400160405280601181526020017f696d616765732f726f6f6d312e6a7065670000000000000000000000000000008152506040518060400160405280600d81526020017f50617269732c204672616e6365000000000000000000000000000000000000008152506040518060400160405280600d81526020017f31363534373832393338313734000000000000000000000000000000000000008152506040518060400160405280600d81526020017f313635353939323437383739370000000000000000000000000000000000000081525060006200071760201b60201c565b620005b26040518060400160405280600981526020017f5465737420526f6f6d00000000000000000000000000000000000000000000008152506040518060400160405280601181526020017f696d616765732f726f6f6d312e6a7065670000000000000000000000000000008152506040518060400160405280601081526020017f42617263656c6f6e612c20537061696e000000000000000000000000000000008152506040518060400160405280600d81526020017f31363534373832393338313734000000000000000000000000000000000000008152506040518060400160405280600d81526020017f313635353939323437383739370000000000000000000000000000000000000081525060006200071760201b60201c565b620006b66040518060400160405280601a81526020017f536368756c756e67737a656e7472756d204461726d73746164740000000000008152506040518060800160405280605081526020016200294a605091396040518060400160405280601281526020017f4461726d73746164742c204765726d616e7900000000000000000000000000008152506040518060400160405280600d81526020017f31363534373832393338313734000000000000000000000000000000000000008152506040518060400160405280600d81526020017f313635353939323437383739370000000000000000000000000000000000000081525060006200071760201b60201c565b620007116040518060400160405280601581526020017f556e69766572736974c3a474204d616e6e6865696d000000000000000000000081525073dede610a052cd63d055b1e957b1952525d924f7e620008c560201b60201c565b62000a6f565b6005600081548092919060010191905055506040518060e0016040528060055481526020018781526020018681526020018581526020018481526020018381526020018260048111156200076757fe5b8152506000806005548152602001908152602001600020600082015181600001556020820151816001019080519060200190620007a6929190620009c0565b506040820151816002019080519060200190620007c5929190620009c0565b506060820151816003019080519060200190620007e4929190620009c0565b50608082015181600401908051906020019062000803929190620009c0565b5060a082015181600501908051906020019062000822929190620009c0565b5060c08201518160060160006101000a81548160ff021916908360048111156200084857fe5b02179055509050507fa02fe1d7778794c89948c61459253f245c59f299315977dd4a957eb678b22ab260055433604051808381526020018273ffffffffffffffffffffffffffffffffffffffff1673ffffffffffffffffffffffffffffffffffffffff1681526020019250505060405180910390a1505050505050565b600760008154809291906001019190505550604051806060016040528060075481526020018381526020018273ffffffffffffffffffffffffffffffffffffffff16815250600260003373ffffffffffffffffffffffffffffffffffffffff1673ffffffffffffffffffffffffffffffffffffffff16815260200190815260200160002060008201518160000155602082015181600101908051906020019062000971929190620009c0565b5060408201518160020160006101000a81548173ffffffffffffffffffffffffffffffffffffffff021916908373ffffffffffffffffffffffffffffffffffffffff1602179055509050505050565b828054600181600116156101000203166002900490600052602060002090601f016020900481019282601f1062000a0357805160ff191683800117855562000a34565b8280016001018555821562000a34579182015b8281111562000a3357825182559160200191906001019062000a16565b5b50905062000a43919062000a47565b5090565b62000a6c91905b8082111562000a6857600081600090555060010162000a4e565b5090565b90565b611ecb8062000a7f6000396000f3fe608060405234801561001057600080fd5b50600436106100ea5760003560e01c8063a14dcd6f1161008c578063cacd1c3c11610066578063cacd1c3c146109bd578063d562dc72146109df578063e6a85977146109fd578063f099556014610a63576100ea565b8063a14dcd6f146104bb578063af94a1d1146104d9578063bb55505614610699576100ea565b80635c51ffaf116100c85780635c51ffaf1461039e5780636c8381f8146103bc57806390a4ab5e1461043f578063915b4f1d1461048d576100ea565b8063244d6daa146100ef57806329e493b21461036257806351ac7b8c14610380575b600080fd5b61011b6004803603602081101561010557600080fd5b8101908080359060200190929190505050610b5a565b60405180888152602001806020018060200180602001806020018060200187600481111561014557fe5b60ff16815260200186810386528c818151815260200191508051906020019080838360005b8381101561018557808201518184015260208101905061016a565b50505050905090810190601f1680156101b25780820380516001836020036101000a031916815260200191505b5086810385528b818151815260200191508051906020019080838360005b838110156101eb5780820151818401526020810190506101d0565b50505050905090810190601f1680156102185780820380516001836020036101000a031916815260200191505b5086810384528a818151815260200191508051906020019080838360005b83811015610251578082015181840152602081019050610236565b50505050905090810190601f16801561027e5780820380516001836020036101000a031916815260200191505b50868103835289818151815260200191508051906020019080838360005b838110156102b757808201518184015260208101905061029c565b50505050905090810190601f1680156102e45780820380516001836020036101000a031916815260200191505b50868103825288818151815260200191508051906020019080838360005b8381101561031d578082015181840152602081019050610302565b50505050905090810190601f16801561034a5780820380516001836020036101000a031916815260200191505b509c5050505050505050505050505060405180910390f35b61036a610ea1565b6040518082815260200191505060405180910390f35b610388610ea7565b6040518082815260200191505060405180910390f35b6103a6610ead565b6040518082815260200191505060405180910390f35b6103c4610eb3565b6040518080602001828103825283818151815260200191508051906020019080838360005b838110156104045780820151818401526020810190506103e9565b50505050905090810190601f1680156104315780820380516001836020036101000a031916815260200191505b509250505060405180910390f35b61048b6004803603604081101561045557600080fd5b81019080803573ffffffffffffffffffffffffffffffffffffffff16906020019092919080359060200190929190505050610f51565b005b6104b9600480360360208110156104a357600080fd5b8101908080359060200190929190505050611162565b005b6104c36117f5565b6040518082815260200191505060405180910390f35b610505600480360360208110156104ef57600080fd5b81019080803590602001909291905050506117fb565b604051808773ffffffffffffffffffffffffffffffffffffffff1673ffffffffffffffffffffffffffffffffffffffff168152602001806020018681526020018581526020018060200180602001848103845289818151815260200191508051906020019080838360005b8381101561058b578082015181840152602081019050610570565b50505050905090810190601f1680156105b85780820380516001836020036101000a031916815260200191505b50848103835286818151815260200191508051906020019080838360005b838110156105f15780820151818401526020810190506105d6565b50505050905090810190601f16801561061e5780820380516001836020036101000a031916815260200191505b50848103825285818151815260200191508051906020019080838360005b8381101561065757808201518184015260208101905061063c565b50505050905090810190601f1680156106845780820380516001836020036101000a031916815260200191505b50995050505050505050505060405180910390f35b6109bb600480360360c08110156106af57600080fd5b81019080803590602001906401000000008111156106cc57600080fd5b8201836020820111156106de57600080fd5b8035906020019184600183028401116401000000008311171561070057600080fd5b91908080601f016020809104026020016040519081016040528093929190818152602001838380828437600081840152601f19601f8201169050808301925050505050505091929192908035906020019064010000000081111561076357600080fd5b82018360208201111561077557600080fd5b8035906020019184600183028401116401000000008311171561079757600080fd5b91908080601f016020809104026020016040519081016040528093929190818152602001838380828437600081840152601f19601f820116905080830192505050505050509192919290803590602001906401000000008111156107fa57600080fd5b82018360208201111561080c57600080fd5b8035906020019184600183028401116401000000008311171561082e57600080fd5b91908080601f016020809104026020016040519081016040528093929190818152602001838380828437600081840152601f19601f8201169050808301925050505050505091929192908035906020019064010000000081111561089157600080fd5b8201836020820111156108a357600080fd5b803590602001918460018302840111640100000000831117156108c557600080fd5b91908080601f016020809104026020016040519081016040528093929190818152602001838380828437600081840152601f19601f8201169050808301925050505050505091929192908035906020019064010000000081111561092857600080fd5b82018360208201111561093a57600080fd5b8035906020019184600183028401116401000000008311171561095c57600080fd5b91908080601f016020809104026020016040519081016040528093929190818152602001838380828437600081840152601f19601f820116905080830192505050505050509192919290803560ff169060200190929190505050611a1f565b005b6109c5611bc1565b604051808215151515815260200191505060405180910390f35b6109e7611c59565b6040518082815260200191505060405180910390f35b610a3f60048036036020811015610a1357600080fd5b81019080803573ffffffffffffffffffffffffffffffffffffffff169060200190929190505050611c5f565b60405180826004811115610a4f57fe5b60ff16815260200191505060405180910390f35b610aa560048036036020811015610a7957600080fd5b81019080803573ffffffffffffffffffffffffffffffffffffffff169060200190929190505050611c7f565b60405180848152602001806020018373ffffffffffffffffffffffffffffffffffffffff1673ffffffffffffffffffffffffffffffffffffffff168152602001828103825284818151815260200191508051906020019080838360005b83811015610b1d578082015181840152602081019050610b02565b50505050905090810190601f168015610b4a5780820380516001836020036101000a031916815260200191505b5094505050505060405180910390f35b6000602052806000526040600020600091509050806000015490806001018054600181600116156101000203166002900480601f016020809104026020016040519081016040528092919081815260200182805460018160011615610100020316600290048015610c0c5780601f10610be157610100808354040283529160200191610c0c565b820191906000526020600020905b815481529060010190602001808311610bef57829003601f168201915b505050505090806002018054600181600116156101000203166002900480601f016020809104026020016040519081016040528092919081815260200182805460018160011615610100020316600290048015610caa5780601f10610c7f57610100808354040283529160200191610caa565b820191906000526020600020905b815481529060010190602001808311610c8d57829003601f168201915b505050505090806003018054600181600116156101000203166002900480601f016020809104026020016040519081016040528092919081815260200182805460018160011615610100020316600290048015610d485780601f10610d1d57610100808354040283529160200191610d48565b820191906000526020600020905b815481529060010190602001808311610d2b57829003601f168201915b505050505090806004018054600181600116156101000203166002900480601f016020809104026020016040519081016040528092919081815260200182805460018160011615610100020316600290048015610de65780601f10610dbb57610100808354040283529160200191610de6565b820191906000526020600020905b815481529060010190602001808311610dc957829003601f168201915b505050505090806005018054600181600116156101000203166002900480601f016020809104026020016040519081016040528092919081815260200182805460018160011615610100020316600290048015610e845780601f10610e5957610100808354040283529160200191610e84565b820191906000526020600020905b815481529060010190602001808311610e6757829003601f168201915b5050505050908060060160009054906101000a900460ff16905087565b60075481565b60055481565b60065481565b60098054600181600116156101000203166002900480601f016020809104026020016040519081016040528092919081815260200182805460018160011615610100020316600290048015610f495780601f10610f1e57610100808354040283529160200191610f49565b820191906000526020600020905b815481529060010190602001808311610f2c57829003601f168201915b505050505081565b600260003373ffffffffffffffffffffffffffffffffffffffff1673ffffffffffffffffffffffffffffffffffffffff16815260200190815260200160002060020160009054906101000a900473ffffffffffffffffffffffffffffffffffffffff1673ffffffffffffffffffffffffffffffffffffffff163373ffffffffffffffffffffffffffffffffffffffff1614611054576040517f08c379a00000000000000000000000000000000000000000000000000000000081526004018080602001828103825260178152602001807f43616c6c6572206973206e6f20756e697665727369747900000000000000000081525060200191505060405180910390fd5b80600481111561106057fe5b600160008473ffffffffffffffffffffffffffffffffffffffff1673ffffffffffffffffffffffffffffffffffffffff16815260200190815260200160002060006101000a81548160ff021916908360048111156110ba57fe5b02179055507fd0a03b24c90042a1d1efb7e54b816bd1aa246f363ff8aeb34acd6a77053d4073818333604051808481526020018373ffffffffffffffffffffffffffffffffffffffff1673ffffffffffffffffffffffffffffffffffffffff1681526020018273ffffffffffffffffffffffffffffffffffffffff1673ffffffffffffffffffffffffffffffffffffffff168152602001935050505060405180910390a15050565b61116a611d61565b6000808381526020019081526020016000206040518060e001604052908160008201548152602001600182018054600181600116156101000203166002900480601f01602080910402602001604051908101604052809291908181526020018280546001816001161561010002031660029004801561122a5780601f106111ff5761010080835404028352916020019161122a565b820191906000526020600020905b81548152906001019060200180831161120d57829003601f168201915b50505050508152602001600282018054600181600116156101000203166002900480601f0160208091040260200160405190810160405280929190818152602001828054600181600116156101000203166002900480156112cc5780601f106112a1576101008083540402835291602001916112cc565b820191906000526020600020905b8154815290600101906020018083116112af57829003601f168201915b50505050508152602001600382018054600181600116156101000203166002900480601f01602080910402602001604051908101604052809291908181526020018280546001816001161561010002031660029004801561136e5780601f106113435761010080835404028352916020019161136e565b820191906000526020600020905b81548152906001019060200180831161135157829003601f168201915b50505050508152602001600482018054600181600116156101000203166002900480601f0160208091040260200160405190810160405280929190818152602001828054600181600116156101000203166002900480156114105780601f106113e557610100808354040283529160200191611410565b820191906000526020600020905b8154815290600101906020018083116113f357829003601f168201915b50505050508152602001600582018054600181600116156101000203166002900480601f0160208091040260200160405190810160405280929190818152602001828054600181600116156101000203166002900480156114b25780601f10611487576101008083540402835291602001916114b2565b820191906000526020600020905b81548152906001019060200180831161149557829003601f168201915b505050505081526020016006820160009054906101000a900460ff1660048111156114d957fe5b60048111156114e457fe5b8152505090506008600081548092919060010191905055506040518060c001604052803373ffffffffffffffffffffffffffffffffffffffff16815260200182602001518152602001600854815260200182600001518152602001826080015181526020018260a0015181525060036000600854815260200190815260200160002060008201518160000160006101000a81548173ffffffffffffffffffffffffffffffffffffffff021916908373ffffffffffffffffffffffffffffffffffffffff16021790555060208201518160010190805190602001906115c9929190611da9565b50604082015181600201556060820151816003015560808201518160040190805190602001906115fa929190611da9565b5060a0820151816005019080519060200190611617929190611da9565b509050506000808381526020019081526020016000206000808201600090556001820160006116469190611e29565b6002820160006116569190611e29565b6003820160006116669190611e29565b6004820160006116769190611e29565b6005820160006116869190611e29565b6006820160006101000a81549060ff021916905550507faf36a679cfd776e8c7fc5ce228d41375b352362905921fb2aae0c2aa212ff4b4338383608001518460a0015142604051808673ffffffffffffffffffffffffffffffffffffffff1673ffffffffffffffffffffffffffffffffffffffff1681526020018581526020018060200180602001848152602001838103835286818151815260200191508051906020019080838360005b8381101561174c578082015181840152602081019050611731565b50505050905090810190601f1680156117795780820380516001836020036101000a031916815260200191505b50838103825285818151815260200191508051906020019080838360005b838110156117b2578082015181840152602081019050611797565b50505050905090810190601f1680156117df5780820380516001836020036101000a031916815260200191505b5097505050505050505060405180910390a15050565b60085481565b60036020528060005260406000206000915090508060000160009054906101000a900473ffffffffffffffffffffffffffffffffffffffff1690806001018054600181600116156101000203166002900480601f0160208091040260200160405190810160405280929190818152602001828054600181600116156101000203166002900480156118cd5780601f106118a2576101008083540402835291602001916118cd565b820191906000526020600020905b8154815290600101906020018083116118b057829003601f168201915b505050505090806002015490806003015490806004018054600181600116156101000203166002900480601f0160208091040260200160405190810160405280929190818152602001828054600181600116156101000203166002900480156119775780601f1061194c57610100808354040283529160200191611977565b820191906000526020600020905b81548152906001019060200180831161195a57829003601f168201915b505050505090806005018054600181600116156101000203166002900480601f016020809104026020016040519081016040528092919081815260200182805460018160011615610100020316600290048015611a155780601f106119ea57610100808354040283529160200191611a15565b820191906000526020600020905b8154815290600101906020018083116119f857829003601f168201915b5050505050905086565b6005600081548092919060010191905055506040518060e001604052806005548152602001878152602001868152602001858152602001848152602001838152602001826004811115611a6e57fe5b8152506000806005548152602001908152602001600020600082015181600001556020820151816001019080519060200190611aab929190611da9565b506040820151816002019080519060200190611ac8929190611da9565b506060820151816003019080519060200190611ae5929190611da9565b506080820151816004019080519060200190611b02929190611da9565b5060a0820151816005019080519060200190611b1f929190611da9565b5060c08201518160060160006101000a81548160ff02191690836004811115611b4457fe5b02179055509050507fa02fe1d7778794c89948c61459253f245c59f299315977dd4a957eb678b22ab260055433604051808381526020018273ffffffffffffffffffffffffffffffffffffffff1673ffffffffffffffffffffffffffffffffffffffff1681526020019250505060405180910390a1505050505050565b6000600260003373ffffffffffffffffffffffffffffffffffffffff1673ffffffffffffffffffffffffffffffffffffffff16815260200190815260200160002060020160009054906101000a900473ffffffffffffffffffffffffffffffffffffffff1673ffffffffffffffffffffffffffffffffffffffff163373ffffffffffffffffffffffffffffffffffffffff1614905090565b60045481565b60016020528060005260406000206000915054906101000a900460ff1681565b6002602052806000526040600020600091509050806000015490806001018054600181600116156101000203166002900480601f016020809104026020016040519081016040528092919081815260200182805460018160011615610100020316600290048015611d315780601f10611d0657610100808354040283529160200191611d31565b820191906000526020600020905b815481529060010190602001808311611d1457829003601f168201915b5050505050908060020160009054906101000a900473ffffffffffffffffffffffffffffffffffffffff16905083565b6040518060e0016040528060008152602001606081526020016060815260200160608152602001606081526020016060815260200160006004811115611da357fe5b81525090565b828054600181600116156101000203166002900490600052602060002090601f016020900481019282601f10611dea57805160ff1916838001178555611e18565b82800160010185558215611e18579182015b82811115611e17578251825591602001919060010190611dfc565b5b509050611e259190611e71565b5090565b50805460018160011615610100020316600290046000825580601f10611e4f5750611e6e565b601f016020900490600052602060002090810190611e6d9190611e71565b5b50565b611e9391905b80821115611e8f576000816000905550600101611e77565b5090565b9056fea265627a7a723158204497f730b3c3f2362eabb7eb6f48cbc794c0807440b12bb7fa8b2c163cdaaf2064736f6c6343000510003268747470733a2f2f7777772e736368756c756e67737a656e7472756d2d6461726d73746164742e64652f77702d636f6e74656e742f75706c6f6164732f323031392f30392f445343313836382e6a7067",
  "source": "// SPDX-License-Identifier: MIT\npragma solidity >=0.4.22 <0.8.0;\n\ncontract ResourceRental {\n    //----------------------------------------------------------\n    // Storage\n    //----------------------------------------------------------\n\n    // Store renters\n    // solidity generiert getter\n    mapping(uint256 => Resource) public resources;\n    mapping(address => Permission) public permissionedRenters;\n\n    mapping(address => University) public universities;\n    mapping(uint256 => Rental) public rentals;\n\n    // Store index\n    uint256 public rentersCount;\n    uint256 public resourcesCount;\n    uint256 public resourcesAdvertCount;\n    uint256 public universitiesCount;\n    uint256 public rentalsCount;\n\n    // Store Rental\n\n    // Read Rental\n    string public candidate;\n\n    //----------------------------------------------------------\n    // Structs\n    //----------------------------------------------------------\n\n    // Model a Rental\n    struct Rental {\n        address renterAddress;\n        string resourceName;\n        uint256 bookingId;\n        uint256 resourceId;\n        string startTimestamp;\n        string endTimestamp;\n    }\n\n    // Model a Resource\n    struct Resource {\n        uint256 resourceId;\n        string name;\n        string picture;\n        string location;\n        string fromTimeStamp;\n        string toTimeStamp;\n        Permission permission;\n        // uint8[3] requiredTraining;\n    }\n\n    // Model a University\n    struct University {\n        uint256 universityId;\n        string name;\n        address universityAddress;\n    }\n\n    //----------------------------------------------------------\n    // ENUM\n    //----------------------------------------------------------\n\n    // Permission for Users\n    // For some Resources, the user need to have permissions\n    // these permissions are given by universities\n    enum Permission {\n        ALL,\n        STUDENT,\n        SCIENTIFIC_ASSISTANT,\n        PROFESSOR,\n        ADMIN\n    }\n\n    //----------------------------------------------------------\n    // Events\n    //----------------------------------------------------------\n\n    event RenterAdded(string _renterName, address _senderAddress);\n    event ResourceCreated(uint256 _id, address _creatorAddress);\n    event ResourceRented(\n        address _renter,\n        uint256 _resourceId,\n        string _fromTimeStamp,\n        string _toTimestamp,\n        uint256 _rentalTimeStamp\n    );\n    event UniversityAdded();\n    event PermissionToRenterAdded(\n        uint256 permission,\n        address useraddress,\n        address authority\n    );\n\n    //----------------------------------------------------------\n    // private Functions\n    //----------------------------------------------------------\n\n    function initializeUniversity(string memory _name, address _address)\n        private\n    {\n        // represent Id of the University\n        universitiesCount++;\n        universities[msg.sender] = University(\n            universitiesCount,\n            _name,\n            _address\n        );\n    }\n\n    //----------------------------------------------------------\n    // public Functions\n    //----------------------------------------------------------\n\n    function addUniversity(\n        uint256 _universityId,\n        string memory _name,\n        address _newUniversityAddress\n    ) private {\n        require(msg.sender == universities[msg.sender].universityAddress);\n\n        // represent Id of the University\n        universitiesCount++;\n        universities[msg.sender] = University(\n            universitiesCount,\n            _name,\n            _newUniversityAddress\n        );\n    }\n\n    function addPermissionToRenter(address renterAddress, uint256 permission)\n        public\n        _isUniversity\n    {\n        permissionedRenters[renterAddress] = Permission(permission);\n        emit PermissionToRenterAdded(permission, renterAddress, msg.sender);\n    }\n\n    function addResource(\n        string memory _name,\n        string memory _metaDataLink,\n        string memory _location,\n        string memory _fromTimeStamp,\n        string memory _toTimeStamp,\n        Permission _permission // uint256 _universityId // uint8[] memory _requiredTraining\n    ) public {\n        // require();\n\n        // represent Id of the renter\n        resourcesCount++;\n        resources[resourcesCount] = Resource(\n            resourcesCount,\n            _name,\n            _metaDataLink,\n            _location,\n            _fromTimeStamp,\n            _toTimeStamp,\n            _permission\n            // _requiredTraining\n        );\n        emit ResourceCreated(resourcesCount, msg.sender);\n    }\n\n    // making the function pure or view\n    // to call it through web3.js without needing\n    // a trancaction -> no gas cost, no confirmation delay\n    function isSenderUniversity() public view returns (bool) {\n        return msg.sender == universities[msg.sender].universityAddress;\n    }\n\n    function rentResource(uint256 _id) public {\n        Resource memory resource = resources[_id];\n\n        rentalsCount++;\n        rentals[rentalsCount] = Rental(\n            msg.sender,\n            resource.name,\n            rentalsCount,\n            resource.resourceId,\n            resource.fromTimeStamp,\n            resource.toTimeStamp\n        );\n\n        delete resources[_id];\n\n        emit ResourceRented(\n            msg.sender,\n            _id,\n            resource.fromTimeStamp,\n            resource.toTimeStamp,\n            block.timestamp\n        );\n    }\n\n    //----------------------------------------------------------\n    // Modifier\n    //----------------------------------------------------------\n\n    // isUniversity\n    modifier _isUniversity() {\n        require(\n            msg.sender == universities[msg.sender].universityAddress,\n            \"Caller is no university\"\n        );\n        _;\n    }\n\n    modifier _hasPermission(Permission permission) {\n        require(\n            permissionedRenters[msg.sender] >= permission,\n            \"Caller is no eligible\"\n        );\n        _;\n    }\n\n    //----------------------------------------------------------\n    // Constructor\n    //----------------------------------------------------------\n\n    // Constructor\n    constructor() public {\n        // add example renters\n        // addRenter(\"Student 1\");\n        // addRenter(\"Professor 1\");\n\n        // add example resources\n        addResource(\n            \"Normal Room\",\n            \"images/room1.jpeg\",\n            \"Furtwangen, Germany\",\n            \"1654782938174\",\n            \"1655992478797\",\n            Permission.ALL\n        );\n\n        addResource(\n            \"Concert Hall\",\n            \"images/room1.jpeg\",\n            \"Mannheim, Germani\",\n            \"1654782938174\",\n            \"1655992478797\",\n            Permission.ALL\n        );\n        addResource(\n            \"Theater\",\n            \"images/room1.jpeg\",\n            \"Rom, Italy\",\n            \"1654782938174\",\n            \"1655992478797\",\n            Permission.ALL\n        );\n        addResource(\n            \"Server Room\",\n            \"images/room1.jpeg\",\n            \"Paris, France\",\n            \"1654782938174\",\n            \"1655992478797\",\n            Permission.ALL\n        );\n        addResource(\n            \"Test Room\",\n            \"images/room1.jpeg\",\n            \"Barcelona, Spain\",\n            \"1654782938174\",\n            \"1655992478797\",\n            Permission.ALL\n        );\n        addResource(\n            \"Schulungszentrum Darmstadt\",\n            \"https://www.schulungszentrum-darmstadt.de/wp-content/uploads/2019/09/DSC1868.jpg\",\n            \"Darmstadt, Germany\",\n            \"1654782938174\",\n            \"1655992478797\",\n            Permission.ALL\n        );\n\n        // add universities who are allowed to create resrouces\n        // addUniversity(\n        //     \"Hochschule Furtwangen\",\n        //     0x9BB542Fa2BBC47dF6d5Da1F38dc78a186EA89CaB\n        // );\n        initializeUniversity(\n            \"Universitt Mannheim\",\n            0xDeDE610A052Cd63D055B1e957b1952525d924F7e\n        );\n        // addUniversity(\"TUM\", 0xA5f4A3aa3cFAA342FC401580aE6Af12Ab56EA822);\n        // addUniversity(\n        // \"The Hague University of Applied Sciences\",\n        // 0xE82971C4A32C82556F072C73125e48C4c9c33a59\n        // );\n    }\n}\n",
  "sourcePath": "/home/dizzle/Dev/Dapp/contracts/ResourceRental.sol",
  "compiler": {
    "name": "solc",
    "version": "0.5.16+commit.9c3226ce.Emscripten.clang"
  },
  "schemaVersion": "3.4.7",
  "updatedAt": "2022-08-17T13:59:31.461Z",
  "networkType": "ethereum",
  "devdoc": {
    "methods": {}
  },
  "userdoc": {
    "methods": {}
  }
}