{
  "contractName": "ResourceRental",
  "abi": [
    {
      "inputs": [],
      "payable": false,
      "stateMutability": "nonpayable",
      "type": "constructor"
    },
    {
      "anonymous": false,
      "inputs": [
        {
          "indexed": false,
          "internalType": "string",
          "name": "_renterName",
          "type": "string"
        },
        {
          "indexed": false,
          "internalType": "address",
          "name": "_senderAddress",
          "type": "address"
        }
      ],
      "name": "RenterAdded",
      "type": "event"
    },
    {
      "anonymous": false,
      "inputs": [
        {
          "indexed": false,
          "internalType": "uint256",
          "name": "_id",
          "type": "uint256"
        },
        {
          "indexed": false,
          "internalType": "address",
          "name": "_creatorAddress",
          "type": "address"
        }
      ],
      "name": "ResourceCreated",
      "type": "event"
    },
    {
      "anonymous": false,
      "inputs": [
        {
          "indexed": false,
          "internalType": "address",
          "name": "_renter",
          "type": "address"
        },
        {
          "indexed": false,
          "internalType": "uint256",
          "name": "_resourceId",
          "type": "uint256"
        },
        {
          "indexed": false,
          "internalType": "string",
          "name": "_fromTimeStamp",
          "type": "string"
        },
        {
          "indexed": false,
          "internalType": "string",
          "name": "_toTimestamp",
          "type": "string"
        }
      ],
      "name": "ResourceRented",
      "type": "event"
    },
    {
      "anonymous": false,
      "inputs": [],
      "name": "UniversityAdded",
      "type": "event"
    },
    {
      "constant": true,
      "inputs": [],
      "name": "candidate",
      "outputs": [
        {
          "internalType": "string",
          "name": "",
          "type": "string"
        }
      ],
      "payable": false,
      "stateMutability": "view",
      "type": "function"
    },
    {
      "constant": true,
      "inputs": [
        {
          "internalType": "uint256",
          "name": "",
          "type": "uint256"
        }
      ],
      "name": "rentals",
      "outputs": [
        {
          "internalType": "address",
          "name": "renterAddress",
          "type": "address"
        },
        {
          "internalType": "string",
          "name": "resourceName",
          "type": "string"
        },
        {
          "internalType": "uint256",
          "name": "bookingId",
          "type": "uint256"
        },
        {
          "internalType": "uint256",
          "name": "resourceId",
          "type": "uint256"
        },
        {
          "internalType": "string",
          "name": "startTimestamp",
          "type": "string"
        },
        {
          "internalType": "string",
          "name": "endTimestamp",
          "type": "string"
        }
      ],
      "payable": false,
      "stateMutability": "view",
      "type": "function"
    },
    {
      "constant": true,
      "inputs": [],
      "name": "rentalsCount",
      "outputs": [
        {
          "internalType": "uint256",
          "name": "",
          "type": "uint256"
        }
      ],
      "payable": false,
      "stateMutability": "view",
      "type": "function"
    },
    {
      "constant": true,
      "inputs": [
        {
          "internalType": "uint256",
          "name": "",
          "type": "uint256"
        }
      ],
      "name": "renters",
      "outputs": [
        {
          "internalType": "uint256",
          "name": "renterId",
          "type": "uint256"
        },
        {
          "internalType": "string",
          "name": "renterName",
          "type": "string"
        },
        {
          "internalType": "uint256",
          "name": "rentCount",
          "type": "uint256"
        }
      ],
      "payable": false,
      "stateMutability": "view",
      "type": "function"
    },
    {
      "constant": true,
      "inputs": [],
      "name": "rentersCount",
      "outputs": [
        {
          "internalType": "uint256",
          "name": "",
          "type": "uint256"
        }
      ],
      "payable": false,
      "stateMutability": "view",
      "type": "function"
    },
    {
      "constant": true,
      "inputs": [
        {
          "internalType": "uint256",
          "name": "",
          "type": "uint256"
        }
      ],
      "name": "resources",
      "outputs": [
        {
          "internalType": "uint256",
          "name": "resourceId",
          "type": "uint256"
        },
        {
          "internalType": "string",
          "name": "name",
          "type": "string"
        },
        {
          "internalType": "string",
          "name": "picture",
          "type": "string"
        },
        {
          "internalType": "string",
          "name": "location",
          "type": "string"
        },
        {
          "internalType": "string",
          "name": "fromTimeStamp",
          "type": "string"
        },
        {
          "internalType": "string",
          "name": "toTimeStamp",
          "type": "string"
        },
        {
          "internalType": "bool",
          "name": "verified",
          "type": "bool"
        }
      ],
      "payable": false,
      "stateMutability": "view",
      "type": "function"
    },
    {
      "constant": true,
      "inputs": [],
      "name": "resourcesAdvertCount",
      "outputs": [
        {
          "internalType": "uint256",
          "name": "",
          "type": "uint256"
        }
      ],
      "payable": false,
      "stateMutability": "view",
      "type": "function"
    },
    {
      "constant": true,
      "inputs": [],
      "name": "resourcesCount",
      "outputs": [
        {
          "internalType": "uint256",
          "name": "",
          "type": "uint256"
        }
      ],
      "payable": false,
      "stateMutability": "view",
      "type": "function"
    },
    {
      "constant": true,
      "inputs": [
        {
          "internalType": "uint256",
          "name": "",
          "type": "uint256"
        }
      ],
      "name": "universities",
      "outputs": [
        {
          "internalType": "uint256",
          "name": "universityId",
          "type": "uint256"
        },
        {
          "internalType": "string",
          "name": "name",
          "type": "string"
        },
        {
          "internalType": "address",
          "name": "universityAddress",
          "type": "address"
        }
      ],
      "payable": false,
      "stateMutability": "view",
      "type": "function"
    },
    {
      "constant": true,
      "inputs": [],
      "name": "universitiesCount",
      "outputs": [
        {
          "internalType": "uint256",
          "name": "",
          "type": "uint256"
        }
      ],
      "payable": false,
      "stateMutability": "view",
      "type": "function"
    },
    {
      "constant": true,
      "inputs": [
        {
          "internalType": "uint256",
          "name": "",
          "type": "uint256"
        }
      ],
      "name": "verifiers",
      "outputs": [
        {
          "internalType": "uint256",
          "name": "verifierId",
          "type": "uint256"
        },
        {
          "internalType": "string",
          "name": "name",
          "type": "string"
        },
        {
          "internalType": "address",
          "name": "verifierAddress",
          "type": "address"
        }
      ],
      "payable": false,
      "stateMutability": "view",
      "type": "function"
    },
    {
      "constant": true,
      "inputs": [],
      "name": "verifiersCount",
      "outputs": [
        {
          "internalType": "uint256",
          "name": "",
          "type": "uint256"
        }
      ],
      "payable": false,
      "stateMutability": "view",
      "type": "function"
    },
    {
      "constant": false,
      "inputs": [
        {
          "internalType": "string",
          "name": "_name",
          "type": "string"
        }
      ],
      "name": "addRenter",
      "outputs": [],
      "payable": false,
      "stateMutability": "nonpayable",
      "type": "function"
    },
    {
      "constant": false,
      "inputs": [
        {
          "internalType": "uint256",
          "name": "_resourceId",
          "type": "uint256"
        },
        {
          "internalType": "bool",
          "name": "_verified",
          "type": "bool"
        },
        {
          "internalType": "uint256",
          "name": "_verifierId",
          "type": "uint256"
        }
      ],
      "name": "verifyResourceEcoStamp",
      "outputs": [],
      "payable": false,
      "stateMutability": "nonpayable",
      "type": "function"
    },
    {
      "constant": false,
      "inputs": [
        {
          "internalType": "uint256",
          "name": "_univertsityId",
          "type": "uint256"
        },
        {
          "internalType": "string",
          "name": "_verifierName",
          "type": "string"
        },
        {
          "internalType": "address",
          "name": "_verifierAddress",
          "type": "address"
        }
      ],
      "name": "addVerifier",
      "outputs": [],
      "payable": false,
      "stateMutability": "nonpayable",
      "type": "function"
    },
    {
      "constant": false,
      "inputs": [
        {
          "internalType": "string",
          "name": "_name",
          "type": "string"
        },
        {
          "internalType": "string",
          "name": "_picture",
          "type": "string"
        },
        {
          "internalType": "string",
          "name": "_location",
          "type": "string"
        },
        {
          "internalType": "string",
          "name": "_fromTimeStamp",
          "type": "string"
        },
        {
          "internalType": "string",
          "name": "_toTimeStamp",
          "type": "string"
        }
      ],
      "name": "addResource",
      "outputs": [],
      "payable": false,
      "stateMutability": "nonpayable",
      "type": "function"
    },
    {
      "constant": true,
      "inputs": [
        {
          "internalType": "uint256",
          "name": "_id",
          "type": "uint256"
        }
      ],
      "name": "isSenderUniversity",
      "outputs": [
        {
          "internalType": "bool",
          "name": "",
          "type": "bool"
        }
      ],
      "payable": false,
      "stateMutability": "view",
      "type": "function"
    },
    {
      "constant": false,
      "inputs": [
        {
          "internalType": "uint256",
          "name": "_id",
          "type": "uint256"
        }
      ],
      "name": "rentResource",
      "outputs": [],
      "payable": false,
      "stateMutability": "nonpayable",
      "type": "function"
    }
  ],
  "bytecode": "0x60806040523480156200001157600080fd5b50620000586040518060400160405280600981526020017f53747564656e74203100000000000000000000000000000000000000000000008152506200079760201b60201c565b6200009e6040518060400160405280600b81526020017f50726f666573736f7220310000000000000000000000000000000000000000008152506200079760201b60201c565b620001bc6040518060400160405280600b81526020017f4e6f726d616c20526f6f6d0000000000000000000000000000000000000000008152506040518060400160405280601181526020017f696d616765732f726f6f6d312e6a7065670000000000000000000000000000008152506040518060400160405280601381526020017f4675727477616e67656e2c204765726d616e79000000000000000000000000008152506040518060400160405280600d81526020017f31363534373832393338313734000000000000000000000000000000000000008152506040518060400160405280600d81526020017f3136353539393234373837393700000000000000000000000000000000000000815250620008e760201b60201c565b620002da6040518060400160405280600c81526020017f436f6e636572742048616c6c00000000000000000000000000000000000000008152506040518060400160405280601181526020017f696d616765732f726f6f6d312e6a7065670000000000000000000000000000008152506040518060400160405280601181526020017f4d616e6e6865696d2c204765726d616e690000000000000000000000000000008152506040518060400160405280600d81526020017f31363534373832393338313734000000000000000000000000000000000000008152506040518060400160405280600d81526020017f3136353539393234373837393700000000000000000000000000000000000000815250620008e760201b60201c565b620003f86040518060400160405280600781526020017f54686561746572000000000000000000000000000000000000000000000000008152506040518060400160405280601181526020017f696d616765732f726f6f6d312e6a7065670000000000000000000000000000008152506040518060400160405280600a81526020017f526f6d2c204974616c79000000000000000000000000000000000000000000008152506040518060400160405280600d81526020017f31363534373832393338313734000000000000000000000000000000000000008152506040518060400160405280600d81526020017f3136353539393234373837393700000000000000000000000000000000000000815250620008e760201b60201c565b620005166040518060400160405280600b81526020017f53657276657220526f6f6d0000000000000000000000000000000000000000008152506040518060400160405280601181526020017f696d616765732f726f6f6d312e6a7065670000000000000000000000000000008152506040518060400160405280600d81526020017f50617269732c204672616e6365000000000000000000000000000000000000008152506040518060400160405280600d81526020017f31363534373832393338313734000000000000000000000000000000000000008152506040518060400160405280600d81526020017f3136353539393234373837393700000000000000000000000000000000000000815250620008e760201b60201c565b620006346040518060400160405280600981526020017f5465737420526f6f6d00000000000000000000000000000000000000000000008152506040518060400160405280601181526020017f696d616765732f726f6f6d312e6a7065670000000000000000000000000000008152506040518060400160405280601081526020017f42617263656c6f6e612c20537061696e000000000000000000000000000000008152506040518060400160405280600d81526020017f31363534373832393338313734000000000000000000000000000000000000008152506040518060400160405280600d81526020017f3136353539393234373837393700000000000000000000000000000000000000815250620008e760201b60201c565b620007366040518060400160405280601a81526020017f536368756c756e67737a656e7472756d204461726d737461647400000000000081525060405180608001604052806050815260200162003101605091396040518060400160405280601281526020017f4461726d73746164742c204765726d616e7900000000000000000000000000008152506040518060400160405280600d81526020017f31363534373832393338313734000000000000000000000000000000000000008152506040518060400160405280600d81526020017f3136353539393234373837393700000000000000000000000000000000000000815250620008e760201b60201c565b620007916040518060400160405280601581526020017f556e69766572736974c3a474204d616e6e6865696d000000000000000000000081525073dede610a052cd63d055b1e957b1952525d924f7e62000a8260201b60201c565b62000c02565b60056000815480929190600101919050555060405180606001604052806005548152602001828152602001600081525060008060055481526020019081526020016000206000820151816000015560208201518160010190805190602001906200080392919062000b53565b50604082015181600201559050507f2212b8a0ec32d7c2a1e995cd8470ebb5d67d71c1e74ac3d151ae4245567980f0813360405180806020018373ffffffffffffffffffffffffffffffffffffffff1673ffffffffffffffffffffffffffffffffffffffff168152602001828103825284818151815260200191508051906020019080838360005b83811015620008a85780820151818401526020810190506200088b565b50505050905090810190601f168015620008d65780820380516001836020036101000a031916815260200191505b50935050505060405180910390a150565b6006600081548092919060010191905055506040518060e001604052806006548152602001868152602001858152602001848152602001838152602001828152602001600015158152506001600060065481526020019081526020016000206000820151816000015560208201518160010190805190602001906200096e92919062000b53565b5060408201518160020190805190602001906200098d92919062000b53565b506060820151816003019080519060200190620009ac92919062000b53565b506080820151816004019080519060200190620009cb92919062000b53565b5060a0820151816005019080519060200190620009ea92919062000b53565b5060c08201518160060160006101000a81548160ff0219169083151502179055509050507fa02fe1d7778794c89948c61459253f245c59f299315977dd4a957eb678b22ab260065433604051808381526020018273ffffffffffffffffffffffffffffffffffffffff1673ffffffffffffffffffffffffffffffffffffffff1681526020019250505060405180910390a15050505050565b600860008154809291906001019190505550604051806060016040528060085481526020018381526020018273ffffffffffffffffffffffffffffffffffffffff1681525060026000600854815260200190815260200160002060008201518160000155602082015181600101908051906020019062000b0492919062000b53565b5060408201518160020160006101000a81548173ffffffffffffffffffffffffffffffffffffffff021916908373ffffffffffffffffffffffffffffffffffffffff1602179055509050505050565b828054600181600116156101000203166002900490600052602060002090601f016020900481019282601f1062000b9657805160ff191683800117855562000bc7565b8280016001018555821562000bc7579182015b8281111562000bc657825182559160200191906001019062000ba9565b5b50905062000bd6919062000bda565b5090565b62000bff91905b8082111562000bfb57600081600090555060010162000be1565b5090565b90565b6124ef8062000c126000396000f3fe608060405234801561001057600080fd5b50600436106101165760003560e01c8063915b4f1d116100a2578063af94a1d111610071578063af94a1d114610b44578063afd543e914610d04578063cce30a1414610d48578063d562dc7214610d8e578063dcc3974b14610dac57610116565b8063915b4f1d146109365780639c38f65f14610964578063a14dcd6f14610a45578063ac1eff6814610a6357610116565b806351ac7b8c116100e957806351ac7b8c146107745780635c51ffaf146107925780636c8381f8146107b05780637f05c828146108335780638a9bd6301461085157610116565b8063131f59191461011b578063244d6daa1461043257806329e493b21461069b5780632c3155d0146106b9575b600080fd5b610430600480360360a081101561013157600080fd5b810190808035906020019064010000000081111561014e57600080fd5b82018360208201111561016057600080fd5b8035906020019184600183028401116401000000008311171561018257600080fd5b91908080601f016020809104026020016040519081016040528093929190818152602001838380828437600081840152601f19601f820116905080830192505050505050509192919290803590602001906401000000008111156101e557600080fd5b8201836020820111156101f757600080fd5b8035906020019184600183028401116401000000008311171561021957600080fd5b91908080601f016020809104026020016040519081016040528093929190818152602001838380828437600081840152601f19601f8201169050808301925050505050505091929192908035906020019064010000000081111561027c57600080fd5b82018360208201111561028e57600080fd5b803590602001918460018302840111640100000000831117156102b057600080fd5b91908080601f016020809104026020016040519081016040528093929190818152602001838380828437600081840152601f19601f8201169050808301925050505050505091929192908035906020019064010000000081111561031357600080fd5b82018360208201111561032557600080fd5b8035906020019184600183028401116401000000008311171561034757600080fd5b91908080601f016020809104026020016040519081016040528093929190818152602001838380828437600081840152601f19601f820116905080830192505050505050509192919290803590602001906401000000008111156103aa57600080fd5b8201836020820111156103bc57600080fd5b803590602001918460018302840111640100000000831117156103de57600080fd5b91908080601f016020809104026020016040519081016040528093929190818152602001838380828437600081840152601f19601f820116905080830192505050505050509192919290505050610e61565b005b61045e6004803603602081101561044857600080fd5b8101908080359060200190929190505050610ff2565b6040518088815260200180602001806020018060200180602001806020018715151515815260200186810386528c818151815260200191508051906020019080838360005b838110156104be5780820151818401526020810190506104a3565b50505050905090810190601f1680156104eb5780820380516001836020036101000a031916815260200191505b5086810385528b818151815260200191508051906020019080838360005b83811015610524578082015181840152602081019050610509565b50505050905090810190601f1680156105515780820380516001836020036101000a031916815260200191505b5086810384528a818151815260200191508051906020019080838360005b8381101561058a57808201518184015260208101905061056f565b50505050905090810190601f1680156105b75780820380516001836020036101000a031916815260200191505b50868103835289818151815260200191508051906020019080838360005b838110156105f05780820151818401526020810190506105d5565b50505050905090810190601f16801561061d5780820380516001836020036101000a031916815260200191505b50868103825288818151815260200191508051906020019080838360005b8381101561065657808201518184015260208101905061063b565b50505050905090810190601f1680156106835780820380516001836020036101000a031916815260200191505b509c5050505050505050505050505060405180910390f35b6106a3611339565b6040518082815260200191505060405180910390f35b610772600480360360208110156106cf57600080fd5b81019080803590602001906401000000008111156106ec57600080fd5b8201836020820111156106fe57600080fd5b8035906020019184600183028401116401000000008311171561072057600080fd5b91908080601f016020809104026020016040519081016040528093929190818152602001838380828437600081840152601f19601f82011690508083019250505050505050919291929050505061133f565b005b61077c61148a565b6040518082815260200191505060405180910390f35b61079a611490565b6040518082815260200191505060405180910390f35b6107b8611496565b6040518080602001828103825283818151815260200191508051906020019080838360005b838110156107f85780820151818401526020810190506107dd565b50505050905090810190601f1680156108255780820380516001836020036101000a031916815260200191505b509250505060405180910390f35b61083b611534565b6040518082815260200191505060405180910390f35b6109346004803603606081101561086757600080fd5b81019080803590602001909291908035906020019064010000000081111561088e57600080fd5b8201836020820111156108a057600080fd5b803590602001918460018302840111640100000000831117156108c257600080fd5b91908080601f016020809104026020016040519081016040528093929190818152602001838380828437600081840152601f19601f820116905080830192505050505050509192919290803573ffffffffffffffffffffffffffffffffffffffff16906020019092919050505061153a565b005b6109626004803603602081101561094c57600080fd5b81019080803590602001909291905050506116e3565b005b6109906004803603602081101561097a57600080fd5b8101908080359060200190929190505050611d5e565b60405180848152602001806020018373ffffffffffffffffffffffffffffffffffffffff1673ffffffffffffffffffffffffffffffffffffffff168152602001828103825284818151815260200191508051906020019080838360005b83811015610a085780820151818401526020810190506109ed565b50505050905090810190601f168015610a355780820380516001836020036101000a031916815260200191505b5094505050505060405180910390f35b610a4d611e40565b6040518082815260200191505060405180910390f35b610a8f60048036036020811015610a7957600080fd5b8101908080359060200190929190505050611e46565b60405180848152602001806020018373ffffffffffffffffffffffffffffffffffffffff1673ffffffffffffffffffffffffffffffffffffffff168152602001828103825284818151815260200191508051906020019080838360005b83811015610b07578082015181840152602081019050610aec565b50505050905090810190601f168015610b345780820380516001836020036101000a031916815260200191505b5094505050505060405180910390f35b610b7060048036036020811015610b5a57600080fd5b8101908080359060200190929190505050611f28565b604051808773ffffffffffffffffffffffffffffffffffffffff1673ffffffffffffffffffffffffffffffffffffffff168152602001806020018681526020018581526020018060200180602001848103845289818151815260200191508051906020019080838360005b83811015610bf6578082015181840152602081019050610bdb565b50505050905090810190601f168015610c235780820380516001836020036101000a031916815260200191505b50848103835286818151815260200191508051906020019080838360005b83811015610c5c578082015181840152602081019050610c41565b50505050905090810190601f168015610c895780820380516001836020036101000a031916815260200191505b50848103825285818151815260200191508051906020019080838360005b83811015610cc2578082015181840152602081019050610ca7565b50505050905090810190601f168015610cef5780820380516001836020036101000a031916815260200191505b50995050505050505050505060405180910390f35b610d4660048036036060811015610d1a57600080fd5b81019080803590602001909291908035151590602001909291908035906020019092919050505061214c565b005b610d7460048036036020811015610d5e57600080fd5b8101908080359060200190929190505050612258565b604051808215151515815260200191505060405180910390f35b610d966122c6565b6040518082815260200191505060405180910390f35b610dd860048036036020811015610dc257600080fd5b81019080803590602001909291905050506122cc565b6040518084815260200180602001838152602001828103825284818151815260200191508051906020019080838360005b83811015610e24578082015181840152602081019050610e09565b50505050905090810190601f168015610e515780820380516001836020036101000a031916815260200191505b5094505050505060405180910390f35b6006600081548092919060010191905055506040518060e00160405280600654815260200186815260200185815260200184815260200183815260200182815260200160001515815250600160006006548152602001908152602001600020600082015181600001556020820151816001019080519060200190610ee692919061238e565b506040820151816002019080519060200190610f0392919061238e565b506060820151816003019080519060200190610f2092919061238e565b506080820151816004019080519060200190610f3d92919061238e565b5060a0820151816005019080519060200190610f5a92919061238e565b5060c08201518160060160006101000a81548160ff0219169083151502179055509050507fa02fe1d7778794c89948c61459253f245c59f299315977dd4a957eb678b22ab260065433604051808381526020018273ffffffffffffffffffffffffffffffffffffffff1673ffffffffffffffffffffffffffffffffffffffff1681526020019250505060405180910390a15050505050565b6001602052806000526040600020600091509050806000015490806001018054600181600116156101000203166002900480601f0160208091040260200160405190810160405280929190818152602001828054600181600116156101000203166002900480156110a45780601f10611079576101008083540402835291602001916110a4565b820191906000526020600020905b81548152906001019060200180831161108757829003601f168201915b505050505090806002018054600181600116156101000203166002900480601f0160208091040260200160405190810160405280929190818152602001828054600181600116156101000203166002900480156111425780601f1061111757610100808354040283529160200191611142565b820191906000526020600020905b81548152906001019060200180831161112557829003601f168201915b505050505090806003018054600181600116156101000203166002900480601f0160208091040260200160405190810160405280929190818152602001828054600181600116156101000203166002900480156111e05780601f106111b5576101008083540402835291602001916111e0565b820191906000526020600020905b8154815290600101906020018083116111c357829003601f168201915b505050505090806004018054600181600116156101000203166002900480601f01602080910402602001604051908101604052809291908181526020018280546001816001161561010002031660029004801561127e5780601f106112535761010080835404028352916020019161127e565b820191906000526020600020905b81548152906001019060200180831161126157829003601f168201915b505050505090806005018054600181600116156101000203166002900480601f01602080910402602001604051908101604052809291908181526020018280546001816001161561010002031660029004801561131c5780601f106112f15761010080835404028352916020019161131c565b820191906000526020600020905b8154815290600101906020018083116112ff57829003601f168201915b5050505050908060060160009054906101000a900460ff16905087565b60085481565b60056000815480929190600101919050555060405180606001604052806005548152602001828152602001600081525060008060055481526020019081526020016000206000820151816000015560208201518160010190805190602001906113a992919061238e565b50604082015181600201559050507f2212b8a0ec32d7c2a1e995cd8470ebb5d67d71c1e74ac3d151ae4245567980f0813360405180806020018373ffffffffffffffffffffffffffffffffffffffff1673ffffffffffffffffffffffffffffffffffffffff168152602001828103825284818151815260200191508051906020019080838360005b8381101561144c578082015181840152602081019050611431565b50505050905090810190601f1680156114795780820380516001836020036101000a031916815260200191505b50935050505060405180910390a150565b60065481565b60075481565b600b8054600181600116156101000203166002900480601f01602080910402602001604051908101604052809291908181526020018280546001816001161561010002031660029004801561152c5780601f106115015761010080835404028352916020019161152c565b820191906000526020600020905b81548152906001019060200180831161150f57829003601f168201915b505050505081565b60095481565b826002600082815260200190815260200160002060020160009054906101000a900473ffffffffffffffffffffffffffffffffffffffff1673ffffffffffffffffffffffffffffffffffffffff163373ffffffffffffffffffffffffffffffffffffffff1614611612576040517f08c379a00000000000000000000000000000000000000000000000000000000081526004018080602001828103825260178152602001807f43616c6c6572206973206e6f20756e697665727369747900000000000000000081525060200191505060405180910390fd5b600960008154809291906001019190505550604051806060016040528060095481526020018481526020018373ffffffffffffffffffffffffffffffffffffffff1681525060046000600954815260200190815260200160002060008201518160000155602082015181600101908051906020019061169292919061238e565b5060408201518160020160006101000a81548173ffffffffffffffffffffffffffffffffffffffff021916908373ffffffffffffffffffffffffffffffffffffffff16021790555090505050505050565b6116eb61240e565b600160008381526020019081526020016000206040518060e001604052908160008201548152602001600182018054600181600116156101000203166002900480601f0160208091040260200160405190810160405280929190818152602001828054600181600116156101000203166002900480156117ac5780601f10611781576101008083540402835291602001916117ac565b820191906000526020600020905b81548152906001019060200180831161178f57829003601f168201915b50505050508152602001600282018054600181600116156101000203166002900480601f01602080910402602001604051908101604052809291908181526020018280546001816001161561010002031660029004801561184e5780601f106118235761010080835404028352916020019161184e565b820191906000526020600020905b81548152906001019060200180831161183157829003601f168201915b50505050508152602001600382018054600181600116156101000203166002900480601f0160208091040260200160405190810160405280929190818152602001828054600181600116156101000203166002900480156118f05780601f106118c5576101008083540402835291602001916118f0565b820191906000526020600020905b8154815290600101906020018083116118d357829003601f168201915b50505050508152602001600482018054600181600116156101000203166002900480601f0160208091040260200160405190810160405280929190818152602001828054600181600116156101000203166002900480156119925780601f1061196757610100808354040283529160200191611992565b820191906000526020600020905b81548152906001019060200180831161197557829003601f168201915b50505050508152602001600582018054600181600116156101000203166002900480601f016020809104026020016040519081016040528092919081815260200182805460018160011615610100020316600290048015611a345780601f10611a0957610100808354040283529160200191611a34565b820191906000526020600020905b815481529060010190602001808311611a1757829003601f168201915b505050505081526020016006820160009054906101000a900460ff1615151515815250509050600a600081548092919060010191905055506040518060c001604052803373ffffffffffffffffffffffffffffffffffffffff16815260200182602001518152602001600a54815260200182600001518152602001826080015181526020018260a0015181525060036000600a54815260200190815260200160002060008201518160000160006101000a81548173ffffffffffffffffffffffffffffffffffffffff021916908373ffffffffffffffffffffffffffffffffffffffff1602179055506020820151816001019080519060200190611b3992919061238e565b5060408201518160020155606082015181600301556080820151816004019080519060200190611b6a92919061238e565b5060a0820151816005019080519060200190611b8792919061238e565b5090505060016000838152602001908152602001600020600080820160009055600182016000611bb7919061244d565b600282016000611bc7919061244d565b600382016000611bd7919061244d565b600482016000611be7919061244d565b600582016000611bf7919061244d565b6006820160006101000a81549060ff021916905550507f291c076553d87a9c0e9d2abbdbb7e4488736c2ba5b4ecb79d1cdfb1852177767338383608001518460a00151604051808573ffffffffffffffffffffffffffffffffffffffff1673ffffffffffffffffffffffffffffffffffffffff1681526020018481526020018060200180602001838103835285818151815260200191508051906020019080838360005b83811015611cb6578082015181840152602081019050611c9b565b50505050905090810190601f168015611ce35780820380516001836020036101000a031916815260200191505b50838103825284818151815260200191508051906020019080838360005b83811015611d1c578082015181840152602081019050611d01565b50505050905090810190601f168015611d495780820380516001836020036101000a031916815260200191505b50965050505050505060405180910390a15050565b6002602052806000526040600020600091509050806000015490806001018054600181600116156101000203166002900480601f016020809104026020016040519081016040528092919081815260200182805460018160011615610100020316600290048015611e105780601f10611de557610100808354040283529160200191611e10565b820191906000526020600020905b815481529060010190602001808311611df357829003601f168201915b5050505050908060020160009054906101000a900473ffffffffffffffffffffffffffffffffffffffff16905083565b600a5481565b6004602052806000526040600020600091509050806000015490806001018054600181600116156101000203166002900480601f016020809104026020016040519081016040528092919081815260200182805460018160011615610100020316600290048015611ef85780601f10611ecd57610100808354040283529160200191611ef8565b820191906000526020600020905b815481529060010190602001808311611edb57829003601f168201915b5050505050908060020160009054906101000a900473ffffffffffffffffffffffffffffffffffffffff16905083565b60036020528060005260406000206000915090508060000160009054906101000a900473ffffffffffffffffffffffffffffffffffffffff1690806001018054600181600116156101000203166002900480601f016020809104026020016040519081016040528092919081815260200182805460018160011615610100020316600290048015611ffa5780601f10611fcf57610100808354040283529160200191611ffa565b820191906000526020600020905b815481529060010190602001808311611fdd57829003601f168201915b505050505090806002015490806003015490806004018054600181600116156101000203166002900480601f0160208091040260200160405190810160405280929190818152602001828054600181600116156101000203166002900480156120a45780601f10612079576101008083540402835291602001916120a4565b820191906000526020600020905b81548152906001019060200180831161208757829003601f168201915b505050505090806005018054600181600116156101000203166002900480601f0160208091040260200160405190810160405280929190818152602001828054600181600116156101000203166002900480156121425780601f1061211757610100808354040283529160200191612142565b820191906000526020600020905b81548152906001019060200180831161212557829003601f168201915b5050505050905086565b806004600082815260200190815260200160002060020160009054906101000a900473ffffffffffffffffffffffffffffffffffffffff1673ffffffffffffffffffffffffffffffffffffffff163373ffffffffffffffffffffffffffffffffffffffff1614612224576040517f08c379a00000000000000000000000000000000000000000000000000000000081526004018080602001828103825260158152602001807f43616c6c6572206973206e6f207665726966696572000000000000000000000081525060200191505060405180910390fd5b826001600086815260200190815260200160002060060160006101000a81548160ff02191690831515021790555050505050565b60006002600083815260200190815260200160002060020160009054906101000a900473ffffffffffffffffffffffffffffffffffffffff1673ffffffffffffffffffffffffffffffffffffffff163373ffffffffffffffffffffffffffffffffffffffff16149050919050565b60055481565b6000602052806000526040600020600091509050806000015490806001018054600181600116156101000203166002900480601f01602080910402602001604051908101604052809291908181526020018280546001816001161561010002031660029004801561237e5780601f106123535761010080835404028352916020019161237e565b820191906000526020600020905b81548152906001019060200180831161236157829003601f168201915b5050505050908060020154905083565b828054600181600116156101000203166002900490600052602060002090601f016020900481019282601f106123cf57805160ff19168380011785556123fd565b828001600101855582156123fd579182015b828111156123fc5782518255916020019190600101906123e1565b5b50905061240a9190612495565b5090565b6040518060e001604052806000815260200160608152602001606081526020016060815260200160608152602001606081526020016000151581525090565b50805460018160011615610100020316600290046000825580601f106124735750612492565b601f0160209004906000526020600020908101906124919190612495565b5b50565b6124b791905b808211156124b357600081600090555060010161249b565b5090565b9056fea265627a7a723158201c253e24de93ba411db1c8fc76a7adcb367cd7e383da13965475b0730b8ccc9a64736f6c6343000510003268747470733a2f2f7777772e736368756c756e67737a656e7472756d2d6461726d73746164742e64652f77702d636f6e74656e742f75706c6f6164732f323031392f30392f445343313836382e6a7067",
  "source": "// SPDX-License-Identifier: MIT\npragma solidity >=0.4.22 <0.8.0;\n\ncontract ResourceRental {\n    //----------------------------------------------------------\n    // Structs\n    //----------------------------------------------------------\n\n    // Model a Rental\n    struct Rental {\n        address renterAddress;\n        string resourceName;\n        uint256 bookingId;\n        uint256 resourceId;\n        string startTimestamp;\n        string endTimestamp;\n    }\n\n    // Model a Renter\n    struct Renter {\n        uint256 renterId;\n        string renterName;\n        uint256 rentCount;\n    }\n\n    // Model a Resource\n    struct Resource {\n        uint256 resourceId;\n        string name;\n        string picture;\n        string location;\n        string fromTimeStamp;\n        string toTimeStamp;\n        bool verified;\n        // uint8[3] requiredTraining;\n    }\n\n    // Model a University\n    struct University {\n        uint256 universityId;\n        string name;\n        address universityAddress;\n    }\n\n    struct Verifier {\n        uint256 verifierId;\n        string name;\n        address verifierAddress;\n    }\n\n    //----------------------------------------------------------\n    // Events\n    //----------------------------------------------------------\n\n    event RenterAdded(string _renterName, address _senderAddress);\n    event ResourceCreated(uint256 _id, address _creatorAddress);\n    event ResourceRented(\n        address _renter,\n        uint256 _resourceId,\n        string _fromTimeStamp,\n        string _toTimestamp\n    );\n    event UniversityAdded();\n\n    //----------------------------------------------------------\n    // Storage\n    //----------------------------------------------------------\n\n    // Store renters\n    // solidity generiert getter\n    mapping(uint256 => Renter) public renters;\n    mapping(uint256 => Resource) public resources;\n    mapping(uint256 => University) public universities;\n    mapping(uint256 => Rental) public rentals;\n    mapping(uint256 => Verifier) public verifiers;\n\n    // Store index\n    uint256 public rentersCount;\n    uint256 public resourcesCount;\n    uint256 public resourcesAdvertCount;\n    uint256 public universitiesCount;\n    uint256 public verifiersCount;\n    uint256 public rentalsCount;\n\n    // Store Rental\n\n    // Read Rental\n    string public candidate;\n\n    //----------------------------------------------------------\n    // private Functions\n    //----------------------------------------------------------\n\n    function initializeUniversity(string memory _name, address _address)\n        private\n    {\n        // represent Id of the University\n        universitiesCount++;\n        universities[universitiesCount] = University(\n            universitiesCount,\n            _name,\n            _address\n        );\n    }\n\n    //----------------------------------------------------------\n    // public Functions\n    //----------------------------------------------------------\n\n    function addUniversity(\n        uint256 _universityId,\n        string memory _name,\n        address _newUniversityAddress\n    ) private {\n        require(msg.sender == universities[_universityId].universityAddress);\n\n        // represent Id of the University\n        universitiesCount++;\n        universities[universitiesCount] = University(\n            universitiesCount,\n            _name,\n            _newUniversityAddress\n        );\n    }\n\n    function addRenter(string memory _name) public {\n        // represent Id of the renter\n        rentersCount++;\n        renters[rentersCount] = Renter(rentersCount, _name, 0);\n\n        emit RenterAdded(_name, msg.sender);\n    }\n\n    function verifyResourceEcoStamp(\n        uint256 _resourceId,\n        bool _verified,\n        uint256 _verifierId\n    ) public isVerifier(_verifierId) {\n        resources[_resourceId].verified = _verified;\n    }\n\n    function addVerifier(\n        uint256 _univertsityId,\n        string memory _verifierName,\n        address _verifierAddress\n    ) public isUniversity(_univertsityId) {\n        verifiersCount++;\n        verifiers[verifiersCount] = Verifier(\n            verifiersCount,\n            _verifierName,\n            _verifierAddress\n        );\n    }\n\n    function addResource(\n        string memory _name,\n        string memory _picture,\n        string memory _location,\n        string memory _fromTimeStamp,\n        string memory _toTimeStamp // uint8[] memory _requiredTraining\n    ) public {\n        // require();\n\n        // represent Id of the renter\n        resourcesCount++;\n        resources[resourcesCount] = Resource(\n            resourcesCount,\n            _name,\n            _picture,\n            _location,\n            _fromTimeStamp,\n            _toTimeStamp,\n            false\n            // _requiredTraining\n        );\n        emit ResourceCreated(resourcesCount, msg.sender);\n    }\n\n    // making the function pure or view\n    // to call it through web3.js without needing\n    // a trancaction -> no gas cost, no confirmation delay\n    function isSenderUniversity(uint256 _id) public view returns (bool) {\n        return msg.sender == universities[_id].universityAddress;\n    }\n\n    function rentResource(uint256 _id) public {\n        Resource memory resource = resources[_id];\n\n        rentalsCount++;\n        rentals[rentalsCount] = Rental(\n            msg.sender,\n            resource.name,\n            rentalsCount,\n            resource.resourceId,\n            resource.fromTimeStamp,\n            resource.toTimeStamp\n        );\n\n        delete resources[_id];\n\n        emit ResourceRented(\n            msg.sender,\n            _id,\n            resource.fromTimeStamp,\n            resource.toTimeStamp\n        );\n    }\n\n    //----------------------------------------------------------\n    // Modifier\n    //----------------------------------------------------------\n\n    // isUniversity\n    modifier isUniversity(uint256 _id) {\n        require(\n            msg.sender == universities[_id].universityAddress,\n            \"Caller is no university\"\n        );\n        _;\n    }\n\n    modifier isVerifier(uint256 _id) {\n        require(\n            msg.sender == verifiers[_id].verifierAddress,\n            \"Caller is no verifier\"\n        );\n        _;\n    }\n\n    //----------------------------------------------------------\n    // Constructor\n    //----------------------------------------------------------\n\n    // Constructor\n    constructor() public {\n        // add example renters\n        addRenter(\"Student 1\");\n        addRenter(\"Professor 1\");\n\n        // add example resources\n        addResource(\n            \"Normal Room\",\n            \"images/room1.jpeg\",\n            \"Furtwangen, Germany\",\n            \"1654782938174\",\n            \"1655992478797\"\n        );\n\n        addResource(\n            \"Concert Hall\",\n            \"images/room1.jpeg\",\n            \"Mannheim, Germani\",\n            \"1654782938174\",\n            \"1655992478797\"\n        );\n        addResource(\n            \"Theater\",\n            \"images/room1.jpeg\",\n            \"Rom, Italy\",\n            \"1654782938174\",\n            \"1655992478797\"\n        );\n        addResource(\n            \"Server Room\",\n            \"images/room1.jpeg\",\n            \"Paris, France\",\n            \"1654782938174\",\n            \"1655992478797\"\n        );\n        addResource(\n            \"Test Room\",\n            \"images/room1.jpeg\",\n            \"Barcelona, Spain\",\n            \"1654782938174\",\n            \"1655992478797\"\n        );\n        addResource(\n            \"Schulungszentrum Darmstadt\",\n            \"https://www.schulungszentrum-darmstadt.de/wp-content/uploads/2019/09/DSC1868.jpg\",\n            \"Darmstadt, Germany\",\n            \"1654782938174\",\n            \"1655992478797\"\n        );\n\n        // add universities who are allowed to create resrouces\n        // addUniversity(\n        //     \"Hochschule Furtwangen\",\n        //     0x9BB542Fa2BBC47dF6d5Da1F38dc78a186EA89CaB\n        // );\n        initializeUniversity(\n            \"Universitt Mannheim\",\n            0xDeDE610A052Cd63D055B1e957b1952525d924F7e\n        );\n        // addUniversity(\"TUM\", 0xA5f4A3aa3cFAA342FC401580aE6Af12Ab56EA822);\n        // addUniversity(\n        // \"The Hague University of Applied Sciences\",\n        // 0xE82971C4A32C82556F072C73125e48C4c9c33a59\n        // );\n    }\n}\n",
  "sourcePath": "/home/dizzle/Dev/Dapp/contracts/ResourceRental.sol",
  "compiler": {
    "name": "solc",
    "version": "0.5.16+commit.9c3226ce.Emscripten.clang"
  },
  "schemaVersion": "3.4.7",
  "updatedAt": "2022-08-10T17:58:02.447Z",
  "networkType": "ethereum",
  "devdoc": {
    "methods": {}
  },
  "userdoc": {
    "methods": {}
  }
}