{
  "contractName": "ResourceRental",
  "abi": [
    {
      "inputs": [],
      "payable": false,
      "stateMutability": "nonpayable",
      "type": "constructor"
    },
    {
      "constant": true,
      "inputs": [],
      "name": "candidate",
      "outputs": [
        {
          "internalType": "string",
          "name": "",
          "type": "string"
        }
      ],
      "payable": false,
      "stateMutability": "view",
      "type": "function"
    },
    {
      "constant": true,
      "inputs": [
        {
          "internalType": "uint256",
          "name": "",
          "type": "uint256"
        }
      ],
      "name": "renters",
      "outputs": [
        {
          "internalType": "uint256",
          "name": "renterId",
          "type": "uint256"
        },
        {
          "internalType": "string",
          "name": "renterName",
          "type": "string"
        },
        {
          "internalType": "uint256",
          "name": "rentCount",
          "type": "uint256"
        }
      ],
      "payable": false,
      "stateMutability": "view",
      "type": "function"
    },
    {
      "constant": true,
      "inputs": [],
      "name": "rentersCount",
      "outputs": [
        {
          "internalType": "uint256",
          "name": "",
          "type": "uint256"
        }
      ],
      "payable": false,
      "stateMutability": "view",
      "type": "function"
    },
    {
      "constant": true,
      "inputs": [
        {
          "internalType": "uint256",
          "name": "",
          "type": "uint256"
        }
      ],
      "name": "resources",
      "outputs": [
        {
          "internalType": "uint256",
          "name": "resourceId",
          "type": "uint256"
        },
        {
          "internalType": "string",
          "name": "name",
          "type": "string"
        },
        {
          "internalType": "string",
          "name": "picture",
          "type": "string"
        },
        {
          "internalType": "string",
          "name": "location",
          "type": "string"
        }
      ],
      "payable": false,
      "stateMutability": "view",
      "type": "function"
    },
    {
      "constant": true,
      "inputs": [],
      "name": "resourcesAdvertCount",
      "outputs": [
        {
          "internalType": "uint256",
          "name": "",
          "type": "uint256"
        }
      ],
      "payable": false,
      "stateMutability": "view",
      "type": "function"
    },
    {
      "constant": true,
      "inputs": [
        {
          "internalType": "uint256",
          "name": "",
          "type": "uint256"
        }
      ],
      "name": "resourcesAdverts",
      "outputs": [
        {
          "internalType": "uint256",
          "name": "advertId",
          "type": "uint256"
        },
        {
          "internalType": "uint256",
          "name": "resourceId",
          "type": "uint256"
        },
        {
          "internalType": "string",
          "name": "fromTimeStamp",
          "type": "string"
        },
        {
          "internalType": "string",
          "name": "toTimeStamp",
          "type": "string"
        }
      ],
      "payable": false,
      "stateMutability": "view",
      "type": "function"
    },
    {
      "constant": true,
      "inputs": [],
      "name": "resourcesCount",
      "outputs": [
        {
          "internalType": "uint256",
          "name": "",
          "type": "uint256"
        }
      ],
      "payable": false,
      "stateMutability": "view",
      "type": "function"
    },
    {
      "constant": true,
      "inputs": [
        {
          "internalType": "uint256",
          "name": "",
          "type": "uint256"
        }
      ],
      "name": "universities",
      "outputs": [
        {
          "internalType": "uint256",
          "name": "universityId",
          "type": "uint256"
        },
        {
          "internalType": "string",
          "name": "name",
          "type": "string"
        },
        {
          "internalType": "address",
          "name": "universityAddress",
          "type": "address"
        }
      ],
      "payable": false,
      "stateMutability": "view",
      "type": "function"
    },
    {
      "constant": true,
      "inputs": [],
      "name": "universitiesCount",
      "outputs": [
        {
          "internalType": "uint256",
          "name": "",
          "type": "uint256"
        }
      ],
      "payable": false,
      "stateMutability": "view",
      "type": "function"
    },
    {
      "constant": true,
      "inputs": [
        {
          "internalType": "uint256",
          "name": "_id",
          "type": "uint256"
        }
      ],
      "name": "isSenderUniversity",
      "outputs": [
        {
          "internalType": "bool",
          "name": "",
          "type": "bool"
        }
      ],
      "payable": false,
      "stateMutability": "view",
      "type": "function"
    }
  ],
  "bytecode": "0x60806040523480156200001157600080fd5b50620000586040518060400160405280600981526020017f53747564656e74203100000000000000000000000000000000000000000000008152506200050f60201b60201c565b6200009e6040518060400160405280600b81526020017f50726f666573736f7220310000000000000000000000000000000000000000008152506200050f60201b60201c565b620001506040518060400160405280600b81526020017f4e6f726d616c20526f6f6d0000000000000000000000000000000000000000008152506040518060400160405280601181526020017f696d616765732f726f6f6d312e6a7065670000000000000000000000000000008152506040518060400160405280601381526020017f4675727477616e67656e2c204765726d616e79000000000000000000000000008152506200058c60201b60201c565b620002026040518060400160405280600c81526020017f436f6e636572742048616c6c00000000000000000000000000000000000000008152506040518060400160405280601181526020017f696d616765732f726f6f6d312e6a7065670000000000000000000000000000008152506040518060400160405280601181526020017f4d616e6e6865696d2c204765726d616e690000000000000000000000000000008152506200058c60201b60201c565b620002b46040518060400160405280600781526020017f54686561746572000000000000000000000000000000000000000000000000008152506040518060400160405280601181526020017f696d616765732f726f6f6d312e6a7065670000000000000000000000000000008152506040518060400160405280600a81526020017f526f6d2c204974616c79000000000000000000000000000000000000000000008152506200058c60201b60201c565b620003666040518060400160405280600b81526020017f53657276657220526f6f6d0000000000000000000000000000000000000000008152506040518060400160405280601181526020017f696d616765732f726f6f6d312e6a7065670000000000000000000000000000008152506040518060400160405280600d81526020017f50617269732c204672616e6365000000000000000000000000000000000000008152506200058c60201b60201c565b620004186040518060400160405280600981526020017f5465737420526f6f6d00000000000000000000000000000000000000000000008152506040518060400160405280601181526020017f696d616765732f726f6f6d312e6a7065670000000000000000000000000000008152506040518060400160405280601081526020017f42617263656c6f6e612c20537061696e000000000000000000000000000000008152506200058c60201b60201c565b620004ae6040518060400160405280601a81526020017f536368756c756e67737a656e7472756d204461726d73746164740000000000008152506040518060800160405280605081526020016200144b605091396040518060400160405280601281526020017f4461726d73746164742c204765726d616e7900000000000000000000000000008152506200058c60201b60201c565b620005096040518060400160405280601581526020017f556e69766572736974c3a474204d616e6e6865696d000000000000000000000081525073dede610a052cd63d055b1e957b1952525d924f7e6200064560201b60201c565b620007c5565b60046000815480929190600101919050555060405180606001604052806004548152602001828152602001600081525060008060045481526020019081526020016000206000820151816000015560208201518160010190805190602001906200057b92919062000716565b506040820151816002015590505050565b6005600081548092919060010191905055506040518060800160405280600554815260200184815260200183815260200182815250600160006005548152602001908152602001600020600082015181600001556020820151816001019080519060200190620005fe92919062000716565b5060408201518160020190805190602001906200061d92919062000716565b5060608201518160030190805190602001906200063c92919062000716565b50905050505050565b600760008154809291906001019190505550604051806060016040528060075481526020018381526020018273ffffffffffffffffffffffffffffffffffffffff16815250600360006007548152602001908152602001600020600082015181600001556020820151816001019080519060200190620006c792919062000716565b5060408201518160020160006101000a81548173ffffffffffffffffffffffffffffffffffffffff021916908373ffffffffffffffffffffffffffffffffffffffff1602179055509050505050565b828054600181600116156101000203166002900490600052602060002090601f016020900481019282601f106200075957805160ff19168380011785556200078a565b828001600101855582156200078a579182015b82811115620007895782518255916020019190600101906200076c565b5b5090506200079991906200079d565b5090565b620007c291905b80821115620007be576000816000905550600101620007a4565b5090565b90565b610c7680620007d56000396000f3fe608060405234801561001057600080fd5b506004361061009e5760003560e01c80636c8381f8116100665780636c8381f8146103a45780639c38f65f14610427578063cce30a1414610508578063d562dc721461054e578063dcc3974b1461056c5761009e565b8063244d6daa146100a357806329e493b214610229578063374cfc701461024757806351ac7b8c146103685780635c51ffaf14610386575b600080fd5b6100cf600480360360208110156100b957600080fd5b8101908080359060200190929190505050610621565b60405180858152602001806020018060200180602001848103845287818151815260200191508051906020019080838360005b8381101561011d578082015181840152602081019050610102565b50505050905090810190601f16801561014a5780820380516001836020036101000a031916815260200191505b50848103835286818151815260200191508051906020019080838360005b83811015610183578082015181840152602081019050610168565b50505050905090810190601f1680156101b05780820380516001836020036101000a031916815260200191505b50848103825285818151815260200191508051906020019080838360005b838110156101e95780820151818401526020810190506101ce565b50505050905090810190601f1680156102165780820380516001836020036101000a031916815260200191505b5097505050505050505060405180910390f35b610231610819565b6040518082815260200191505060405180910390f35b6102736004803603602081101561025d57600080fd5b810190808035906020019092919050505061081f565b604051808581526020018481526020018060200180602001838103835285818151815260200191508051906020019080838360005b838110156102c35780820151818401526020810190506102a8565b50505050905090810190601f1680156102f05780820380516001836020036101000a031916815260200191505b50838103825284818151815260200191508051906020019080838360005b8381101561032957808201518184015260208101905061030e565b50505050905090810190601f1680156103565780820380516001836020036101000a031916815260200191505b50965050505050505060405180910390f35b61037061097f565b6040518082815260200191505060405180910390f35b61038e610985565b6040518082815260200191505060405180910390f35b6103ac61098b565b6040518080602001828103825283818151815260200191508051906020019080838360005b838110156103ec5780820151818401526020810190506103d1565b50505050905090810190601f1680156104195780820380516001836020036101000a031916815260200191505b509250505060405180910390f35b6104536004803603602081101561043d57600080fd5b8101908080359060200190929190505050610a29565b60405180848152602001806020018373ffffffffffffffffffffffffffffffffffffffff1673ffffffffffffffffffffffffffffffffffffffff168152602001828103825284818151815260200191508051906020019080838360005b838110156104cb5780820151818401526020810190506104b0565b50505050905090810190601f1680156104f85780820380516001836020036101000a031916815260200191505b5094505050505060405180910390f35b6105346004803603602081101561051e57600080fd5b8101908080359060200190929190505050610b0b565b604051808215151515815260200191505060405180910390f35b610556610b79565b6040518082815260200191505060405180910390f35b6105986004803603602081101561058257600080fd5b8101908080359060200190929190505050610b7f565b6040518084815260200180602001838152602001828103825284818151815260200191508051906020019080838360005b838110156105e45780820151818401526020810190506105c9565b50505050905090810190601f1680156106115780820380516001836020036101000a031916815260200191505b5094505050505060405180910390f35b6001602052806000526040600020600091509050806000015490806001018054600181600116156101000203166002900480601f0160208091040260200160405190810160405280929190818152602001828054600181600116156101000203166002900480156106d35780601f106106a8576101008083540402835291602001916106d3565b820191906000526020600020905b8154815290600101906020018083116106b657829003601f168201915b505050505090806002018054600181600116156101000203166002900480601f0160208091040260200160405190810160405280929190818152602001828054600181600116156101000203166002900480156107715780601f1061074657610100808354040283529160200191610771565b820191906000526020600020905b81548152906001019060200180831161075457829003601f168201915b505050505090806003018054600181600116156101000203166002900480601f01602080910402602001604051908101604052809291908181526020018280546001816001161561010002031660029004801561080f5780601f106107e45761010080835404028352916020019161080f565b820191906000526020600020905b8154815290600101906020018083116107f257829003601f168201915b5050505050905084565b60075481565b6002602052806000526040600020600091509050806000015490806001015490806002018054600181600116156101000203166002900480601f0160208091040260200160405190810160405280929190818152602001828054600181600116156101000203166002900480156108d75780601f106108ac576101008083540402835291602001916108d7565b820191906000526020600020905b8154815290600101906020018083116108ba57829003601f168201915b505050505090806003018054600181600116156101000203166002900480601f0160208091040260200160405190810160405280929190818152602001828054600181600116156101000203166002900480156109755780601f1061094a57610100808354040283529160200191610975565b820191906000526020600020905b81548152906001019060200180831161095857829003601f168201915b5050505050905084565b60055481565b60065481565b60088054600181600116156101000203166002900480601f016020809104026020016040519081016040528092919081815260200182805460018160011615610100020316600290048015610a215780601f106109f657610100808354040283529160200191610a21565b820191906000526020600020905b815481529060010190602001808311610a0457829003601f168201915b505050505081565b6003602052806000526040600020600091509050806000015490806001018054600181600116156101000203166002900480601f016020809104026020016040519081016040528092919081815260200182805460018160011615610100020316600290048015610adb5780601f10610ab057610100808354040283529160200191610adb565b820191906000526020600020905b815481529060010190602001808311610abe57829003601f168201915b5050505050908060020160009054906101000a900473ffffffffffffffffffffffffffffffffffffffff16905083565b60006003600083815260200190815260200160002060020160009054906101000a900473ffffffffffffffffffffffffffffffffffffffff1673ffffffffffffffffffffffffffffffffffffffff163373ffffffffffffffffffffffffffffffffffffffff16149050919050565b60045481565b6000602052806000526040600020600091509050806000015490806001018054600181600116156101000203166002900480601f016020809104026020016040519081016040528092919081815260200182805460018160011615610100020316600290048015610c315780601f10610c0657610100808354040283529160200191610c31565b820191906000526020600020905b815481529060010190602001808311610c1457829003601f168201915b505050505090806002015490508356fea265627a7a72315820b4871556bdf01c7725e96d2ad62ec647f23d9e058269f7107bbe6782f12c62d964736f6c6343000510003268747470733a2f2f7777772e736368756c756e67737a656e7472756d2d6461726d73746164742e64652f77702d636f6e74656e742f75706c6f6164732f323031392f30392f445343313836382e6a7067",
  "source": "// SPDX-License-Identifier: MIT\npragma solidity >=0.4.22 <0.8.0;\n\ncontract ResourceRental {\n    // Model a Rental\n    struct Rental {\n        string resourceName;\n        uint256 bookingId;\n        uint256 resourceId;\n        uint256 startTimestamp;\n        uint256 endTimestamp;\n    }\n\n    // Model a Renter\n    struct Renter {\n        uint256 renterId;\n        string renterName;\n        uint256 rentCount;\n    }\n\n    // Model a Resource\n    struct Resource {\n        uint256 resourceId;\n        string name;\n        string picture;\n        string location;\n    }\n\n    // Model a Resource Advert\n    struct ResourceAdvert {\n        uint256 advertId;\n        uint256 resourceId;\n        string fromTimeStamp;\n        string toTimeStamp;\n    }\n\n    // Model a University\n    struct University {\n        uint256 universityId;\n        string name;\n        address universityAddress;\n    }\n\n    // Store renters\n    // solidity generiert getter\n    mapping(uint256 => Renter) public renters;\n    mapping(uint256 => Resource) public resources;\n    mapping(uint256 => ResourceAdvert) public resourcesAdverts;\n    mapping(uint256 => University) public universities;\n\n    // Store index\n    uint256 public rentersCount;\n    uint256 public resourcesCount;\n    uint256 public resourcesAdvertCount;\n    uint256 public universitiesCount;\n\n    // Store Rental\n\n    // Read Rental\n    string public candidate;\n\n    function addRenter(string memory _name) private {\n        // represent Id of the renter\n        rentersCount++;\n        renters[rentersCount] = Renter(rentersCount, _name, 0);\n    }\n\n    function addUniversity(string memory _name, address _address) private {\n        // represent Id of the University\n        universitiesCount++;\n        universities[universitiesCount] = University(\n            universitiesCount,\n            _name,\n            _address\n        );\n    }\n\n    function addResource(\n        string memory _name,\n        string memory _picture,\n        string memory _location\n    ) private {\n        // represent Id of the renter\n        resourcesCount++;\n        resources[resourcesCount] = Resource(\n            resourcesCount,\n            _name,\n            _picture,\n            _location\n        );\n    }\n\n    function addResourceAdvert(\n        uint256 _resourceId,\n        string memory _fromTimeStamp,\n        string memory _toTimeStamp\n    ) private {\n        // represent Id of the renter\n        resourcesAdvertCount++;\n        resourcesAdverts[resourcesAdvertCount] = ResourceAdvert(\n            resourcesCount,\n            _resourceId,\n            _fromTimeStamp,\n            _toTimeStamp\n        );\n    }\n\n    // Store Rental -> from to free\n\n    // Fetch Rental\n\n    // Store Rental count\n\n    // isUniversity\n    modifier isUniversity() {\n        require(true, \"Caller is no university\");\n        _;\n    }\n\n    // making the function pure or view\n    // to call it through web3.js without needing\n    // a trancaction -> no gas cost, no confirmation delay\n    function isSenderUniversity(uint256 _id) public view returns (bool) {\n        return msg.sender == universities[_id].universityAddress;\n    }\n\n    // Constructor\n    constructor() public {\n        // add example renters\n        addRenter(\"Student 1\");\n        addRenter(\"Professor 1\");\n\n        // add example resources\n        addResource(\"Normal Room\", \"images/room1.jpeg\", \"Furtwangen, Germany\");\n        addResource(\"Concert Hall\", \"images/room1.jpeg\", \"Mannheim, Germani\");\n        addResource(\"Theater\", \"images/room1.jpeg\", \"Rom, Italy\");\n        addResource(\"Server Room\", \"images/room1.jpeg\", \"Paris, France\");\n        addResource(\"Test Room\", \"images/room1.jpeg\", \"Barcelona, Spain\");\n        addResource(\n            \"Schulungszentrum Darmstadt\",\n            \"https://www.schulungszentrum-darmstadt.de/wp-content/uploads/2019/09/DSC1868.jpg\",\n            \"Darmstadt, Germany\"\n        );\n\n        // add universities who are allowed to create resrouces\n        // addUniversity(\n        //     \"Hochschule Furtwangen\",\n        //     0x9BB542Fa2BBC47dF6d5Da1F38dc78a186EA89CaB\n        // );\n        addUniversity(\n            \"Universität Mannheim\",\n            0xDeDE610A052Cd63D055B1e957b1952525d924F7e\n        );\n        // addUniversity(\"TUM\", 0xA5f4A3aa3cFAA342FC401580aE6Af12Ab56EA822);\n        // addUniversity(\n        // \"The Hague University of Applied Sciences\",\n        // 0xE82971C4A32C82556F072C73125e48C4c9c33a59\n        // );\n    }\n}\n",
  "sourcePath": "/home/dizzle/Dev/Dapp/contracts/ResourceRental.sol",
  "compiler": {
    "name": "solc",
    "version": "0.5.16+commit.9c3226ce.Emscripten.clang"
  },
  "schemaVersion": "3.4.7",
  "updatedAt": "2022-06-09T08:40:17.717Z",
  "networkType": "ethereum",
  "devdoc": {
    "methods": {}
  },
  "userdoc": {
    "methods": {}
  }
}