{
  "contractName": "ResourceRental",
  "abi": [
    {
      "inputs": [],
      "payable": false,
      "stateMutability": "nonpayable",
      "type": "constructor"
    },
    {
      "anonymous": false,
      "inputs": [
        {
          "indexed": false,
          "internalType": "string",
          "name": "_renterName",
          "type": "string"
        },
        {
          "indexed": false,
          "internalType": "address",
          "name": "_senderAddress",
          "type": "address"
        }
      ],
      "name": "RenterAdded",
      "type": "event"
    },
    {
      "anonymous": false,
      "inputs": [
        {
          "indexed": false,
          "internalType": "uint256",
          "name": "_id",
          "type": "uint256"
        },
        {
          "indexed": false,
          "internalType": "address",
          "name": "_creatorAddress",
          "type": "address"
        }
      ],
      "name": "ResourceCreated",
      "type": "event"
    },
    {
      "anonymous": false,
      "inputs": [
        {
          "indexed": false,
          "internalType": "address",
          "name": "_renter",
          "type": "address"
        },
        {
          "indexed": false,
          "internalType": "uint256",
          "name": "_resourceId",
          "type": "uint256"
        },
        {
          "indexed": false,
          "internalType": "string",
          "name": "_fromTimeStamp",
          "type": "string"
        },
        {
          "indexed": false,
          "internalType": "string",
          "name": "_toTimestamp",
          "type": "string"
        }
      ],
      "name": "ResourceRented",
      "type": "event"
    },
    {
      "anonymous": false,
      "inputs": [],
      "name": "UniversityAdded",
      "type": "event"
    },
    {
      "constant": true,
      "inputs": [],
      "name": "candidate",
      "outputs": [
        {
          "internalType": "string",
          "name": "",
          "type": "string"
        }
      ],
      "payable": false,
      "stateMutability": "view",
      "type": "function"
    },
    {
      "constant": true,
      "inputs": [
        {
          "internalType": "uint256",
          "name": "",
          "type": "uint256"
        }
      ],
      "name": "rentals",
      "outputs": [
        {
          "internalType": "address",
          "name": "renterAddress",
          "type": "address"
        },
        {
          "internalType": "string",
          "name": "resourceName",
          "type": "string"
        },
        {
          "internalType": "uint256",
          "name": "bookingId",
          "type": "uint256"
        },
        {
          "internalType": "uint256",
          "name": "resourceId",
          "type": "uint256"
        },
        {
          "internalType": "string",
          "name": "startTimestamp",
          "type": "string"
        },
        {
          "internalType": "string",
          "name": "endTimestamp",
          "type": "string"
        }
      ],
      "payable": false,
      "stateMutability": "view",
      "type": "function"
    },
    {
      "constant": true,
      "inputs": [],
      "name": "rentalsCount",
      "outputs": [
        {
          "internalType": "uint256",
          "name": "",
          "type": "uint256"
        }
      ],
      "payable": false,
      "stateMutability": "view",
      "type": "function"
    },
    {
      "constant": true,
      "inputs": [
        {
          "internalType": "uint256",
          "name": "",
          "type": "uint256"
        }
      ],
      "name": "renters",
      "outputs": [
        {
          "internalType": "uint256",
          "name": "renterId",
          "type": "uint256"
        },
        {
          "internalType": "string",
          "name": "renterName",
          "type": "string"
        },
        {
          "internalType": "uint256",
          "name": "rentCount",
          "type": "uint256"
        }
      ],
      "payable": false,
      "stateMutability": "view",
      "type": "function"
    },
    {
      "constant": true,
      "inputs": [],
      "name": "rentersCount",
      "outputs": [
        {
          "internalType": "uint256",
          "name": "",
          "type": "uint256"
        }
      ],
      "payable": false,
      "stateMutability": "view",
      "type": "function"
    },
    {
      "constant": true,
      "inputs": [
        {
          "internalType": "uint256",
          "name": "",
          "type": "uint256"
        }
      ],
      "name": "resources",
      "outputs": [
        {
          "internalType": "uint256",
          "name": "resourceId",
          "type": "uint256"
        },
        {
          "internalType": "string",
          "name": "name",
          "type": "string"
        },
        {
          "internalType": "string",
          "name": "picture",
          "type": "string"
        },
        {
          "internalType": "string",
          "name": "location",
          "type": "string"
        },
        {
          "internalType": "string",
          "name": "fromTimeStamp",
          "type": "string"
        },
        {
          "internalType": "string",
          "name": "toTimeStamp",
          "type": "string"
        },
        {
          "internalType": "bool",
          "name": "verified",
          "type": "bool"
        },
        {
          "internalType": "address",
          "name": "owner",
          "type": "address"
        }
      ],
      "payable": false,
      "stateMutability": "view",
      "type": "function"
    },
    {
      "constant": true,
      "inputs": [],
      "name": "resourcesAdvertCount",
      "outputs": [
        {
          "internalType": "uint256",
          "name": "",
          "type": "uint256"
        }
      ],
      "payable": false,
      "stateMutability": "view",
      "type": "function"
    },
    {
      "constant": true,
      "inputs": [],
      "name": "resourcesCount",
      "outputs": [
        {
          "internalType": "uint256",
          "name": "",
          "type": "uint256"
        }
      ],
      "payable": false,
      "stateMutability": "view",
      "type": "function"
    },
    {
      "constant": true,
      "inputs": [
        {
          "internalType": "uint256",
          "name": "",
          "type": "uint256"
        }
      ],
      "name": "universities",
      "outputs": [
        {
          "internalType": "uint256",
          "name": "universityId",
          "type": "uint256"
        },
        {
          "internalType": "string",
          "name": "name",
          "type": "string"
        },
        {
          "internalType": "address",
          "name": "universityAddress",
          "type": "address"
        }
      ],
      "payable": false,
      "stateMutability": "view",
      "type": "function"
    },
    {
      "constant": true,
      "inputs": [],
      "name": "universitiesCount",
      "outputs": [
        {
          "internalType": "uint256",
          "name": "",
          "type": "uint256"
        }
      ],
      "payable": false,
      "stateMutability": "view",
      "type": "function"
    },
    {
      "constant": true,
      "inputs": [
        {
          "internalType": "uint256",
          "name": "",
          "type": "uint256"
        }
      ],
      "name": "verifiers",
      "outputs": [
        {
          "internalType": "uint256",
          "name": "verifierId",
          "type": "uint256"
        },
        {
          "internalType": "string",
          "name": "name",
          "type": "string"
        },
        {
          "internalType": "address",
          "name": "verifierAddress",
          "type": "address"
        }
      ],
      "payable": false,
      "stateMutability": "view",
      "type": "function"
    },
    {
      "constant": true,
      "inputs": [],
      "name": "verifiersCount",
      "outputs": [
        {
          "internalType": "uint256",
          "name": "",
          "type": "uint256"
        }
      ],
      "payable": false,
      "stateMutability": "view",
      "type": "function"
    },
    {
      "constant": false,
      "inputs": [
        {
          "internalType": "uint256",
          "name": "_id",
          "type": "uint256"
        }
      ],
      "name": "cancelResourceRental",
      "outputs": [],
      "payable": false,
      "stateMutability": "nonpayable",
      "type": "function"
    },
    {
      "constant": false,
      "inputs": [
        {
          "internalType": "string",
          "name": "_name",
          "type": "string"
        }
      ],
      "name": "addRenter",
      "outputs": [],
      "payable": false,
      "stateMutability": "nonpayable",
      "type": "function"
    },
    {
      "constant": false,
      "inputs": [
        {
          "internalType": "uint256",
          "name": "_resourceId",
          "type": "uint256"
        },
        {
          "internalType": "bool",
          "name": "_verified",
          "type": "bool"
        },
        {
          "internalType": "uint256",
          "name": "_verifierId",
          "type": "uint256"
        }
      ],
      "name": "verifyResourceEcoStamp",
      "outputs": [],
      "payable": false,
      "stateMutability": "nonpayable",
      "type": "function"
    },
    {
      "constant": false,
      "inputs": [
        {
          "internalType": "uint256",
          "name": "_univertsityId",
          "type": "uint256"
        },
        {
          "internalType": "string",
          "name": "_verifierName",
          "type": "string"
        },
        {
          "internalType": "address",
          "name": "_verifierAddress",
          "type": "address"
        }
      ],
      "name": "addVerifier",
      "outputs": [],
      "payable": false,
      "stateMutability": "nonpayable",
      "type": "function"
    },
    {
      "constant": false,
      "inputs": [
        {
          "internalType": "string",
          "name": "_name",
          "type": "string"
        },
        {
          "internalType": "string",
          "name": "_picture",
          "type": "string"
        },
        {
          "internalType": "string",
          "name": "_location",
          "type": "string"
        },
        {
          "internalType": "string",
          "name": "_fromTimeStamp",
          "type": "string"
        },
        {
          "internalType": "string",
          "name": "_toTimeStamp",
          "type": "string"
        }
      ],
      "name": "addResource",
      "outputs": [],
      "payable": false,
      "stateMutability": "nonpayable",
      "type": "function"
    },
    {
      "constant": true,
      "inputs": [
        {
          "internalType": "uint256",
          "name": "_id",
          "type": "uint256"
        }
      ],
      "name": "isSenderUniversity",
      "outputs": [
        {
          "internalType": "bool",
          "name": "",
          "type": "bool"
        }
      ],
      "payable": false,
      "stateMutability": "view",
      "type": "function"
    },
    {
      "constant": false,
      "inputs": [
        {
          "internalType": "uint256",
          "name": "_id",
          "type": "uint256"
        }
      ],
      "name": "rentResource",
      "outputs": [],
      "payable": false,
      "stateMutability": "nonpayable",
      "type": "function"
    }
  ],
  "bytecode": "0x60806040526040518060400160405280600a81526020017f3038303035353034383800000000000000000000000000000000000000000000815250600090805190602001906200005192919062000d56565b506040518060400160405280600b81526020017f3c697066732d4c696e6b3e000000000000000000000000000000000000000000815250600190805190602001906200009f92919062000d56565b50348015620000ad57600080fd5b50620000f46040518060400160405280600981526020017f53747564656e74203100000000000000000000000000000000000000000000008152506200093560201b60201c565b6200013a6040518060400160405280600b81526020017f50726f666573736f7220310000000000000000000000000000000000000000008152506200093560201b60201c565b620002586040518060400160405280600b81526020017f4e6f726d616c20526f6f6d0000000000000000000000000000000000000000008152506040518060400160405280601181526020017f696d616765732f726f6f6d312e6a7065670000000000000000000000000000008152506040518060400160405280601381526020017f4675727477616e67656e2c204765726d616e79000000000000000000000000008152506040518060400160405280600d81526020017f31363534373832393338313734000000000000000000000000000000000000008152506040518060400160405280600d81526020017f313635353939323437383739370000000000000000000000000000000000000081525062000a8660201b60201c565b620003766040518060400160405280600c81526020017f436f6e636572742048616c6c00000000000000000000000000000000000000008152506040518060400160405280601181526020017f696d616765732f726f6f6d312e6a7065670000000000000000000000000000008152506040518060400160405280601181526020017f4d616e6e6865696d2c204765726d616e690000000000000000000000000000008152506040518060400160405280600d81526020017f31363534373832393338313734000000000000000000000000000000000000008152506040518060400160405280600d81526020017f313635353939323437383739370000000000000000000000000000000000000081525062000a8660201b60201c565b620004946040518060400160405280600781526020017f54686561746572000000000000000000000000000000000000000000000000008152506040518060400160405280601181526020017f696d616765732f726f6f6d312e6a7065670000000000000000000000000000008152506040518060400160405280600a81526020017f526f6d2c204974616c79000000000000000000000000000000000000000000008152506040518060400160405280600d81526020017f31363534373832393338313734000000000000000000000000000000000000008152506040518060400160405280600d81526020017f313635353939323437383739370000000000000000000000000000000000000081525062000a8660201b60201c565b620005b26040518060400160405280600b81526020017f53657276657220526f6f6d0000000000000000000000000000000000000000008152506040518060400160405280601181526020017f696d616765732f726f6f6d312e6a7065670000000000000000000000000000008152506040518060400160405280600d81526020017f50617269732c204672616e6365000000000000000000000000000000000000008152506040518060400160405280600d81526020017f31363534373832393338313734000000000000000000000000000000000000008152506040518060400160405280600d81526020017f313635353939323437383739370000000000000000000000000000000000000081525062000a8660201b60201c565b620006d06040518060400160405280600981526020017f5465737420526f6f6d00000000000000000000000000000000000000000000008152506040518060400160405280601181526020017f696d616765732f726f6f6d312e6a7065670000000000000000000000000000008152506040518060400160405280601081526020017f42617263656c6f6e612c20537061696e000000000000000000000000000000008152506040518060400160405280600d81526020017f31363534373832393338313734000000000000000000000000000000000000008152506040518060400160405280600d81526020017f313635353939323437383739370000000000000000000000000000000000000081525062000a8660201b60201c565b620007d26040518060400160405280601a81526020017f536368756c756e67737a656e7472756d204461726d737461647400000000000081525060405180608001604052806050815260200162003c17605091396040518060400160405280601281526020017f4461726d73746164742c204765726d616e7900000000000000000000000000008152506040518060400160405280600d81526020017f31363534373832393338313734000000000000000000000000000000000000008152506040518060400160405280600d81526020017f313635353939323437383739370000000000000000000000000000000000000081525062000a8660201b60201c565b620008d46040518060400160405280601681526020017f5265696e7261756d204dc3bc6e6368656e20322e33340000000000000000000081525060405180608001604052806048815260200162003c67604891396040518060400160405280601281526020017f4461726d73746164742c204765726d616e7900000000000000000000000000008152506040518060400160405280600d81526020017f31363534373832393338313734000000000000000000000000000000000000008152506040518060400160405280600d81526020017f313635353939323437383739370000000000000000000000000000000000000081525062000a8660201b60201c565b6200092f6040518060400160405280601581526020017f556e69766572736974c3a474204d616e6e6865696d000000000000000000000081525073dede610a052cd63d055b1e957b1952525d924f7e62000c8560201b60201c565b62000e8c565b600760008154809291906001019190505550604051806060016040528060075481526020018281526020016000815250600260006007548152602001908152602001600020600082015181600001556020820151816001019080519060200190620009a292919062000ddd565b50604082015181600201559050507f2212b8a0ec32d7c2a1e995cd8470ebb5d67d71c1e74ac3d151ae4245567980f0813360405180806020018373ffffffffffffffffffffffffffffffffffffffff1673ffffffffffffffffffffffffffffffffffffffff168152602001828103825284818151815260200191508051906020019080838360005b8381101562000a4757808201518184015260208101905062000a2a565b50505050905090810190601f16801562000a755780820380516001836020036101000a031916815260200191505b50935050505060405180910390a150565b60086000815480929190600101919050555060405180610100016040528060085481526020018681526020018581526020018481526020018381526020018281526020016000151581526020013373ffffffffffffffffffffffffffffffffffffffff1681525060036000600854815260200190815260200160002060008201518160000155602082015181600101908051906020019062000b2a92919062000ddd565b50604082015181600201908051906020019062000b4992919062000ddd565b50606082015181600301908051906020019062000b6892919062000ddd565b50608082015181600401908051906020019062000b8792919062000ddd565b5060a082015181600501908051906020019062000ba692919062000ddd565b5060c08201518160060160006101000a81548160ff02191690831515021790555060e08201518160060160016101000a81548173ffffffffffffffffffffffffffffffffffffffff021916908373ffffffffffffffffffffffffffffffffffffffff1602179055509050507fa02fe1d7778794c89948c61459253f245c59f299315977dd4a957eb678b22ab260085433604051808381526020018273ffffffffffffffffffffffffffffffffffffffff1673ffffffffffffffffffffffffffffffffffffffff1681526020019250505060405180910390a15050505050565b600a600081548092919060010191905055506040518060600160405280600a5481526020018381526020018273ffffffffffffffffffffffffffffffffffffffff1681525060046000600a54815260200190815260200160002060008201518160000155602082015181600101908051906020019062000d0792919062000ddd565b5060408201518160020160006101000a81548173ffffffffffffffffffffffffffffffffffffffff021916908373ffffffffffffffffffffffffffffffffffffffff1602179055509050505050565b828054600181600116156101000203166002900490600052602060002090601f016020900481019282601f1062000d9957805160ff191683800117855562000dca565b8280016001018555821562000dca579182015b8281111562000dc957825182559160200191906001019062000dac565b5b50905062000dd9919062000e64565b5090565b828054600181600116156101000203166002900490600052602060002090601f016020900481019282601f1062000e2057805160ff191683800117855562000e51565b8280016001018555821562000e51579182015b8281111562000e5057825182559160200191906001019062000e33565b5b50905062000e60919062000e64565b5090565b62000e8991905b8082111562000e8557600081600090555060010162000e6b565b5090565b90565b612d7b8062000e9c6000396000f3fe608060405234801561001057600080fd5b50600436106101215760003560e01c8063915b4f1d116100ad578063afd543e911610071578063afd543e914610d42578063c92ee36614610d86578063cce30a1414610db4578063d562dc7214610dfa578063dcc3974b14610e1857610121565b8063915b4f1d146109745780639c38f65f146109a2578063a14dcd6f14610a83578063ac1eff6814610aa1578063af94a1d114610b8257610121565b806351ac7b8c116100f457806351ac7b8c146107b25780635c51ffaf146107d05780636c8381f8146107ee5780637f05c828146108715780638a9bd6301461088f57610121565b8063131f591914610126578063244d6daa1461043d57806329e493b2146106d95780632c3155d0146106f7575b600080fd5b61043b600480360360a081101561013c57600080fd5b810190808035906020019064010000000081111561015957600080fd5b82018360208201111561016b57600080fd5b8035906020019184600183028401116401000000008311171561018d57600080fd5b91908080601f016020809104026020016040519081016040528093929190818152602001838380828437600081840152601f19601f820116905080830192505050505050509192919290803590602001906401000000008111156101f057600080fd5b82018360208201111561020257600080fd5b8035906020019184600183028401116401000000008311171561022457600080fd5b91908080601f016020809104026020016040519081016040528093929190818152602001838380828437600081840152601f19601f8201169050808301925050505050505091929192908035906020019064010000000081111561028757600080fd5b82018360208201111561029957600080fd5b803590602001918460018302840111640100000000831117156102bb57600080fd5b91908080601f016020809104026020016040519081016040528093929190818152602001838380828437600081840152601f19601f8201169050808301925050505050505091929192908035906020019064010000000081111561031e57600080fd5b82018360208201111561033057600080fd5b8035906020019184600183028401116401000000008311171561035257600080fd5b91908080601f016020809104026020016040519081016040528093929190818152602001838380828437600081840152601f19601f820116905080830192505050505050509192919290803590602001906401000000008111156103b557600080fd5b8201836020820111156103c757600080fd5b803590602001918460018302840111640100000000831117156103e957600080fd5b91908080601f016020809104026020016040519081016040528093929190818152602001838380828437600081840152601f19601f820116905080830192505050505050509192919290505050610ecd565b005b6104696004803603602081101561045357600080fd5b81019080803590602001909291905050506110c2565b604051808981526020018060200180602001806020018060200180602001881515151581526020018773ffffffffffffffffffffffffffffffffffffffff1673ffffffffffffffffffffffffffffffffffffffff16815260200186810386528d818151815260200191508051906020019080838360005b838110156104fb5780820151818401526020810190506104e0565b50505050905090810190601f1680156105285780820380516001836020036101000a031916815260200191505b5086810385528c818151815260200191508051906020019080838360005b83811015610561578082015181840152602081019050610546565b50505050905090810190601f16801561058e5780820380516001836020036101000a031916815260200191505b5086810384528b818151815260200191508051906020019080838360005b838110156105c75780820151818401526020810190506105ac565b50505050905090810190601f1680156105f45780820380516001836020036101000a031916815260200191505b5086810383528a818151815260200191508051906020019080838360005b8381101561062d578082015181840152602081019050610612565b50505050905090810190601f16801561065a5780820380516001836020036101000a031916815260200191505b50868103825289818151815260200191508051906020019080838360005b83811015610693578082015181840152602081019050610678565b50505050905090810190601f1680156106c05780820380516001836020036101000a031916815260200191505b509d505050505050505050505050505060405180910390f35b6106e161142f565b6040518082815260200191505060405180910390f35b6107b06004803603602081101561070d57600080fd5b810190808035906020019064010000000081111561072a57600080fd5b82018360208201111561073c57600080fd5b8035906020019184600183028401116401000000008311171561075e57600080fd5b91908080601f016020809104026020016040519081016040528093929190818152602001838380828437600081840152601f19601f820116905080830192505050505050509192919290505050611435565b005b6107ba611581565b6040518082815260200191505060405180910390f35b6107d8611587565b6040518082815260200191505060405180910390f35b6107f661158d565b6040518080602001828103825283818151815260200191508051906020019080838360005b8381101561083657808201518184015260208101905061081b565b50505050905090810190601f1680156108635780820380516001836020036101000a031916815260200191505b509250505060405180910390f35b61087961162b565b6040518082815260200191505060405180910390f35b610972600480360360608110156108a557600080fd5b8101908080359060200190929190803590602001906401000000008111156108cc57600080fd5b8201836020820111156108de57600080fd5b8035906020019184600183028401116401000000008311171561090057600080fd5b91908080601f016020809104026020016040519081016040528093929190818152602001838380828437600081840152601f19601f820116905080830192505050505050509192919290803573ffffffffffffffffffffffffffffffffffffffff169060200190929190505050611631565b005b6109a06004803603602081101561098a57600080fd5b81019080803590602001909291905050506117da565b005b6109ce600480360360208110156109b857600080fd5b8101908080359060200190929190505050611ed3565b60405180848152602001806020018373ffffffffffffffffffffffffffffffffffffffff1673ffffffffffffffffffffffffffffffffffffffff168152602001828103825284818151815260200191508051906020019080838360005b83811015610a46578082015181840152602081019050610a2b565b50505050905090810190601f168015610a735780820380516001836020036101000a031916815260200191505b5094505050505060405180910390f35b610a8b611fb5565b6040518082815260200191505060405180910390f35b610acd60048036036020811015610ab757600080fd5b8101908080359060200190929190505050611fbb565b60405180848152602001806020018373ffffffffffffffffffffffffffffffffffffffff1673ffffffffffffffffffffffffffffffffffffffff168152602001828103825284818151815260200191508051906020019080838360005b83811015610b45578082015181840152602081019050610b2a565b50505050905090810190601f168015610b725780820380516001836020036101000a031916815260200191505b5094505050505060405180910390f35b610bae60048036036020811015610b9857600080fd5b810190808035906020019092919050505061209d565b604051808773ffffffffffffffffffffffffffffffffffffffff1673ffffffffffffffffffffffffffffffffffffffff168152602001806020018681526020018581526020018060200180602001848103845289818151815260200191508051906020019080838360005b83811015610c34578082015181840152602081019050610c19565b50505050905090810190601f168015610c615780820380516001836020036101000a031916815260200191505b50848103835286818151815260200191508051906020019080838360005b83811015610c9a578082015181840152602081019050610c7f565b50505050905090810190601f168015610cc75780820380516001836020036101000a031916815260200191505b50848103825285818151815260200191508051906020019080838360005b83811015610d00578082015181840152602081019050610ce5565b50505050905090810190601f168015610d2d5780820380516001836020036101000a031916815260200191505b50995050505050505050505060405180910390f35b610d8460048036036060811015610d5857600080fd5b8101908080359060200190929190803515159060200190929190803590602001909291905050506122c1565b005b610db260048036036020811015610d9c57600080fd5b81019080803590602001909291905050506123cd565b005b610de060048036036020811015610dca57600080fd5b8101908080359060200190929190505050612ac6565b604051808215151515815260200191505060405180910390f35b610e02612b34565b6040518082815260200191505060405180910390f35b610e4460048036036020811015610e2e57600080fd5b8101908080359060200190929190505050612b3a565b6040518084815260200180602001838152602001828103825284818151815260200191508051906020019080838360005b83811015610e90578082015181840152602081019050610e75565b50505050905090810190601f168015610ebd5780820380516001836020036101000a031916815260200191505b5094505050505060405180910390f35b60086000815480929190600101919050555060405180610100016040528060085481526020018681526020018581526020018481526020018381526020018281526020016000151581526020013373ffffffffffffffffffffffffffffffffffffffff16815250600360006008548152602001908152602001600020600082015181600001556020820151816001019080519060200190610f6f929190612bfc565b506040820151816002019080519060200190610f8c929190612bfc565b506060820151816003019080519060200190610fa9929190612bfc565b506080820151816004019080519060200190610fc6929190612bfc565b5060a0820151816005019080519060200190610fe3929190612bfc565b5060c08201518160060160006101000a81548160ff02191690831515021790555060e08201518160060160016101000a81548173ffffffffffffffffffffffffffffffffffffffff021916908373ffffffffffffffffffffffffffffffffffffffff1602179055509050507fa02fe1d7778794c89948c61459253f245c59f299315977dd4a957eb678b22ab260085433604051808381526020018273ffffffffffffffffffffffffffffffffffffffff1673ffffffffffffffffffffffffffffffffffffffff1681526020019250505060405180910390a15050505050565b6003602052806000526040600020600091509050806000015490806001018054600181600116156101000203166002900480601f0160208091040260200160405190810160405280929190818152602001828054600181600116156101000203166002900480156111745780601f1061114957610100808354040283529160200191611174565b820191906000526020600020905b81548152906001019060200180831161115757829003601f168201915b505050505090806002018054600181600116156101000203166002900480601f0160208091040260200160405190810160405280929190818152602001828054600181600116156101000203166002900480156112125780601f106111e757610100808354040283529160200191611212565b820191906000526020600020905b8154815290600101906020018083116111f557829003601f168201915b505050505090806003018054600181600116156101000203166002900480601f0160208091040260200160405190810160405280929190818152602001828054600181600116156101000203166002900480156112b05780601f10611285576101008083540402835291602001916112b0565b820191906000526020600020905b81548152906001019060200180831161129357829003601f168201915b505050505090806004018054600181600116156101000203166002900480601f01602080910402602001604051908101604052809291908181526020018280546001816001161561010002031660029004801561134e5780601f106113235761010080835404028352916020019161134e565b820191906000526020600020905b81548152906001019060200180831161133157829003601f168201915b505050505090806005018054600181600116156101000203166002900480601f0160208091040260200160405190810160405280929190818152602001828054600181600116156101000203166002900480156113ec5780601f106113c1576101008083540402835291602001916113ec565b820191906000526020600020905b8154815290600101906020018083116113cf57829003601f168201915b5050505050908060060160009054906101000a900460ff16908060060160019054906101000a900473ffffffffffffffffffffffffffffffffffffffff16905088565b600a5481565b6007600081548092919060010191905055506040518060600160405280600754815260200182815260200160008152506002600060075481526020019081526020016000206000820151816000015560208201518160010190805190602001906114a0929190612bfc565b50604082015181600201559050507f2212b8a0ec32d7c2a1e995cd8470ebb5d67d71c1e74ac3d151ae4245567980f0813360405180806020018373ffffffffffffffffffffffffffffffffffffffff1673ffffffffffffffffffffffffffffffffffffffff168152602001828103825284818151815260200191508051906020019080838360005b83811015611543578082015181840152602081019050611528565b50505050905090810190601f1680156115705780820380516001836020036101000a031916815260200191505b50935050505060405180910390a150565b60085481565b60095481565b600d8054600181600116156101000203166002900480601f0160208091040260200160405190810160405280929190818152602001828054600181600116156101000203166002900480156116235780601f106115f857610100808354040283529160200191611623565b820191906000526020600020905b81548152906001019060200180831161160657829003601f168201915b505050505081565b600b5481565b826004600082815260200190815260200160002060020160009054906101000a900473ffffffffffffffffffffffffffffffffffffffff1673ffffffffffffffffffffffffffffffffffffffff163373ffffffffffffffffffffffffffffffffffffffff1614611709576040517f08c379a00000000000000000000000000000000000000000000000000000000081526004018080602001828103825260178152602001807f43616c6c6572206973206e6f20756e697665727369747900000000000000000081525060200191505060405180910390fd5b600b600081548092919060010191905055506040518060600160405280600b5481526020018481526020018373ffffffffffffffffffffffffffffffffffffffff1681525060066000600b548152602001908152602001600020600082015181600001556020820151816001019080519060200190611789929190612bfc565b5060408201518160020160006101000a81548173ffffffffffffffffffffffffffffffffffffffff021916908373ffffffffffffffffffffffffffffffffffffffff16021790555090505050505050565b6117e2612c7c565b600360008381526020019081526020016000206040518061010001604052908160008201548152602001600182018054600181600116156101000203166002900480601f0160208091040260200160405190810160405280929190818152602001828054600181600116156101000203166002900480156118a45780601f10611879576101008083540402835291602001916118a4565b820191906000526020600020905b81548152906001019060200180831161188757829003601f168201915b50505050508152602001600282018054600181600116156101000203166002900480601f0160208091040260200160405190810160405280929190818152602001828054600181600116156101000203166002900480156119465780601f1061191b57610100808354040283529160200191611946565b820191906000526020600020905b81548152906001019060200180831161192957829003601f168201915b50505050508152602001600382018054600181600116156101000203166002900480601f0160208091040260200160405190810160405280929190818152602001828054600181600116156101000203166002900480156119e85780601f106119bd576101008083540402835291602001916119e8565b820191906000526020600020905b8154815290600101906020018083116119cb57829003601f168201915b50505050508152602001600482018054600181600116156101000203166002900480601f016020809104026020016040519081016040528092919081815260200182805460018160011615610100020316600290048015611a8a5780601f10611a5f57610100808354040283529160200191611a8a565b820191906000526020600020905b815481529060010190602001808311611a6d57829003601f168201915b50505050508152602001600582018054600181600116156101000203166002900480601f016020809104026020016040519081016040528092919081815260200182805460018160011615610100020316600290048015611b2c5780601f10611b0157610100808354040283529160200191611b2c565b820191906000526020600020905b815481529060010190602001808311611b0f57829003601f168201915b505050505081526020016006820160009054906101000a900460ff161515151581526020016006820160019054906101000a900473ffffffffffffffffffffffffffffffffffffffff1673ffffffffffffffffffffffffffffffffffffffff1673ffffffffffffffffffffffffffffffffffffffff16815250509050600c600081548092919060010191905055506040518060c001604052803373ffffffffffffffffffffffffffffffffffffffff16815260200182602001518152602001600c54815260200182600001518152602001826080015181526020018260a0015181525060056000600c54815260200190815260200160002060008201518160000160006101000a81548173ffffffffffffffffffffffffffffffffffffffff021916908373ffffffffffffffffffffffffffffffffffffffff1602179055506020820151816001019080519060200190611c87929190612bfc565b5060408201518160020155606082015181600301556080820151816004019080519060200190611cb8929190612bfc565b5060a0820151816005019080519060200190611cd5929190612bfc565b5090505060036000838152602001908152602001600020600080820160009055600182016000611d059190612cd9565b600282016000611d159190612cd9565b600382016000611d259190612cd9565b600482016000611d359190612cd9565b600582016000611d459190612cd9565b6006820160006101000a81549060ff02191690556006820160016101000a81549073ffffffffffffffffffffffffffffffffffffffff021916905550507f291c076553d87a9c0e9d2abbdbb7e4488736c2ba5b4ecb79d1cdfb1852177767338383608001518460a00151604051808573ffffffffffffffffffffffffffffffffffffffff1673ffffffffffffffffffffffffffffffffffffffff1681526020018481526020018060200180602001838103835285818151815260200191508051906020019080838360005b83811015611e2b578082015181840152602081019050611e10565b50505050905090810190601f168015611e585780820380516001836020036101000a031916815260200191505b50838103825284818151815260200191508051906020019080838360005b83811015611e91578082015181840152602081019050611e76565b50505050905090810190601f168015611ebe5780820380516001836020036101000a031916815260200191505b50965050505050505060405180910390a15050565b6004602052806000526040600020600091509050806000015490806001018054600181600116156101000203166002900480601f016020809104026020016040519081016040528092919081815260200182805460018160011615610100020316600290048015611f855780601f10611f5a57610100808354040283529160200191611f85565b820191906000526020600020905b815481529060010190602001808311611f6857829003601f168201915b5050505050908060020160009054906101000a900473ffffffffffffffffffffffffffffffffffffffff16905083565b600c5481565b6006602052806000526040600020600091509050806000015490806001018054600181600116156101000203166002900480601f01602080910402602001604051908101604052809291908181526020018280546001816001161561010002031660029004801561206d5780601f106120425761010080835404028352916020019161206d565b820191906000526020600020905b81548152906001019060200180831161205057829003601f168201915b5050505050908060020160009054906101000a900473ffffffffffffffffffffffffffffffffffffffff16905083565b60056020528060005260406000206000915090508060000160009054906101000a900473ffffffffffffffffffffffffffffffffffffffff1690806001018054600181600116156101000203166002900480601f01602080910402602001604051908101604052809291908181526020018280546001816001161561010002031660029004801561216f5780601f106121445761010080835404028352916020019161216f565b820191906000526020600020905b81548152906001019060200180831161215257829003601f168201915b505050505090806002015490806003015490806004018054600181600116156101000203166002900480601f0160208091040260200160405190810160405280929190818152602001828054600181600116156101000203166002900480156122195780601f106121ee57610100808354040283529160200191612219565b820191906000526020600020905b8154815290600101906020018083116121fc57829003601f168201915b505050505090806005018054600181600116156101000203166002900480601f0160208091040260200160405190810160405280929190818152602001828054600181600116156101000203166002900480156122b75780601f1061228c576101008083540402835291602001916122b7565b820191906000526020600020905b81548152906001019060200180831161229a57829003601f168201915b5050505050905086565b806006600082815260200190815260200160002060020160009054906101000a900473ffffffffffffffffffffffffffffffffffffffff1673ffffffffffffffffffffffffffffffffffffffff163373ffffffffffffffffffffffffffffffffffffffff1614612399576040517f08c379a00000000000000000000000000000000000000000000000000000000081526004018080602001828103825260158152602001807f43616c6c6572206973206e6f207665726966696572000000000000000000000081525060200191505060405180910390fd5b826003600086815260200190815260200160002060060160006101000a81548160ff02191690831515021790555050505050565b6123d5612c7c565b600360008381526020019081526020016000206040518061010001604052908160008201548152602001600182018054600181600116156101000203166002900480601f0160208091040260200160405190810160405280929190818152602001828054600181600116156101000203166002900480156124975780601f1061246c57610100808354040283529160200191612497565b820191906000526020600020905b81548152906001019060200180831161247a57829003601f168201915b50505050508152602001600282018054600181600116156101000203166002900480601f0160208091040260200160405190810160405280929190818152602001828054600181600116156101000203166002900480156125395780601f1061250e57610100808354040283529160200191612539565b820191906000526020600020905b81548152906001019060200180831161251c57829003601f168201915b50505050508152602001600382018054600181600116156101000203166002900480601f0160208091040260200160405190810160405280929190818152602001828054600181600116156101000203166002900480156125db5780601f106125b0576101008083540402835291602001916125db565b820191906000526020600020905b8154815290600101906020018083116125be57829003601f168201915b50505050508152602001600482018054600181600116156101000203166002900480601f01602080910402602001604051908101604052809291908181526020018280546001816001161561010002031660029004801561267d5780601f106126525761010080835404028352916020019161267d565b820191906000526020600020905b81548152906001019060200180831161266057829003601f168201915b50505050508152602001600582018054600181600116156101000203166002900480601f01602080910402602001604051908101604052809291908181526020018280546001816001161561010002031660029004801561271f5780601f106126f45761010080835404028352916020019161271f565b820191906000526020600020905b81548152906001019060200180831161270257829003601f168201915b505050505081526020016006820160009054906101000a900460ff161515151581526020016006820160019054906101000a900473ffffffffffffffffffffffffffffffffffffffff1673ffffffffffffffffffffffffffffffffffffffff1673ffffffffffffffffffffffffffffffffffffffff16815250509050600c600081548092919060010191905055506040518060c001604052803373ffffffffffffffffffffffffffffffffffffffff16815260200182602001518152602001600c54815260200182600001518152602001826080015181526020018260a0015181525060056000600c54815260200190815260200160002060008201518160000160006101000a81548173ffffffffffffffffffffffffffffffffffffffff021916908373ffffffffffffffffffffffffffffffffffffffff160217905550602082015181600101908051906020019061287a929190612bfc565b50604082015181600201556060820151816003015560808201518160040190805190602001906128ab929190612bfc565b5060a08201518160050190805190602001906128c8929190612bfc565b50905050600360008381526020019081526020016000206000808201600090556001820160006128f89190612cd9565b6002820160006129089190612cd9565b6003820160006129189190612cd9565b6004820160006129289190612cd9565b6005820160006129389190612cd9565b6006820160006101000a81549060ff02191690556006820160016101000a81549073ffffffffffffffffffffffffffffffffffffffff021916905550507f291c076553d87a9c0e9d2abbdbb7e4488736c2ba5b4ecb79d1cdfb1852177767338383608001518460a00151604051808573ffffffffffffffffffffffffffffffffffffffff1673ffffffffffffffffffffffffffffffffffffffff1681526020018481526020018060200180602001838103835285818151815260200191508051906020019080838360005b83811015612a1e578082015181840152602081019050612a03565b50505050905090810190601f168015612a4b5780820380516001836020036101000a031916815260200191505b50838103825284818151815260200191508051906020019080838360005b83811015612a84578082015181840152602081019050612a69565b50505050905090810190601f168015612ab15780820380516001836020036101000a031916815260200191505b50965050505050505060405180910390a15050565b60006004600083815260200190815260200160002060020160009054906101000a900473ffffffffffffffffffffffffffffffffffffffff1673ffffffffffffffffffffffffffffffffffffffff163373ffffffffffffffffffffffffffffffffffffffff16149050919050565b60075481565b6002602052806000526040600020600091509050806000015490806001018054600181600116156101000203166002900480601f016020809104026020016040519081016040528092919081815260200182805460018160011615610100020316600290048015612bec5780601f10612bc157610100808354040283529160200191612bec565b820191906000526020600020905b815481529060010190602001808311612bcf57829003601f168201915b5050505050908060020154905083565b828054600181600116156101000203166002900490600052602060002090601f016020900481019282601f10612c3d57805160ff1916838001178555612c6b565b82800160010185558215612c6b579182015b82811115612c6a578251825591602001919060010190612c4f565b5b509050612c789190612d21565b5090565b604051806101000160405280600081526020016060815260200160608152602001606081526020016060815260200160608152602001600015158152602001600073ffffffffffffffffffffffffffffffffffffffff1681525090565b50805460018160011615610100020316600290046000825580601f10612cff5750612d1e565b601f016020900490600052602060002090810190612d1d9190612d21565b5b50565b612d4391905b80821115612d3f576000816000905550600101612d27565b5090565b9056fea265627a7a723158203f1da22f6a7ebc0ed263c4b4fa9bc6bc4fbafe29855ff6d612934023dad274cf64736f6c6343000510003268747470733a2f2f7777772e736368756c756e67737a656e7472756d2d6461726d73746164742e64652f77702d636f6e74656e742f75706c6f6164732f323031392f30392f445343313836382e6a706768747470733a2f2f7777772e6374612e61742f77702d636f6e74656e742f75706c6f6164732f323031362f31302f6374615f6f74746f626f636b5f312d373730783431342e6a7067",
  "source": "// SPDX-License-Identifier: MIT\npragma solidity >=0.4.22 <0.8.0;\n\ncontract ResourceRental {\n    // Helphotline\n    string hotline = \"0800550488\";\n    string richtilinien = \"<ipfs-Link>\";\n\n    //----------------------------------------------------------\n    // Stornierung\n    //----------------------------------------------------------\n\n    function cancelResourceRental(uint256 _id) public {\n        Resource memory resource = resources[_id];\n\n        rentalsCount++;\n        rentals[rentalsCount] = Rental(\n            msg.sender,\n            resource.name,\n            rentalsCount,\n            resource.resourceId,\n            resource.fromTimeStamp,\n            resource.toTimeStamp\n        );\n\n        delete resources[_id];\n\n        emit ResourceRented(\n            msg.sender,\n            _id,\n            resource.fromTimeStamp,\n            resource.toTimeStamp\n        );\n    }\n\n    //----------------------------------------------------------\n    // Current Rents\n    //----------------------------------------------------------\n\n    //----------------------------------------------------------\n    // Structs\n    //----------------------------------------------------------\n\n    // Model a Rental\n    struct Rental {\n        address renterAddress;\n        string resourceName;\n        uint256 bookingId;\n        uint256 resourceId;\n        string startTimestamp;\n        string endTimestamp;\n    }\n\n    // Model a Renter\n    struct Renter {\n        uint256 renterId;\n        string renterName;\n        uint256 rentCount;\n    }\n\n    // Model a Resource\n    struct Resource {\n        uint256 resourceId;\n        string name;\n        string picture;\n        string location;\n        string fromTimeStamp;\n        string toTimeStamp;\n        bool verified;\n        address owner;\n        // uint8[3] requiredTraining;\n    }\n\n    // Model a University\n    struct University {\n        uint256 universityId;\n        string name;\n        address universityAddress;\n    }\n\n    struct Verifier {\n        uint256 verifierId;\n        string name;\n        address verifierAddress;\n    }\n\n    //----------------------------------------------------------\n    // Events\n    //----------------------------------------------------------\n\n    event RenterAdded(string _renterName, address _senderAddress);\n    event ResourceCreated(uint256 _id, address _creatorAddress);\n    event ResourceRented(\n        address _renter,\n        uint256 _resourceId,\n        string _fromTimeStamp,\n        string _toTimestamp\n    );\n    event UniversityAdded();\n\n    //----------------------------------------------------------\n    // Storage\n    //----------------------------------------------------------\n\n    // Store renters\n    // solidity generiert getter\n    mapping(uint256 => Renter) public renters;\n    mapping(uint256 => Resource) public resources;\n    mapping(uint256 => University) public universities;\n    mapping(uint256 => Rental) public rentals;\n    mapping(uint256 => Verifier) public verifiers;\n\n    // Store index\n    uint256 public rentersCount;\n    uint256 public resourcesCount;\n    uint256 public resourcesAdvertCount;\n    uint256 public universitiesCount;\n    uint256 public verifiersCount;\n    uint256 public rentalsCount;\n\n    // Store Rental\n\n    // Read Rental\n    string public candidate;\n\n    //----------------------------------------------------------\n    // private Functions\n    //----------------------------------------------------------\n\n    function initializeUniversity(string memory _name, address _address)\n        private\n    {\n        // represent Id of the University\n        universitiesCount++;\n        universities[universitiesCount] = University(\n            universitiesCount,\n            _name,\n            _address\n        );\n    }\n\n    //----------------------------------------------------------\n    // public Functions\n    //----------------------------------------------------------\n\n    // event UniversityAdded();\n\n    function addUniversity(\n        uint256 _universityId,\n        string memory _name,\n        address _newUniversityAddress\n    ) private {\n        require(msg.sender == universities[_universityId].universityAddress);\n\n        // represent Id of the University\n        universitiesCount++;\n        universities[universitiesCount] = University(\n            universitiesCount,\n            _name,\n            _newUniversityAddress\n        );\n\n        // emit\n    }\n\n    function addRenter(string memory _name) public {\n        // represent Id of the renter\n        rentersCount++;\n        renters[rentersCount] = Renter(rentersCount, _name, 0);\n\n        emit RenterAdded(_name, msg.sender);\n    }\n\n    function verifyResourceEcoStamp(\n        uint256 _resourceId,\n        bool _verified,\n        uint256 _verifierId\n    ) public isVerifier(_verifierId) {\n        resources[_resourceId].verified = _verified;\n    }\n\n    function addVerifier(\n        uint256 _univertsityId,\n        string memory _verifierName,\n        address _verifierAddress\n    ) public isUniversity(_univertsityId) {\n        verifiersCount++;\n        verifiers[verifiersCount] = Verifier(\n            verifiersCount,\n            _verifierName,\n            _verifierAddress\n        );\n    }\n\n    function addResource(\n        string memory _name,\n        string memory _picture,\n        string memory _location,\n        string memory _fromTimeStamp,\n        string memory _toTimeStamp\n    ) public {\n        // require();\n\n        // represent Id of the renter\n        resourcesCount++;\n        resources[resourcesCount] = Resource(\n            resourcesCount,\n            _name,\n            _picture,\n            _location,\n            _fromTimeStamp,\n            _toTimeStamp,\n            false,\n            msg.sender\n            // _requiredTraining\n        );\n        emit ResourceCreated(resourcesCount, msg.sender);\n    }\n\n    // making the function pure or view\n    // to call it through web3.js without needing\n    // a trancaction -> no gas cost, no confirmation delay\n    function isSenderUniversity(uint256 _id) public view returns (bool) {\n        return msg.sender == universities[_id].universityAddress;\n    }\n\n    function rentResource(uint256 _id) public {\n        Resource memory resource = resources[_id];\n\n        rentalsCount++;\n        rentals[rentalsCount] = Rental(\n            msg.sender,\n            resource.name,\n            rentalsCount,\n            resource.resourceId,\n            resource.fromTimeStamp,\n            resource.toTimeStamp\n        );\n\n        delete resources[_id];\n\n        emit ResourceRented(\n            msg.sender,\n            _id,\n            resource.fromTimeStamp,\n            resource.toTimeStamp\n        );\n    }\n\n    //----------------------------------------------------------\n    // Modifier\n    //----------------------------------------------------------\n\n    // isUniversity\n    modifier isUniversity(uint256 _id) {\n        require(\n            msg.sender == universities[_id].universityAddress,\n            \"Caller is no university\"\n        );\n        _;\n    }\n\n    modifier isVerifier(uint256 _id) {\n        require(\n            msg.sender == verifiers[_id].verifierAddress,\n            \"Caller is no verifier\"\n        );\n        _;\n    }\n\n    //----------------------------------------------------------\n    // Constructor\n    //----------------------------------------------------------\n\n    // Constructor\n    constructor() public {\n        // add example renters\n        addRenter(\"Student 1\");\n        addRenter(\"Professor 1\");\n\n        // add example resources\n        addResource(\n            \"Normal Room\",\n            \"images/room1.jpeg\",\n            \"Furtwangen, Germany\",\n            \"1654782938174\",\n            \"1655992478797\"\n        );\n\n        addResource(\n            \"Concert Hall\",\n            \"images/room1.jpeg\",\n            \"Mannheim, Germani\",\n            \"1654782938174\",\n            \"1655992478797\"\n        );\n        addResource(\n            \"Theater\",\n            \"images/room1.jpeg\",\n            \"Rom, Italy\",\n            \"1654782938174\",\n            \"1655992478797\"\n        );\n        addResource(\n            \"Server Room\",\n            \"images/room1.jpeg\",\n            \"Paris, France\",\n            \"1654782938174\",\n            \"1655992478797\"\n        );\n        addResource(\n            \"Test Room\",\n            \"images/room1.jpeg\",\n            \"Barcelona, Spain\",\n            \"1654782938174\",\n            \"1655992478797\"\n        );\n        addResource(\n            \"Schulungszentrum Darmstadt\",\n            \"https://www.schulungszentrum-darmstadt.de/wp-content/uploads/2019/09/DSC1868.jpg\",\n            \"Darmstadt, Germany\",\n            \"1654782938174\",\n            \"1655992478797\"\n        );\n\n        addResource(\n            \"Reinraum Mnchen 2.34\",\n            \"https://www.cta.at/wp-content/uploads/2016/10/cta_ottobock_1-770x414.jpg\",\n            \"Darmstadt, Germany\",\n            \"1654782938174\",\n            \"1655992478797\"\n        );\n\n        // add universities who are allowed to create resrouces\n        // addUniversity(\n        //     \"Hochschule Furtwangen\",\n        //     0x9BB542Fa2BBC47dF6d5Da1F38dc78a186EA89CaB\n        // );\n        initializeUniversity(\n            \"Universitt Mannheim\",\n            0xDeDE610A052Cd63D055B1e957b1952525d924F7e\n        );\n        // addUniversity(\"TUM\", 0xA5f4A3aa3cFAA342FC401580aE6Af12Ab56EA822);\n        // addUniversity(\n        // \"The Hague University of Applied Sciences\",\n        // 0xE82971C4A32C82556F072C73125e48C4c9c33a59\n        // );\n    }\n}\n",
  "sourcePath": "/home/dizzle/Dev/Dapp/contracts/ResourceRental.sol",
  "compiler": {
    "name": "solc",
    "version": "0.5.16+commit.9c3226ce.Emscripten.clang"
  },
  "schemaVersion": "3.4.7",
  "updatedAt": "2022-08-12T20:48:29.539Z",
  "networkType": "ethereum",
  "devdoc": {
    "methods": {}
  },
  "userdoc": {
    "methods": {}
  }
}