{
  "contractName": "ResourceRental",
  "abi": [
    {
      "inputs": [],
      "payable": false,
      "stateMutability": "nonpayable",
      "type": "constructor"
    },
    {
      "constant": true,
      "inputs": [],
      "name": "candidate",
      "outputs": [
        {
          "internalType": "string",
          "name": "",
          "type": "string"
        }
      ],
      "payable": false,
      "stateMutability": "view",
      "type": "function"
    },
    {
      "constant": true,
      "inputs": [
        {
          "internalType": "uint256",
          "name": "",
          "type": "uint256"
        }
      ],
      "name": "renters",
      "outputs": [
        {
          "internalType": "uint256",
          "name": "renterId",
          "type": "uint256"
        },
        {
          "internalType": "string",
          "name": "renterName",
          "type": "string"
        },
        {
          "internalType": "uint256",
          "name": "rentCount",
          "type": "uint256"
        }
      ],
      "payable": false,
      "stateMutability": "view",
      "type": "function"
    },
    {
      "constant": true,
      "inputs": [],
      "name": "rentersCount",
      "outputs": [
        {
          "internalType": "uint256",
          "name": "",
          "type": "uint256"
        }
      ],
      "payable": false,
      "stateMutability": "view",
      "type": "function"
    }
  ],
  "bytecode": "0x608060405234801561001057600080fd5b506100556040518060400160405280600981526020017f53747564656e742031000000000000000000000000000000000000000000000081525061009e60201b60201c565b6100996040518060400160405280600b81526020017f50726f666573736f72203100000000000000000000000000000000000000000081525061009e60201b60201c565b6101be565b6001600081548092919060010191905055506040518060600160405280600154815260200182815260200160008152506000806001548152602001908152602001600020600082015181600001556020820151816001019080519060200190610108929190610119565b506040820151816002015590505050565b828054600181600116156101000203166002900490600052602060002090601f016020900481019282601f1061015a57805160ff1916838001178555610188565b82800160010185558215610188579182015b8281111561018757825182559160200191906001019061016c565b5b5090506101959190610199565b5090565b6101bb91905b808211156101b757600081600090555060010161019f565b5090565b90565b610337806101cd6000396000f3fe608060405234801561001057600080fd5b50600436106100415760003560e01c80636c8381f814610046578063d562dc72146100c9578063dcc3974b146100e7575b600080fd5b61004e61019c565b6040518080602001828103825283818151815260200191508051906020019080838360005b8381101561008e578082015181840152602081019050610073565b50505050905090810190601f1680156100bb5780820380516001836020036101000a031916815260200191505b509250505060405180910390f35b6100d161023a565b6040518082815260200191505060405180910390f35b610113600480360360208110156100fd57600080fd5b8101908080359060200190929190505050610240565b6040518084815260200180602001838152602001828103825284818151815260200191508051906020019080838360005b8381101561015f578082015181840152602081019050610144565b50505050905090810190601f16801561018c5780820380516001836020036101000a031916815260200191505b5094505050505060405180910390f35b60028054600181600116156101000203166002900480601f0160208091040260200160405190810160405280929190818152602001828054600181600116156101000203166002900480156102325780601f1061020757610100808354040283529160200191610232565b820191906000526020600020905b81548152906001019060200180831161021557829003601f168201915b505050505081565b60015481565b6000602052806000526040600020600091509050806000015490806001018054600181600116156101000203166002900480601f0160208091040260200160405190810160405280929190818152602001828054600181600116156101000203166002900480156102f25780601f106102c7576101008083540402835291602001916102f2565b820191906000526020600020905b8154815290600101906020018083116102d557829003601f168201915b505050505090806002015490508356fea265627a7a72315820004bf7d7b1ac0687875ab1e5865069d1511f9eefd5703c2bf24afe0440f6764b64736f6c63430005100032",
  "source": "// SPDX-License-Identifier: MIT\npragma solidity >=0.4.22 <0.8.0;\n\ncontract ResourceRental {\n    // Model a Rental\n    struct Rental {\n        string resourceName;\n        uint256 bookingId;\n        uint256 resourceId;\n        uint256 startTimestamp;\n        uint256 endTimestamp;\n    }\n\n    // Model a Renter\n    struct Renter {\n        uint256 renterId;\n        string renterName;\n        uint256 rentCount;\n    }\n\n    // Model a Renter\n\n    // store renters\n    // solidity generiert getter\n    mapping(uint256 => Renter) public renters;\n\n    // Store renters count\n    uint256 public rentersCount;\n    // Store Rental\n\n    // Read Rental\n    string public candidate;\n\n    function addRenter(string memory _name) private {\n        // represent Id of the renter\n        rentersCount++;\n        renters[rentersCount] = Renter(rentersCount, _name, 0);\n    }\n\n    // Store Rental -> from to free\n\n    // Fetch Rental\n\n    // Store Rental count\n\n    // Constructor\n    constructor() public {\n        addRenter(\"Student 1\");\n        addRenter(\"Professor 1\");\n    }\n}\n",
  "sourcePath": "/home/dizzle/Dev/Dapp/contracts/ResourceRental.sol",
  "compiler": {
    "name": "solc",
    "version": "0.5.16+commit.9c3226ce.Emscripten.clang"
  },
  "schemaVersion": "3.4.7",
  "updatedAt": "2022-06-08T11:06:39.936Z",
  "networkType": "ethereum",
  "devdoc": {
    "methods": {}
  },
  "userdoc": {
    "methods": {}
  }
}