{
  "contractName": "ResourceRental",
  "abi": [
    {
      "inputs": [],
      "payable": false,
      "stateMutability": "nonpayable",
      "type": "constructor"
    },
    {
      "anonymous": false,
      "inputs": [
        {
          "indexed": false,
          "internalType": "string",
          "name": "_renterName",
          "type": "string"
        },
        {
          "indexed": false,
          "internalType": "address",
          "name": "_senderAddress",
          "type": "address"
        }
      ],
      "name": "RenterAdded",
      "type": "event"
    },
    {
      "anonymous": false,
      "inputs": [
        {
          "indexed": false,
          "internalType": "uint256",
          "name": "_id",
          "type": "uint256"
        },
        {
          "indexed": false,
          "internalType": "address",
          "name": "_creatorAddress",
          "type": "address"
        }
      ],
      "name": "ResourceCreated",
      "type": "event"
    },
    {
      "anonymous": false,
      "inputs": [
        {
          "indexed": false,
          "internalType": "uint256",
          "name": "_resourceId",
          "type": "uint256"
        },
        {
          "indexed": false,
          "internalType": "string",
          "name": "_fromTimeStamp",
          "type": "string"
        },
        {
          "indexed": false,
          "internalType": "string",
          "name": "_toTimestamp",
          "type": "string"
        }
      ],
      "name": "ResourceRented",
      "type": "event"
    },
    {
      "anonymous": false,
      "inputs": [],
      "name": "UniversityAdded",
      "type": "event"
    },
    {
      "constant": true,
      "inputs": [],
      "name": "candidate",
      "outputs": [
        {
          "internalType": "string",
          "name": "",
          "type": "string"
        }
      ],
      "payable": false,
      "stateMutability": "view",
      "type": "function"
    },
    {
      "constant": true,
      "inputs": [
        {
          "internalType": "uint256",
          "name": "",
          "type": "uint256"
        }
      ],
      "name": "rentals",
      "outputs": [
        {
          "internalType": "string",
          "name": "resourceName",
          "type": "string"
        },
        {
          "internalType": "uint256",
          "name": "bookingId",
          "type": "uint256"
        },
        {
          "internalType": "uint256",
          "name": "resourceId",
          "type": "uint256"
        },
        {
          "internalType": "string",
          "name": "startTimestamp",
          "type": "string"
        },
        {
          "internalType": "string",
          "name": "endTimestamp",
          "type": "string"
        }
      ],
      "payable": false,
      "stateMutability": "view",
      "type": "function"
    },
    {
      "constant": true,
      "inputs": [],
      "name": "rentalsCount",
      "outputs": [
        {
          "internalType": "uint256",
          "name": "",
          "type": "uint256"
        }
      ],
      "payable": false,
      "stateMutability": "view",
      "type": "function"
    },
    {
      "constant": true,
      "inputs": [
        {
          "internalType": "uint256",
          "name": "",
          "type": "uint256"
        }
      ],
      "name": "renters",
      "outputs": [
        {
          "internalType": "uint256",
          "name": "renterId",
          "type": "uint256"
        },
        {
          "internalType": "string",
          "name": "renterName",
          "type": "string"
        },
        {
          "internalType": "uint256",
          "name": "rentCount",
          "type": "uint256"
        }
      ],
      "payable": false,
      "stateMutability": "view",
      "type": "function"
    },
    {
      "constant": true,
      "inputs": [],
      "name": "rentersCount",
      "outputs": [
        {
          "internalType": "uint256",
          "name": "",
          "type": "uint256"
        }
      ],
      "payable": false,
      "stateMutability": "view",
      "type": "function"
    },
    {
      "constant": true,
      "inputs": [
        {
          "internalType": "uint256",
          "name": "",
          "type": "uint256"
        }
      ],
      "name": "resources",
      "outputs": [
        {
          "internalType": "uint256",
          "name": "resourceId",
          "type": "uint256"
        },
        {
          "internalType": "string",
          "name": "name",
          "type": "string"
        },
        {
          "internalType": "string",
          "name": "picture",
          "type": "string"
        },
        {
          "internalType": "string",
          "name": "location",
          "type": "string"
        },
        {
          "internalType": "string",
          "name": "fromTimeStamp",
          "type": "string"
        },
        {
          "internalType": "string",
          "name": "toTimeStamp",
          "type": "string"
        }
      ],
      "payable": false,
      "stateMutability": "view",
      "type": "function"
    },
    {
      "constant": true,
      "inputs": [],
      "name": "resourcesAdvertCount",
      "outputs": [
        {
          "internalType": "uint256",
          "name": "",
          "type": "uint256"
        }
      ],
      "payable": false,
      "stateMutability": "view",
      "type": "function"
    },
    {
      "constant": true,
      "inputs": [],
      "name": "resourcesCount",
      "outputs": [
        {
          "internalType": "uint256",
          "name": "",
          "type": "uint256"
        }
      ],
      "payable": false,
      "stateMutability": "view",
      "type": "function"
    },
    {
      "constant": true,
      "inputs": [
        {
          "internalType": "uint256",
          "name": "",
          "type": "uint256"
        }
      ],
      "name": "universities",
      "outputs": [
        {
          "internalType": "uint256",
          "name": "universityId",
          "type": "uint256"
        },
        {
          "internalType": "string",
          "name": "name",
          "type": "string"
        },
        {
          "internalType": "address",
          "name": "universityAddress",
          "type": "address"
        }
      ],
      "payable": false,
      "stateMutability": "view",
      "type": "function"
    },
    {
      "constant": true,
      "inputs": [],
      "name": "universitiesCount",
      "outputs": [
        {
          "internalType": "uint256",
          "name": "",
          "type": "uint256"
        }
      ],
      "payable": false,
      "stateMutability": "view",
      "type": "function"
    },
    {
      "constant": false,
      "inputs": [
        {
          "internalType": "string",
          "name": "_name",
          "type": "string"
        }
      ],
      "name": "addRenter",
      "outputs": [],
      "payable": false,
      "stateMutability": "nonpayable",
      "type": "function"
    },
    {
      "constant": false,
      "inputs": [
        {
          "internalType": "string",
          "name": "_name",
          "type": "string"
        },
        {
          "internalType": "string",
          "name": "_picture",
          "type": "string"
        },
        {
          "internalType": "string",
          "name": "_location",
          "type": "string"
        },
        {
          "internalType": "string",
          "name": "_fromTimeStamp",
          "type": "string"
        },
        {
          "internalType": "string",
          "name": "_toTimeStamp",
          "type": "string"
        }
      ],
      "name": "addResource",
      "outputs": [],
      "payable": false,
      "stateMutability": "nonpayable",
      "type": "function"
    },
    {
      "constant": true,
      "inputs": [
        {
          "internalType": "uint256",
          "name": "_id",
          "type": "uint256"
        }
      ],
      "name": "isSenderUniversity",
      "outputs": [
        {
          "internalType": "bool",
          "name": "",
          "type": "bool"
        }
      ],
      "payable": false,
      "stateMutability": "view",
      "type": "function"
    },
    {
      "constant": false,
      "inputs": [
        {
          "internalType": "uint256",
          "name": "_id",
          "type": "uint256"
        }
      ],
      "name": "rentResource",
      "outputs": [],
      "payable": false,
      "stateMutability": "nonpayable",
      "type": "function"
    }
  ],
  "bytecode": "0x60806040523480156200001157600080fd5b50620000586040518060400160405280600981526020017f53747564656e74203100000000000000000000000000000000000000000000008152506200079760201b60201c565b6200009e6040518060400160405280600b81526020017f50726f666573736f7220310000000000000000000000000000000000000000008152506200079760201b60201c565b620001bc6040518060400160405280600b81526020017f4e6f726d616c20526f6f6d0000000000000000000000000000000000000000008152506040518060400160405280601181526020017f696d616765732f726f6f6d312e6a7065670000000000000000000000000000008152506040518060400160405280601381526020017f4675727477616e67656e2c204765726d616e79000000000000000000000000008152506040518060400160405280600d81526020017f31363534373832393338313734000000000000000000000000000000000000008152506040518060400160405280600d81526020017f3136353539393234373837393700000000000000000000000000000000000000815250620008e760201b60201c565b620002da6040518060400160405280600c81526020017f436f6e636572742048616c6c00000000000000000000000000000000000000008152506040518060400160405280601181526020017f696d616765732f726f6f6d312e6a7065670000000000000000000000000000008152506040518060400160405280601181526020017f4d616e6e6865696d2c204765726d616e690000000000000000000000000000008152506040518060400160405280600d81526020017f31363534373832393338313734000000000000000000000000000000000000008152506040518060400160405280600d81526020017f3136353539393234373837393700000000000000000000000000000000000000815250620008e760201b60201c565b620003f86040518060400160405280600781526020017f54686561746572000000000000000000000000000000000000000000000000008152506040518060400160405280601181526020017f696d616765732f726f6f6d312e6a7065670000000000000000000000000000008152506040518060400160405280600a81526020017f526f6d2c204974616c79000000000000000000000000000000000000000000008152506040518060400160405280600d81526020017f31363534373832393338313734000000000000000000000000000000000000008152506040518060400160405280600d81526020017f3136353539393234373837393700000000000000000000000000000000000000815250620008e760201b60201c565b620005166040518060400160405280600b81526020017f53657276657220526f6f6d0000000000000000000000000000000000000000008152506040518060400160405280601181526020017f696d616765732f726f6f6d312e6a7065670000000000000000000000000000008152506040518060400160405280600d81526020017f50617269732c204672616e6365000000000000000000000000000000000000008152506040518060400160405280600d81526020017f31363534373832393338313734000000000000000000000000000000000000008152506040518060400160405280600d81526020017f3136353539393234373837393700000000000000000000000000000000000000815250620008e760201b60201c565b620006346040518060400160405280600981526020017f5465737420526f6f6d00000000000000000000000000000000000000000000008152506040518060400160405280601181526020017f696d616765732f726f6f6d312e6a7065670000000000000000000000000000008152506040518060400160405280601081526020017f42617263656c6f6e612c20537061696e000000000000000000000000000000008152506040518060400160405280600d81526020017f31363534373832393338313734000000000000000000000000000000000000008152506040518060400160405280600d81526020017f3136353539393234373837393700000000000000000000000000000000000000815250620008e760201b60201c565b620007366040518060400160405280601a81526020017f536368756c756e67737a656e7472756d204461726d737461647400000000000081525060405180608001604052806050815260200162002978605091396040518060400160405280601281526020017f4461726d73746164742c204765726d616e7900000000000000000000000000008152506040518060400160405280600d81526020017f31363534373832393338313734000000000000000000000000000000000000008152506040518060400160405280600d81526020017f3136353539393234373837393700000000000000000000000000000000000000815250620008e760201b60201c565b620007916040518060400160405280601581526020017f556e69766572736974c3a474204d616e6e6865696d000000000000000000000081525073dede610a052cd63d055b1e957b1952525d924f7e62000a5960201b60201c565b62000bd9565b60046000815480929190600101919050555060405180606001604052806004548152602001828152602001600081525060008060045481526020019081526020016000206000820151816000015560208201518160010190805190602001906200080392919062000b2a565b50604082015181600201559050507f2212b8a0ec32d7c2a1e995cd8470ebb5d67d71c1e74ac3d151ae4245567980f0813360405180806020018373ffffffffffffffffffffffffffffffffffffffff1673ffffffffffffffffffffffffffffffffffffffff168152602001828103825284818151815260200191508051906020019080838360005b83811015620008a85780820151818401526020810190506200088b565b50505050905090810190601f168015620008d65780820380516001836020036101000a031916815260200191505b50935050505060405180910390a150565b6005600081548092919060010191905055506040518060c001604052806005548152602001868152602001858152602001848152602001838152602001828152506001600060055481526020019081526020016000206000820151816000015560208201518160010190805190602001906200096592919062000b2a565b5060408201518160020190805190602001906200098492919062000b2a565b506060820151816003019080519060200190620009a392919062000b2a565b506080820151816004019080519060200190620009c292919062000b2a565b5060a0820151816005019080519060200190620009e192919062000b2a565b509050507fa02fe1d7778794c89948c61459253f245c59f299315977dd4a957eb678b22ab260055433604051808381526020018273ffffffffffffffffffffffffffffffffffffffff1673ffffffffffffffffffffffffffffffffffffffff1681526020019250505060405180910390a15050505050565b600760008154809291906001019190505550604051806060016040528060075481526020018381526020018273ffffffffffffffffffffffffffffffffffffffff1681525060026000600754815260200190815260200160002060008201518160000155602082015181600101908051906020019062000adb92919062000b2a565b5060408201518160020160006101000a81548173ffffffffffffffffffffffffffffffffffffffff021916908373ffffffffffffffffffffffffffffffffffffffff1602179055509050505050565b828054600181600116156101000203166002900490600052602060002090601f016020900481019282601f1062000b6d57805160ff191683800117855562000b9e565b8280016001018555821562000b9e579182015b8281111562000b9d57825182559160200191906001019062000b80565b5b50905062000bad919062000bb1565b5090565b62000bd691905b8082111562000bd257600081600090555060010162000bb8565b5090565b90565b611d8f8062000be96000396000f3fe608060405234801561001057600080fd5b50600436106100ea5760003560e01c8063915b4f1d1161008c578063af94a1d111610066578063af94a1d114610929578063cce30a1414610ab6578063d562dc7214610afc578063dcc3974b14610b1a576100ea565b8063915b4f1d146107fc5780639c38f65f1461082a578063a14dcd6f1461090b576100ea565b80632c3155d0116100c85780632c3155d01461068257806351ac7b8c1461073d5780635c51ffaf1461075b5780636c8381f814610779576100ea565b8063131f5919146100ef578063244d6daa1461040657806329e493b214610664575b600080fd5b610404600480360360a081101561010557600080fd5b810190808035906020019064010000000081111561012257600080fd5b82018360208201111561013457600080fd5b8035906020019184600183028401116401000000008311171561015657600080fd5b91908080601f016020809104026020016040519081016040528093929190818152602001838380828437600081840152601f19601f820116905080830192505050505050509192919290803590602001906401000000008111156101b957600080fd5b8201836020820111156101cb57600080fd5b803590602001918460018302840111640100000000831117156101ed57600080fd5b91908080601f016020809104026020016040519081016040528093929190818152602001838380828437600081840152601f19601f8201169050808301925050505050505091929192908035906020019064010000000081111561025057600080fd5b82018360208201111561026257600080fd5b8035906020019184600183028401116401000000008311171561028457600080fd5b91908080601f016020809104026020016040519081016040528093929190818152602001838380828437600081840152601f19601f820116905080830192505050505050509192919290803590602001906401000000008111156102e757600080fd5b8201836020820111156102f957600080fd5b8035906020019184600183028401116401000000008311171561031b57600080fd5b91908080601f016020809104026020016040519081016040528093929190818152602001838380828437600081840152601f19601f8201169050808301925050505050505091929192908035906020019064010000000081111561037e57600080fd5b82018360208201111561039057600080fd5b803590602001918460018302840111640100000000831117156103b257600080fd5b91908080601f016020809104026020016040519081016040528093929190818152602001838380828437600081840152601f19601f820116905080830192505050505050509192919290505050610bcf565b005b6104326004803603602081101561041c57600080fd5b8101908080359060200190929190505050610d37565b60405180878152602001806020018060200180602001806020018060200186810386528b818151815260200191508051906020019080838360005b8381101561048857808201518184015260208101905061046d565b50505050905090810190601f1680156104b55780820380516001836020036101000a031916815260200191505b5086810385528a818151815260200191508051906020019080838360005b838110156104ee5780820151818401526020810190506104d3565b50505050905090810190601f16801561051b5780820380516001836020036101000a031916815260200191505b50868103845289818151815260200191508051906020019080838360005b83811015610554578082015181840152602081019050610539565b50505050905090810190601f1680156105815780820380516001836020036101000a031916815260200191505b50868103835288818151815260200191508051906020019080838360005b838110156105ba57808201518184015260208101905061059f565b50505050905090810190601f1680156105e75780820380516001836020036101000a031916815260200191505b50868103825287818151815260200191508051906020019080838360005b83811015610620578082015181840152602081019050610605565b50505050905090810190601f16801561064d5780820380516001836020036101000a031916815260200191505b509b50505050505050505050505060405180910390f35b61066c61106b565b6040518082815260200191505060405180910390f35b61073b6004803603602081101561069857600080fd5b81019080803590602001906401000000008111156106b557600080fd5b8201836020820111156106c757600080fd5b803590602001918460018302840111640100000000831117156106e957600080fd5b91908080601f016020809104026020016040519081016040528093929190818152602001838380828437600081840152601f19601f820116905080830192505050505050509192919290505050611071565b005b6107456111bc565b6040518082815260200191505060405180910390f35b6107636111c2565b6040518082815260200191505060405180910390f35b6107816111c8565b6040518080602001828103825283818151815260200191508051906020019080838360005b838110156107c15780820151818401526020810190506107a6565b50505050905090810190601f1680156107ee5780820380516001836020036101000a031916815260200191505b509250505060405180910390f35b6108286004803603602081101561081257600080fd5b8101908080359060200190929190505050611266565b005b6108566004803603602081101561084057600080fd5b810190808035906020019092919050505061181b565b60405180848152602001806020018373ffffffffffffffffffffffffffffffffffffffff1673ffffffffffffffffffffffffffffffffffffffff168152602001828103825284818151815260200191508051906020019080838360005b838110156108ce5780820151818401526020810190506108b3565b50505050905090810190601f1680156108fb5780820380516001836020036101000a031916815260200191505b5094505050505060405180910390f35b6109136118fd565b6040518082815260200191505060405180910390f35b6109556004803603602081101561093f57600080fd5b8101908080359060200190929190505050611903565b60405180806020018681526020018581526020018060200180602001848103845289818151815260200191508051906020019080838360005b838110156109a957808201518184015260208101905061098e565b50505050905090810190601f1680156109d65780820380516001836020036101000a031916815260200191505b50848103835286818151815260200191508051906020019080838360005b83811015610a0f5780820151818401526020810190506109f4565b50505050905090810190601f168015610a3c5780820380516001836020036101000a031916815260200191505b50848103825285818151815260200191508051906020019080838360005b83811015610a75578082015181840152602081019050610a5a565b50505050905090810190601f168015610aa25780820380516001836020036101000a031916815260200191505b509850505050505050505060405180910390f35b610ae260048036036020811015610acc57600080fd5b8101908080359060200190929190505050611b01565b604051808215151515815260200191505060405180910390f35b610b04611b6f565b6040518082815260200191505060405180910390f35b610b4660048036036020811015610b3057600080fd5b8101908080359060200190929190505050611b75565b6040518084815260200180602001838152602001828103825284818151815260200191508051906020019080838360005b83811015610b92578082015181840152602081019050610b77565b50505050905090810190601f168015610bbf5780820380516001836020036101000a031916815260200191505b5094505050505060405180910390f35b6005600081548092919060010191905055506040518060c00160405280600554815260200186815260200185815260200184815260200183815260200182815250600160006005548152602001908152602001600020600082015181600001556020820151816001019080519060200190610c4b929190611c37565b506040820151816002019080519060200190610c68929190611c37565b506060820151816003019080519060200190610c85929190611c37565b506080820151816004019080519060200190610ca2929190611c37565b5060a0820151816005019080519060200190610cbf929190611c37565b509050507fa02fe1d7778794c89948c61459253f245c59f299315977dd4a957eb678b22ab260055433604051808381526020018273ffffffffffffffffffffffffffffffffffffffff1673ffffffffffffffffffffffffffffffffffffffff1681526020019250505060405180910390a15050505050565b6001602052806000526040600020600091509050806000015490806001018054600181600116156101000203166002900480601f016020809104026020016040519081016040528092919081815260200182805460018160011615610100020316600290048015610de95780601f10610dbe57610100808354040283529160200191610de9565b820191906000526020600020905b815481529060010190602001808311610dcc57829003601f168201915b505050505090806002018054600181600116156101000203166002900480601f016020809104026020016040519081016040528092919081815260200182805460018160011615610100020316600290048015610e875780601f10610e5c57610100808354040283529160200191610e87565b820191906000526020600020905b815481529060010190602001808311610e6a57829003601f168201915b505050505090806003018054600181600116156101000203166002900480601f016020809104026020016040519081016040528092919081815260200182805460018160011615610100020316600290048015610f255780601f10610efa57610100808354040283529160200191610f25565b820191906000526020600020905b815481529060010190602001808311610f0857829003601f168201915b505050505090806004018054600181600116156101000203166002900480601f016020809104026020016040519081016040528092919081815260200182805460018160011615610100020316600290048015610fc35780601f10610f9857610100808354040283529160200191610fc3565b820191906000526020600020905b815481529060010190602001808311610fa657829003601f168201915b505050505090806005018054600181600116156101000203166002900480601f0160208091040260200160405190810160405280929190818152602001828054600181600116156101000203166002900480156110615780601f1061103657610100808354040283529160200191611061565b820191906000526020600020905b81548152906001019060200180831161104457829003601f168201915b5050505050905086565b60075481565b60046000815480929190600101919050555060405180606001604052806004548152602001828152602001600081525060008060045481526020019081526020016000206000820151816000015560208201518160010190805190602001906110db929190611c37565b50604082015181600201559050507f2212b8a0ec32d7c2a1e995cd8470ebb5d67d71c1e74ac3d151ae4245567980f0813360405180806020018373ffffffffffffffffffffffffffffffffffffffff1673ffffffffffffffffffffffffffffffffffffffff168152602001828103825284818151815260200191508051906020019080838360005b8381101561117e578082015181840152602081019050611163565b50505050905090810190601f1680156111ab5780820380516001836020036101000a031916815260200191505b50935050505060405180910390a150565b60055481565b60065481565b60098054600181600116156101000203166002900480601f01602080910402602001604051908101604052809291908181526020018280546001816001161561010002031660029004801561125e5780601f106112335761010080835404028352916020019161125e565b820191906000526020600020905b81548152906001019060200180831161124157829003601f168201915b505050505081565b61126e611cb7565b600160008381526020019081526020016000206040518060c001604052908160008201548152602001600182018054600181600116156101000203166002900480601f01602080910402602001604051908101604052809291908181526020018280546001816001161561010002031660029004801561132f5780601f106113045761010080835404028352916020019161132f565b820191906000526020600020905b81548152906001019060200180831161131257829003601f168201915b50505050508152602001600282018054600181600116156101000203166002900480601f0160208091040260200160405190810160405280929190818152602001828054600181600116156101000203166002900480156113d15780601f106113a6576101008083540402835291602001916113d1565b820191906000526020600020905b8154815290600101906020018083116113b457829003601f168201915b50505050508152602001600382018054600181600116156101000203166002900480601f0160208091040260200160405190810160405280929190818152602001828054600181600116156101000203166002900480156114735780601f1061144857610100808354040283529160200191611473565b820191906000526020600020905b81548152906001019060200180831161145657829003601f168201915b50505050508152602001600482018054600181600116156101000203166002900480601f0160208091040260200160405190810160405280929190818152602001828054600181600116156101000203166002900480156115155780601f106114ea57610100808354040283529160200191611515565b820191906000526020600020905b8154815290600101906020018083116114f857829003601f168201915b50505050508152602001600582018054600181600116156101000203166002900480601f0160208091040260200160405190810160405280929190818152602001828054600181600116156101000203166002900480156115b75780601f1061158c576101008083540402835291602001916115b7565b820191906000526020600020905b81548152906001019060200180831161159a57829003601f168201915b50505050508152505090506008600081548092919060010191905055506040518060a0016040528082602001518152602001600854815260200182600001518152602001826080015181526020018260a00151815250600360006008548152602001908152602001600020600082015181600001908051906020019061163e929190611c37565b506020820151816001015560408201518160020155606082015181600301908051906020019061166f929190611c37565b50608082015181600401908051906020019061168c929190611c37565b50905050600160008381526020019081526020016000206000808201600090556001820160006116bc9190611ced565b6002820160006116cc9190611ced565b6003820160006116dc9190611ced565b6004820160006116ec9190611ced565b6005820160006116fc9190611ced565b50507f805afbe80942ce9a0427813a2481214fa7e7558421ea04692621767e2d120def8282608001518360a00151604051808481526020018060200180602001838103835285818151815260200191508051906020019080838360005b83811015611774578082015181840152602081019050611759565b50505050905090810190601f1680156117a15780820380516001836020036101000a031916815260200191505b50838103825284818151815260200191508051906020019080838360005b838110156117da5780820151818401526020810190506117bf565b50505050905090810190601f1680156118075780820380516001836020036101000a031916815260200191505b509550505050505060405180910390a15050565b6002602052806000526040600020600091509050806000015490806001018054600181600116156101000203166002900480601f0160208091040260200160405190810160405280929190818152602001828054600181600116156101000203166002900480156118cd5780601f106118a2576101008083540402835291602001916118cd565b820191906000526020600020905b8154815290600101906020018083116118b057829003601f168201915b5050505050908060020160009054906101000a900473ffffffffffffffffffffffffffffffffffffffff16905083565b60085481565b6003602052806000526040600020600091509050806000018054600181600116156101000203166002900480601f0160208091040260200160405190810160405280929190818152602001828054600181600116156101000203166002900480156119af5780601f10611984576101008083540402835291602001916119af565b820191906000526020600020905b81548152906001019060200180831161199257829003601f168201915b505050505090806001015490806002015490806003018054600181600116156101000203166002900480601f016020809104026020016040519081016040528092919081815260200182805460018160011615610100020316600290048015611a595780601f10611a2e57610100808354040283529160200191611a59565b820191906000526020600020905b815481529060010190602001808311611a3c57829003601f168201915b505050505090806004018054600181600116156101000203166002900480601f016020809104026020016040519081016040528092919081815260200182805460018160011615610100020316600290048015611af75780601f10611acc57610100808354040283529160200191611af7565b820191906000526020600020905b815481529060010190602001808311611ada57829003601f168201915b5050505050905085565b60006002600083815260200190815260200160002060020160009054906101000a900473ffffffffffffffffffffffffffffffffffffffff1673ffffffffffffffffffffffffffffffffffffffff163373ffffffffffffffffffffffffffffffffffffffff16149050919050565b60045481565b6000602052806000526040600020600091509050806000015490806001018054600181600116156101000203166002900480601f016020809104026020016040519081016040528092919081815260200182805460018160011615610100020316600290048015611c275780601f10611bfc57610100808354040283529160200191611c27565b820191906000526020600020905b815481529060010190602001808311611c0a57829003601f168201915b5050505050908060020154905083565b828054600181600116156101000203166002900490600052602060002090601f016020900481019282601f10611c7857805160ff1916838001178555611ca6565b82800160010185558215611ca6579182015b82811115611ca5578251825591602001919060010190611c8a565b5b509050611cb39190611d35565b5090565b6040518060c001604052806000815260200160608152602001606081526020016060815260200160608152602001606081525090565b50805460018160011615610100020316600290046000825580601f10611d135750611d32565b601f016020900490600052602060002090810190611d319190611d35565b5b50565b611d5791905b80821115611d53576000816000905550600101611d3b565b5090565b9056fea265627a7a72315820a54301fb969c4ce8b7daa7ae83339a6351e657ebc6704497ac1f526f55eef06c64736f6c6343000510003268747470733a2f2f7777772e736368756c756e67737a656e7472756d2d6461726d73746164742e64652f77702d636f6e74656e742f75706c6f6164732f323031392f30392f445343313836382e6a7067",
  "source": "// SPDX-License-Identifier: MIT\npragma solidity >=0.4.22 <0.8.0;\n\ncontract ResourceRental {\n    //----------------------------------------------------------\n    // Structs\n    //----------------------------------------------------------\n\n    // Model a Rental\n    struct Rental {\n        string resourceName;\n        uint256 bookingId;\n        uint256 resourceId;\n        string startTimestamp;\n        string endTimestamp;\n    }\n\n    // Model a Renter\n    struct Renter {\n        uint256 renterId;\n        string renterName;\n        uint256 rentCount;\n    }\n\n    // Model a Resource\n    struct Resource {\n        uint256 resourceId;\n        string name;\n        string picture;\n        string location;\n        string fromTimeStamp;\n        string toTimeStamp;\n        // uint8[3] requiredTraining;\n    }\n\n    // Model a University\n    struct University {\n        uint256 universityId;\n        string name;\n        address universityAddress;\n    }\n\n    //----------------------------------------------------------\n    // Events\n    //----------------------------------------------------------\n\n    event RenterAdded(string _renterName, address _senderAddress);\n    event ResourceCreated(uint256 _id, address _creatorAddress);\n    event ResourceRented(\n        uint256 _resourceId,\n        string _fromTimeStamp,\n        string _toTimestamp\n    );\n    event UniversityAdded();\n\n    //----------------------------------------------------------\n    // Storage\n    //----------------------------------------------------------\n\n    // Store renters\n    // solidity generiert getter\n    mapping(uint256 => Renter) public renters;\n    mapping(uint256 => Resource) public resources;\n    mapping(uint256 => University) public universities;\n    mapping(uint256 => Rental) public rentals;\n\n    // Store index\n    uint256 public rentersCount;\n    uint256 public resourcesCount;\n    uint256 public resourcesAdvertCount;\n    uint256 public universitiesCount;\n    uint256 public rentalsCount;\n\n    // Store Rental\n\n    // Read Rental\n    string public candidate;\n\n    //----------------------------------------------------------\n    // private Functions\n    //----------------------------------------------------------\n\n    function initializeUniversity(string memory _name, address _address)\n        private\n    {\n        // represent Id of the University\n        universitiesCount++;\n        universities[universitiesCount] = University(\n            universitiesCount,\n            _name,\n            _address\n        );\n    }\n\n    //----------------------------------------------------------\n    // public Functions\n    //----------------------------------------------------------\n\n    function addUniversity(\n        uint256 _universityId,\n        string memory _name,\n        address _newUniversityAddress\n    ) private {\n        require(msg.sender == universities[_universityId].universityAddress);\n\n        // represent Id of the University\n        universitiesCount++;\n        universities[universitiesCount] = University(\n            universitiesCount,\n            _name,\n            _newUniversityAddress\n        );\n    }\n\n    function addRenter(string memory _name) public {\n        // represent Id of the renter\n        rentersCount++;\n        renters[rentersCount] = Renter(rentersCount, _name, 0);\n\n        emit RenterAdded(_name, msg.sender);\n    }\n\n    function addResource(\n        string memory _name,\n        string memory _picture,\n        string memory _location,\n        string memory _fromTimeStamp,\n        string memory _toTimeStamp\n    ) public // uint8[] memory _requiredTraining\n    {\n        // require();\n\n        // represent Id of the renter\n        resourcesCount++;\n        resources[resourcesCount] = Resource(\n            resourcesCount,\n            _name,\n            _picture,\n            _location,\n            _fromTimeStamp,\n            _toTimeStamp\n            // _requiredTraining\n        );\n        emit ResourceCreated(resourcesCount, msg.sender);\n    }\n\n    // making the function pure or view\n    // to call it through web3.js without needing\n    // a trancaction -> no gas cost, no confirmation delay\n    function isSenderUniversity(uint256 _id) public view returns (bool) {\n        return msg.sender == universities[_id].universityAddress;\n    }\n\n    function rentResource(uint256 _id) public {\n        Resource memory resource = resources[_id];\n\n        rentalsCount++;\n        rentals[rentalsCount] = Rental(\n            resource.name,\n            rentalsCount,\n            resource.resourceId,\n            resource.fromTimeStamp,\n            resource.toTimeStamp\n        );\n\n        delete resources[_id];\n\n        emit ResourceRented(_id, resource.fromTimeStamp, resource.toTimeStamp);\n    }\n\n    //----------------------------------------------------------\n    // Modifier\n    //----------------------------------------------------------\n\n    // isUniversity\n    modifier isUniversity(uint256 _id) {\n        require(\n            msg.sender == universities[_id].universityAddress,\n            \"Caller is no university\"\n        );\n        _;\n    }\n\n    //----------------------------------------------------------\n    // Constructor\n    //----------------------------------------------------------\n\n    // Constructor\n    constructor() public {\n        // add example renters\n        addRenter(\"Student 1\");\n        addRenter(\"Professor 1\");\n\n        // add example resources\n        addResource(\n            \"Normal Room\",\n            \"images/room1.jpeg\",\n            \"Furtwangen, Germany\",\n            \"1654782938174\",\n            \"1655992478797\"\n        );\n\n        addResource(\n            \"Concert Hall\",\n            \"images/room1.jpeg\",\n            \"Mannheim, Germani\",\n            \"1654782938174\",\n            \"1655992478797\"\n        );\n        addResource(\n            \"Theater\",\n            \"images/room1.jpeg\",\n            \"Rom, Italy\",\n            \"1654782938174\",\n            \"1655992478797\"\n        );\n        addResource(\n            \"Server Room\",\n            \"images/room1.jpeg\",\n            \"Paris, France\",\n            \"1654782938174\",\n            \"1655992478797\"\n        );\n        addResource(\n            \"Test Room\",\n            \"images/room1.jpeg\",\n            \"Barcelona, Spain\",\n            \"1654782938174\",\n            \"1655992478797\"\n        );\n        addResource(\n            \"Schulungszentrum Darmstadt\",\n            \"https://www.schulungszentrum-darmstadt.de/wp-content/uploads/2019/09/DSC1868.jpg\",\n            \"Darmstadt, Germany\",\n            \"1654782938174\",\n            \"1655992478797\"\n        );\n\n        // add universities who are allowed to create resrouces\n        // addUniversity(\n        //     \"Hochschule Furtwangen\",\n        //     0x9BB542Fa2BBC47dF6d5Da1F38dc78a186EA89CaB\n        // );\n        initializeUniversity(\n            \"Universitt Mannheim\",\n            0xDeDE610A052Cd63D055B1e957b1952525d924F7e\n        );\n        // addUniversity(\"TUM\", 0xA5f4A3aa3cFAA342FC401580aE6Af12Ab56EA822);\n        // addUniversity(\n        // \"The Hague University of Applied Sciences\",\n        // 0xE82971C4A32C82556F072C73125e48C4c9c33a59\n        // );\n    }\n}\n",
  "sourcePath": "/home/dizzle/Dev/Dapp/contracts/ResourceRental.sol",
  "compiler": {
    "name": "solc",
    "version": "0.5.16+commit.9c3226ce.Emscripten.clang"
  },
  "schemaVersion": "3.4.7",
  "updatedAt": "2022-06-23T08:31:07.626Z",
  "networkType": "ethereum",
  "devdoc": {
    "methods": {}
  },
  "userdoc": {
    "methods": {}
  }
}