{
  "contractName": "ResourceRental",
  "abi": [
    {
      "inputs": [],
      "payable": false,
      "stateMutability": "nonpayable",
      "type": "constructor"
    },
    {
      "constant": true,
      "inputs": [],
      "name": "candidate",
      "outputs": [
        {
          "internalType": "string",
          "name": "",
          "type": "string"
        }
      ],
      "payable": false,
      "stateMutability": "view",
      "type": "function"
    },
    {
      "constant": true,
      "inputs": [
        {
          "internalType": "uint256",
          "name": "",
          "type": "uint256"
        }
      ],
      "name": "renters",
      "outputs": [
        {
          "internalType": "uint256",
          "name": "renterId",
          "type": "uint256"
        },
        {
          "internalType": "string",
          "name": "renterName",
          "type": "string"
        },
        {
          "internalType": "uint256",
          "name": "rentCount",
          "type": "uint256"
        }
      ],
      "payable": false,
      "stateMutability": "view",
      "type": "function"
    },
    {
      "constant": true,
      "inputs": [],
      "name": "rentersCount",
      "outputs": [
        {
          "internalType": "uint256",
          "name": "",
          "type": "uint256"
        }
      ],
      "payable": false,
      "stateMutability": "view",
      "type": "function"
    },
    {
      "constant": true,
      "inputs": [
        {
          "internalType": "uint256",
          "name": "",
          "type": "uint256"
        }
      ],
      "name": "resources",
      "outputs": [
        {
          "internalType": "uint256",
          "name": "resourceId",
          "type": "uint256"
        },
        {
          "internalType": "string",
          "name": "name",
          "type": "string"
        },
        {
          "internalType": "string",
          "name": "picture",
          "type": "string"
        },
        {
          "internalType": "string",
          "name": "location",
          "type": "string"
        },
        {
          "internalType": "string",
          "name": "fromTimeStamp",
          "type": "string"
        },
        {
          "internalType": "string",
          "name": "toTimeStamp",
          "type": "string"
        }
      ],
      "payable": false,
      "stateMutability": "view",
      "type": "function"
    },
    {
      "constant": true,
      "inputs": [],
      "name": "resourcesAdvertCount",
      "outputs": [
        {
          "internalType": "uint256",
          "name": "",
          "type": "uint256"
        }
      ],
      "payable": false,
      "stateMutability": "view",
      "type": "function"
    },
    {
      "constant": true,
      "inputs": [
        {
          "internalType": "uint256",
          "name": "",
          "type": "uint256"
        }
      ],
      "name": "resourcesAdverts",
      "outputs": [
        {
          "internalType": "uint256",
          "name": "advertId",
          "type": "uint256"
        },
        {
          "internalType": "string",
          "name": "resourceName",
          "type": "string"
        },
        {
          "internalType": "string",
          "name": "resourceImageUrl",
          "type": "string"
        },
        {
          "internalType": "string",
          "name": "fromTimeStamp",
          "type": "string"
        },
        {
          "internalType": "string",
          "name": "toTimeStamp",
          "type": "string"
        }
      ],
      "payable": false,
      "stateMutability": "view",
      "type": "function"
    },
    {
      "constant": true,
      "inputs": [],
      "name": "resourcesCount",
      "outputs": [
        {
          "internalType": "uint256",
          "name": "",
          "type": "uint256"
        }
      ],
      "payable": false,
      "stateMutability": "view",
      "type": "function"
    },
    {
      "constant": true,
      "inputs": [
        {
          "internalType": "uint256",
          "name": "",
          "type": "uint256"
        }
      ],
      "name": "universities",
      "outputs": [
        {
          "internalType": "uint256",
          "name": "universityId",
          "type": "uint256"
        },
        {
          "internalType": "string",
          "name": "name",
          "type": "string"
        },
        {
          "internalType": "address",
          "name": "universityAddress",
          "type": "address"
        }
      ],
      "payable": false,
      "stateMutability": "view",
      "type": "function"
    },
    {
      "constant": true,
      "inputs": [],
      "name": "universitiesCount",
      "outputs": [
        {
          "internalType": "uint256",
          "name": "",
          "type": "uint256"
        }
      ],
      "payable": false,
      "stateMutability": "view",
      "type": "function"
    },
    {
      "constant": false,
      "inputs": [
        {
          "internalType": "string",
          "name": "_name",
          "type": "string"
        },
        {
          "internalType": "string",
          "name": "_image",
          "type": "string"
        },
        {
          "internalType": "string",
          "name": "_fromTimeStamp",
          "type": "string"
        },
        {
          "internalType": "string",
          "name": "_toTimeStamp",
          "type": "string"
        }
      ],
      "name": "addResourceAdvert",
      "outputs": [],
      "payable": false,
      "stateMutability": "nonpayable",
      "type": "function"
    },
    {
      "constant": true,
      "inputs": [
        {
          "internalType": "uint256",
          "name": "_id",
          "type": "uint256"
        }
      ],
      "name": "isSenderUniversity",
      "outputs": [
        {
          "internalType": "bool",
          "name": "",
          "type": "bool"
        }
      ],
      "payable": false,
      "stateMutability": "view",
      "type": "function"
    }
  ],
  "bytecode": "0x60806040523480156200001157600080fd5b50620000586040518060400160405280600981526020017f53747564656e74203100000000000000000000000000000000000000000000008152506200079760201b60201c565b6200009e6040518060400160405280600b81526020017f50726f666573736f7220310000000000000000000000000000000000000000008152506200079760201b60201c565b620001bc6040518060400160405280600b81526020017f4e6f726d616c20526f6f6d0000000000000000000000000000000000000000008152506040518060400160405280601181526020017f696d616765732f726f6f6d312e6a7065670000000000000000000000000000008152506040518060400160405280601381526020017f4675727477616e67656e2c204765726d616e79000000000000000000000000008152506040518060400160405280600d81526020017f31363534373832393338313734000000000000000000000000000000000000008152506040518060400160405280600d81526020017f31363535393932343738373937000000000000000000000000000000000000008152506200081460201b60201c565b620002da6040518060400160405280600c81526020017f436f6e636572742048616c6c00000000000000000000000000000000000000008152506040518060400160405280601181526020017f696d616765732f726f6f6d312e6a7065670000000000000000000000000000008152506040518060400160405280601181526020017f4d616e6e6865696d2c204765726d616e690000000000000000000000000000008152506040518060400160405280600d81526020017f31363534373832393338313734000000000000000000000000000000000000008152506040518060400160405280600d81526020017f31363535393932343738373937000000000000000000000000000000000000008152506200081460201b60201c565b620003f86040518060400160405280600781526020017f54686561746572000000000000000000000000000000000000000000000000008152506040518060400160405280601181526020017f696d616765732f726f6f6d312e6a7065670000000000000000000000000000008152506040518060400160405280600a81526020017f526f6d2c204974616c79000000000000000000000000000000000000000000008152506040518060400160405280600d81526020017f31363534373832393338313734000000000000000000000000000000000000008152506040518060400160405280600d81526020017f31363535393932343738373937000000000000000000000000000000000000008152506200081460201b60201c565b620005166040518060400160405280600b81526020017f53657276657220526f6f6d0000000000000000000000000000000000000000008152506040518060400160405280601181526020017f696d616765732f726f6f6d312e6a7065670000000000000000000000000000008152506040518060400160405280600d81526020017f50617269732c204672616e6365000000000000000000000000000000000000008152506040518060400160405280600d81526020017f31363534373832393338313734000000000000000000000000000000000000008152506040518060400160405280600d81526020017f31363535393932343738373937000000000000000000000000000000000000008152506200081460201b60201c565b620006346040518060400160405280600981526020017f5465737420526f6f6d00000000000000000000000000000000000000000000008152506040518060400160405280601181526020017f696d616765732f726f6f6d312e6a7065670000000000000000000000000000008152506040518060400160405280601081526020017f42617263656c6f6e612c20537061696e000000000000000000000000000000008152506040518060400160405280600d81526020017f31363534373832393338313734000000000000000000000000000000000000008152506040518060400160405280600d81526020017f31363535393932343738373937000000000000000000000000000000000000008152506200081460201b60201c565b620007366040518060400160405280601a81526020017f536368756c756e67737a656e7472756d204461726d737461647400000000000081525060405180608001604052806050815260200162001f41605091396040518060400160405280601281526020017f4461726d73746164742c204765726d616e7900000000000000000000000000008152506040518060400160405280600d81526020017f31363534373832393338313734000000000000000000000000000000000000008152506040518060400160405280600d81526020017f31363535393932343738373937000000000000000000000000000000000000008152506200081460201b60201c565b620007916040518060400160405280601581526020017f556e69766572736974c3a474204d616e6e6865696d000000000000000000000081525073dede610a052cd63d055b1e957b1952525d924f7e6200091960201b60201c565b62000a99565b600460008154809291906001019190505550604051806060016040528060045481526020018281526020016000815250600080600454815260200190815260200160002060008201518160000155602082015181600101908051906020019062000803929190620009ea565b506040820151816002015590505050565b6005600081548092919060010191905055506040518060c0016040528060055481526020018681526020018581526020018481526020018381526020018281525060016000600554815260200190815260200160002060008201518160000155602082015181600101908051906020019062000892929190620009ea565b506040820151816002019080519060200190620008b1929190620009ea565b506060820151816003019080519060200190620008d0929190620009ea565b506080820151816004019080519060200190620008ef929190620009ea565b5060a08201518160050190805190602001906200090e929190620009ea565b509050505050505050565b600760008154809291906001019190505550604051806060016040528060075481526020018381526020018273ffffffffffffffffffffffffffffffffffffffff168152506003600060075481526020019081526020016000206000820151816000015560208201518160010190805190602001906200099b929190620009ea565b5060408201518160020160006101000a81548173ffffffffffffffffffffffffffffffffffffffff021916908373ffffffffffffffffffffffffffffffffffffffff1602179055509050505050565b828054600181600116156101000203166002900490600052602060002090601f016020900481019282601f1062000a2d57805160ff191683800117855562000a5e565b8280016001018555821562000a5e579182015b8281111562000a5d57825182559160200191906001019062000a40565b5b50905062000a6d919062000a71565b5090565b62000a9691905b8082111562000a9257600081600090555060010162000a78565b5090565b90565b6114988062000aa96000396000f3fe608060405234801561001057600080fd5b50600436106100a95760003560e01c80635c51ffaf116100715780635c51ffaf146107ba5780636c8381f8146107d85780639c38f65f1461085b578063cce30a141461093c578063d562dc7214610982578063dcc3974b146109a0576100a9565b8063244d6daa146100ae57806325fffbc61461030c57806329e493b21461058c578063374cfc70146105aa57806351ac7b8c1461079c575b600080fd5b6100da600480360360208110156100c457600080fd5b8101908080359060200190929190505050610a55565b60405180878152602001806020018060200180602001806020018060200186810386528b818151815260200191508051906020019080838360005b83811015610130578082015181840152602081019050610115565b50505050905090810190601f16801561015d5780820380516001836020036101000a031916815260200191505b5086810385528a818151815260200191508051906020019080838360005b8381101561019657808201518184015260208101905061017b565b50505050905090810190601f1680156101c35780820380516001836020036101000a031916815260200191505b50868103845289818151815260200191508051906020019080838360005b838110156101fc5780820151818401526020810190506101e1565b50505050905090810190601f1680156102295780820380516001836020036101000a031916815260200191505b50868103835288818151815260200191508051906020019080838360005b83811015610262578082015181840152602081019050610247565b50505050905090810190601f16801561028f5780820380516001836020036101000a031916815260200191505b50868103825287818151815260200191508051906020019080838360005b838110156102c85780820151818401526020810190506102ad565b50505050905090810190601f1680156102f55780820380516001836020036101000a031916815260200191505b509b50505050505050505050505060405180910390f35b61058a6004803603608081101561032257600080fd5b810190808035906020019064010000000081111561033f57600080fd5b82018360208201111561035157600080fd5b8035906020019184600183028401116401000000008311171561037357600080fd5b91908080601f016020809104026020016040519081016040528093929190818152602001838380828437600081840152601f19601f820116905080830192505050505050509192919290803590602001906401000000008111156103d657600080fd5b8201836020820111156103e857600080fd5b8035906020019184600183028401116401000000008311171561040a57600080fd5b91908080601f016020809104026020016040519081016040528093929190818152602001838380828437600081840152601f19601f8201169050808301925050505050505091929192908035906020019064010000000081111561046d57600080fd5b82018360208201111561047f57600080fd5b803590602001918460018302840111640100000000831117156104a157600080fd5b91908080601f016020809104026020016040519081016040528093929190818152602001838380828437600081840152601f19601f8201169050808301925050505050505091929192908035906020019064010000000081111561050457600080fd5b82018360208201111561051657600080fd5b8035906020019184600183028401116401000000008311171561053857600080fd5b91908080601f016020809104026020016040519081016040528093929190818152602001838380828437600081840152601f19601f820116905080830192505050505050509192919290505050610d89565b005b610594610e60565b6040518082815260200191505060405180910390f35b6105d6600480360360208110156105c057600080fd5b8101908080359060200190929190505050610e66565b6040518086815260200180602001806020018060200180602001858103855289818151815260200191508051906020019080838360005b8381101561062857808201518184015260208101905061060d565b50505050905090810190601f1680156106555780820380516001836020036101000a031916815260200191505b50858103845288818151815260200191508051906020019080838360005b8381101561068e578082015181840152602081019050610673565b50505050905090810190601f1680156106bb5780820380516001836020036101000a031916815260200191505b50858103835287818151815260200191508051906020019080838360005b838110156106f45780820151818401526020810190506106d9565b50505050905090810190601f1680156107215780820380516001836020036101000a031916815260200191505b50858103825286818151815260200191508051906020019080838360005b8381101561075a57808201518184015260208101905061073f565b50505050905090810190601f1680156107875780820380516001836020036101000a031916815260200191505b50995050505050505050505060405180910390f35b6107a46110fc565b6040518082815260200191505060405180910390f35b6107c2611102565b6040518082815260200191505060405180910390f35b6107e0611108565b6040518080602001828103825283818151815260200191508051906020019080838360005b83811015610820578082015181840152602081019050610805565b50505050905090810190601f16801561084d5780820380516001836020036101000a031916815260200191505b509250505060405180910390f35b6108876004803603602081101561087157600080fd5b81019080803590602001909291905050506111a6565b60405180848152602001806020018373ffffffffffffffffffffffffffffffffffffffff1673ffffffffffffffffffffffffffffffffffffffff168152602001828103825284818151815260200191508051906020019080838360005b838110156108ff5780820151818401526020810190506108e4565b50505050905090810190601f16801561092c5780820380516001836020036101000a031916815260200191505b5094505050505060405180910390f35b6109686004803603602081101561095257600080fd5b8101908080359060200190929190505050611288565b604051808215151515815260200191505060405180910390f35b61098a6112f6565b6040518082815260200191505060405180910390f35b6109cc600480360360208110156109b657600080fd5b81019080803590602001909291905050506112fc565b6040518084815260200180602001838152602001828103825284818151815260200191508051906020019080838360005b83811015610a185780820151818401526020810190506109fd565b50505050905090810190601f168015610a455780820380516001836020036101000a031916815260200191505b5094505050505060405180910390f35b6001602052806000526040600020600091509050806000015490806001018054600181600116156101000203166002900480601f016020809104026020016040519081016040528092919081815260200182805460018160011615610100020316600290048015610b075780601f10610adc57610100808354040283529160200191610b07565b820191906000526020600020905b815481529060010190602001808311610aea57829003601f168201915b505050505090806002018054600181600116156101000203166002900480601f016020809104026020016040519081016040528092919081815260200182805460018160011615610100020316600290048015610ba55780601f10610b7a57610100808354040283529160200191610ba5565b820191906000526020600020905b815481529060010190602001808311610b8857829003601f168201915b505050505090806003018054600181600116156101000203166002900480601f016020809104026020016040519081016040528092919081815260200182805460018160011615610100020316600290048015610c435780601f10610c1857610100808354040283529160200191610c43565b820191906000526020600020905b815481529060010190602001808311610c2657829003601f168201915b505050505090806004018054600181600116156101000203166002900480601f016020809104026020016040519081016040528092919081815260200182805460018160011615610100020316600290048015610ce15780601f10610cb657610100808354040283529160200191610ce1565b820191906000526020600020905b815481529060010190602001808311610cc457829003601f168201915b505050505090806005018054600181600116156101000203166002900480601f016020809104026020016040519081016040528092919081815260200182805460018160011615610100020316600290048015610d7f5780601f10610d5457610100808354040283529160200191610d7f565b820191906000526020600020905b815481529060010190602001808311610d6257829003601f168201915b5050505050905086565b6006600081548092919060010191905055506040518060a00160405280600554815260200185815260200184815260200183815260200182815250600260006006548152602001908152602001600020600082015181600001556020820151816001019080519060200190610dff9291906113be565b506040820151816002019080519060200190610e1c9291906113be565b506060820151816003019080519060200190610e399291906113be565b506080820151816004019080519060200190610e569291906113be565b5090505050505050565b60075481565b6002602052806000526040600020600091509050806000015490806001018054600181600116156101000203166002900480601f016020809104026020016040519081016040528092919081815260200182805460018160011615610100020316600290048015610f185780601f10610eed57610100808354040283529160200191610f18565b820191906000526020600020905b815481529060010190602001808311610efb57829003601f168201915b505050505090806002018054600181600116156101000203166002900480601f016020809104026020016040519081016040528092919081815260200182805460018160011615610100020316600290048015610fb65780601f10610f8b57610100808354040283529160200191610fb6565b820191906000526020600020905b815481529060010190602001808311610f9957829003601f168201915b505050505090806003018054600181600116156101000203166002900480601f0160208091040260200160405190810160405280929190818152602001828054600181600116156101000203166002900480156110545780601f1061102957610100808354040283529160200191611054565b820191906000526020600020905b81548152906001019060200180831161103757829003601f168201915b505050505090806004018054600181600116156101000203166002900480601f0160208091040260200160405190810160405280929190818152602001828054600181600116156101000203166002900480156110f25780601f106110c7576101008083540402835291602001916110f2565b820191906000526020600020905b8154815290600101906020018083116110d557829003601f168201915b5050505050905085565b60055481565b60065481565b60088054600181600116156101000203166002900480601f01602080910402602001604051908101604052809291908181526020018280546001816001161561010002031660029004801561119e5780601f106111735761010080835404028352916020019161119e565b820191906000526020600020905b81548152906001019060200180831161118157829003601f168201915b505050505081565b6003602052806000526040600020600091509050806000015490806001018054600181600116156101000203166002900480601f0160208091040260200160405190810160405280929190818152602001828054600181600116156101000203166002900480156112585780601f1061122d57610100808354040283529160200191611258565b820191906000526020600020905b81548152906001019060200180831161123b57829003601f168201915b5050505050908060020160009054906101000a900473ffffffffffffffffffffffffffffffffffffffff16905083565b60006003600083815260200190815260200160002060020160009054906101000a900473ffffffffffffffffffffffffffffffffffffffff1673ffffffffffffffffffffffffffffffffffffffff163373ffffffffffffffffffffffffffffffffffffffff16149050919050565b60045481565b6000602052806000526040600020600091509050806000015490806001018054600181600116156101000203166002900480601f0160208091040260200160405190810160405280929190818152602001828054600181600116156101000203166002900480156113ae5780601f10611383576101008083540402835291602001916113ae565b820191906000526020600020905b81548152906001019060200180831161139157829003601f168201915b5050505050908060020154905083565b828054600181600116156101000203166002900490600052602060002090601f016020900481019282601f106113ff57805160ff191683800117855561142d565b8280016001018555821561142d579182015b8281111561142c578251825591602001919060010190611411565b5b50905061143a919061143e565b5090565b61146091905b8082111561145c576000816000905550600101611444565b5090565b9056fea265627a7a7231582069f8ec492dfdd8139e3d44978981b51d0b93c2b2aef663c637ca70406c1d337664736f6c6343000510003268747470733a2f2f7777772e736368756c756e67737a656e7472756d2d6461726d73746164742e64652f77702d636f6e74656e742f75706c6f6164732f323031392f30392f445343313836382e6a7067",
  "source": "// SPDX-License-Identifier: MIT\npragma solidity >=0.4.22 <0.8.0;\n\ncontract ResourceRental {\n    // Model a Rental\n    struct Rental {\n        string resourceName;\n        uint256 bookingId;\n        uint256 resourceId;\n        uint256 startTimestamp;\n        uint256 endTimestamp;\n    }\n\n    // Model a Renter\n    struct Renter {\n        uint256 renterId;\n        string renterName;\n        uint256 rentCount;\n    }\n\n    // Model a Resource\n    struct Resource {\n        uint256 resourceId;\n        string name;\n        string picture;\n        string location;\n        string fromTimeStamp;\n        string toTimeStamp;\n    }\n\n    // Model a Resource Advert\n    struct ResourceAdvert {\n        uint256 advertId;\n        string resourceName;\n        string resourceImageUrl;\n        string fromTimeStamp;\n        string toTimeStamp;\n    }\n\n    // Model a University\n    struct University {\n        uint256 universityId;\n        string name;\n        address universityAddress;\n    }\n\n    // Store renters\n    // solidity generiert getter\n    mapping(uint256 => Renter) public renters;\n    mapping(uint256 => Resource) public resources;\n    mapping(uint256 => ResourceAdvert) public resourcesAdverts;\n    mapping(uint256 => University) public universities;\n\n    // Store index\n    uint256 public rentersCount;\n    uint256 public resourcesCount;\n    uint256 public resourcesAdvertCount;\n    uint256 public universitiesCount;\n\n    // Store Rental\n\n    // Read Rental\n    string public candidate;\n\n    function addRenter(string memory _name) private {\n        // represent Id of the renter\n        rentersCount++;\n        renters[rentersCount] = Renter(rentersCount, _name, 0);\n    }\n\n    function addUniversity(string memory _name, address _address) private {\n        // represent Id of the University\n        universitiesCount++;\n        universities[universitiesCount] = University(\n            universitiesCount,\n            _name,\n            _address\n        );\n    }\n\n    function addResource(\n        string memory _name,\n        string memory _picture,\n        string memory _location,\n        string memory _fromTimeStamp,\n        string memory _toTimeStamp\n    ) private {\n        // represent Id of the renter\n        resourcesCount++;\n        resources[resourcesCount] = Resource(\n            resourcesCount,\n            _name,\n            _picture,\n            _location,\n            _fromTimeStamp,\n            _toTimeStamp\n        );\n    }\n\n    function addResourceAdvert(\n        string memory _name,\n        string memory _image,\n        string memory _fromTimeStamp,\n        string memory _toTimeStamp\n    ) public {\n        // represent Id of the renter\n        resourcesAdvertCount++;\n        resourcesAdverts[resourcesAdvertCount] = ResourceAdvert(\n            resourcesCount,\n            _name,\n            _image,\n            _fromTimeStamp,\n            _toTimeStamp\n        );\n    }\n\n    // Store Rental -> from to free\n\n    // Fetch Rental\n\n    // Store Rental count\n\n    // isUniversity\n    modifier isUniversity() {\n        require(true, \"Caller is no university\");\n        _;\n    }\n\n    // making the function pure or view\n    // to call it through web3.js without needing\n    // a trancaction -> no gas cost, no confirmation delay\n    function isSenderUniversity(uint256 _id) public view returns (bool) {\n        return msg.sender == universities[_id].universityAddress;\n    }\n\n    // Constructor\n    constructor() public {\n        // add example renters\n        addRenter(\"Student 1\");\n        addRenter(\"Professor 1\");\n\n        // add example resources\n        addResource(\n            \"Normal Room\",\n            \"images/room1.jpeg\",\n            \"Furtwangen, Germany\",\n            \"1654782938174\",\n            \"1655992478797\"\n        );\n        addResource(\n            \"Concert Hall\",\n            \"images/room1.jpeg\",\n            \"Mannheim, Germani\",\n            \"1654782938174\",\n            \"1655992478797\"\n        );\n        addResource(\n            \"Theater\",\n            \"images/room1.jpeg\",\n            \"Rom, Italy\",\n            \"1654782938174\",\n            \"1655992478797\"\n        );\n        addResource(\n            \"Server Room\",\n            \"images/room1.jpeg\",\n            \"Paris, France\",\n            \"1654782938174\",\n            \"1655992478797\"\n        );\n        addResource(\n            \"Test Room\",\n            \"images/room1.jpeg\",\n            \"Barcelona, Spain\",\n            \"1654782938174\",\n            \"1655992478797\"\n        );\n        addResource(\n            \"Schulungszentrum Darmstadt\",\n            \"https://www.schulungszentrum-darmstadt.de/wp-content/uploads/2019/09/DSC1868.jpg\",\n            \"Darmstadt, Germany\",\n            \"1654782938174\",\n            \"1655992478797\"\n        );\n\n        // add universities who are allowed to create resrouces\n        // addUniversity(\n        //     \"Hochschule Furtwangen\",\n        //     0x9BB542Fa2BBC47dF6d5Da1F38dc78a186EA89CaB\n        // );\n        addUniversity(\n            \"Universitt Mannheim\",\n            0xDeDE610A052Cd63D055B1e957b1952525d924F7e\n        );\n        // addUniversity(\"TUM\", 0xA5f4A3aa3cFAA342FC401580aE6Af12Ab56EA822);\n        // addUniversity(\n        // \"The Hague University of Applied Sciences\",\n        // 0xE82971C4A32C82556F072C73125e48C4c9c33a59\n        // );\n    }\n}\n",
  "sourcePath": "/home/dizzle/Dev/Dapp/contracts/ResourceRental.sol",
  "compiler": {
    "name": "solc",
    "version": "0.5.16+commit.9c3226ce.Emscripten.clang"
  },
  "schemaVersion": "3.4.7",
  "updatedAt": "2022-06-09T13:56:53.425Z",
  "networkType": "ethereum",
  "devdoc": {
    "methods": {}
  },
  "userdoc": {
    "methods": {}
  }
}