{
  "contractName": "SafetyBriefing",
  "abi": [
    {
      "anonymous": false,
      "inputs": [
        {
          "indexed": false,
          "internalType": "address",
          "name": "clientAddress",
          "type": "address"
        },
        {
          "indexed": false,
          "internalType": "uint256",
          "name": "briefingId",
          "type": "uint256"
        },
        {
          "indexed": false,
          "internalType": "string",
          "name": "validity",
          "type": "string"
        }
      ],
      "name": "BriefingVerified",
      "type": "event"
    },
    {
      "constant": true,
      "inputs": [
        {
          "internalType": "uint256",
          "name": "",
          "type": "uint256"
        }
      ],
      "name": "briefings",
      "outputs": [
        {
          "internalType": "uint256",
          "name": "briefingId",
          "type": "uint256"
        },
        {
          "internalType": "address",
          "name": "briefingAuthority",
          "type": "address"
        }
      ],
      "payable": false,
      "stateMutability": "view",
      "type": "function"
    },
    {
      "constant": false,
      "inputs": [],
      "name": "createBriefing",
      "outputs": [],
      "payable": false,
      "stateMutability": "nonpayable",
      "type": "function"
    },
    {
      "constant": false,
      "inputs": [
        {
          "internalType": "address",
          "name": "_clientAddress",
          "type": "address"
        },
        {
          "internalType": "uint256",
          "name": "_briefingId",
          "type": "uint256"
        },
        {
          "internalType": "string",
          "name": "_validity",
          "type": "string"
        }
      ],
      "name": "verifyBriefing",
      "outputs": [],
      "payable": false,
      "stateMutability": "nonpayable",
      "type": "function"
    }
  ],
  "bytecode": "0x608060405234801561001057600080fd5b50610481806100206000396000f3fe608060405234801561001057600080fd5b50600436106100415760003560e01c80633e36aadd146100465780636ce753ee14610050578063fbd38f88146100c5575b600080fd5b61004e6101aa565b005b61007c6004803603602081101561006657600080fd5b8101908080359060200190929190505050610253565b604051808381526020018273ffffffffffffffffffffffffffffffffffffffff1673ffffffffffffffffffffffffffffffffffffffff1681526020019250505060405180910390f35b6101a8600480360360608110156100db57600080fd5b81019080803573ffffffffffffffffffffffffffffffffffffffff169060200190929190803590602001909291908035906020019064010000000081111561012257600080fd5b82018360208201111561013457600080fd5b8035906020019184600183028401116401000000008311171561015657600080fd5b91908080601f016020809104026020016040519081016040528093929190818152602001838380828437600081840152601f19601f820116905080830192505050505050509192919290505050610297565b005b600160008154809291906001019190505550604051806040016040528060015481526020013373ffffffffffffffffffffffffffffffffffffffff1681525060008060015481526020019081526020016000206000820151816000015560208201518160010160006101000a81548173ffffffffffffffffffffffffffffffffffffffff021916908373ffffffffffffffffffffffffffffffffffffffff160217905550905050565b60006020528060005260406000206000915090508060000154908060010160009054906101000a900473ffffffffffffffffffffffffffffffffffffffff16905082565b8160008082815260200190815260200160002060010160009054906101000a900473ffffffffffffffffffffffffffffffffffffffff1673ffffffffffffffffffffffffffffffffffffffff163373ffffffffffffffffffffffffffffffffffffffff161461036e576040517f08c379a000000000000000000000000000000000000000000000000000000000815260040180806020018281038252601e8152602001807f43616c6c6572206973206e6f204272696566696e67617574686f72697479000081525060200191505060405180910390fd5b7f8dad04b632d4137f723622a1a37211ecd9c76a60727638f830dcce5539d76c08848484604051808473ffffffffffffffffffffffffffffffffffffffff1673ffffffffffffffffffffffffffffffffffffffff16815260200183815260200180602001828103825283818151815260200191508051906020019080838360005b8381101561040a5780820151818401526020810190506103ef565b50505050905090810190601f1680156104375780820380516001836020036101000a031916815260200191505b5094505050505060405180910390a15050505056fea265627a7a72315820522242930f1c7c295913fb6d216249a96e331970ee5842df68765303eee9e33964736f6c63430005100032",
  "source": "// SPDX-License-Identifier: MIT\npragma solidity >=0.4.22 <0.8.0;\n\ncontract SafetyBriefing {\n    mapping(uint256 => Briefing) public briefings;\n    uint256 briefingsCount;\n\n    struct Briefing {\n        uint256 briefingId;\n        address briefingAuthority;\n        // uint256[] requiredBriefings;\n    }\n\n    event BriefingVerified(\n        address clientAddress,\n        uint256 briefingId,\n        string validity\n    );\n\n    function createBriefing() public {\n        briefingsCount++;\n\n        briefings[briefingsCount] = Briefing(briefingsCount, msg.sender);\n    }\n\n    function verifyBriefing(\n        address _clientAddress,\n        uint256 _briefingId,\n        string memory _validity\n    ) public isBriefingAuthority(_briefingId) {\n        emit BriefingVerified(_clientAddress, _briefingId, _validity);\n    }\n\n    //----------------------------------------------------------\n    // Modifier\n    //----------------------------------------------------------\n    modifier isBriefingAuthority(uint256 _id) {\n        require(\n            msg.sender == briefings[_id].briefingAuthority,\n            \"Caller is no Briefingauthority\"\n        );\n        _;\n    }\n}\n",
  "sourcePath": "/home/dizzle/Dev/Dapp/contracts/SafetyBriefing.sol",
  "compiler": {
    "name": "solc",
    "version": "0.5.16+commit.9c3226ce.Emscripten.clang"
  },
  "schemaVersion": "3.4.7",
  "updatedAt": "2022-08-26T11:43:21.838Z",
  "networkType": "ethereum",
  "devdoc": {
    "methods": {}
  },
  "userdoc": {
    "methods": {}
  }
}