{
  "contractName": "SafetyBriefing",
  "abi": [
    {
      "anonymous": false,
      "inputs": [
        {
          "indexed": false,
          "internalType": "address",
          "name": "clientAddress",
          "type": "address"
        },
        {
          "indexed": false,
          "internalType": "uint256",
          "name": "briefingId",
          "type": "uint256"
        },
        {
          "indexed": false,
          "internalType": "string",
          "name": "validity",
          "type": "string"
        }
      ],
      "name": "BriefingVerified",
      "type": "event"
    },
    {
      "constant": true,
      "inputs": [
        {
          "internalType": "uint256",
          "name": "",
          "type": "uint256"
        }
      ],
      "name": "briefings",
      "outputs": [
        {
          "internalType": "uint256",
          "name": "briefingId",
          "type": "uint256"
        },
        {
          "internalType": "address",
          "name": "briefingAuthority",
          "type": "address"
        }
      ],
      "payable": false,
      "stateMutability": "view",
      "type": "function"
    },
    {
      "constant": false,
      "inputs": [
        {
          "internalType": "uint256[]",
          "name": "requiredBriefings",
          "type": "uint256[]"
        }
      ],
      "name": "createBriefing",
      "outputs": [],
      "payable": false,
      "stateMutability": "nonpayable",
      "type": "function"
    },
    {
      "constant": false,
      "inputs": [
        {
          "internalType": "address",
          "name": "_clientAddress",
          "type": "address"
        },
        {
          "internalType": "uint256",
          "name": "_briefingId",
          "type": "uint256"
        },
        {
          "internalType": "string",
          "name": "_validity",
          "type": "string"
        }
      ],
      "name": "verifyBriefing",
      "outputs": [],
      "payable": false,
      "stateMutability": "nonpayable",
      "type": "function"
    }
  ],
  "bytecode": "0x608060405234801561001057600080fd5b506106bd806100206000396000f3fe608060405234801561001057600080fd5b50600436106100415760003560e01c80636ce753ee146100465780636f7de4ae146100bb578063fbd38f8814610173575b600080fd5b6100726004803603602081101561005c57600080fd5b8101908080359060200190929190505050610258565b604051808381526020018273ffffffffffffffffffffffffffffffffffffffff1673ffffffffffffffffffffffffffffffffffffffff1681526020019250505060405180910390f35b610171600480360360208110156100d157600080fd5b81019080803590602001906401000000008111156100ee57600080fd5b82018360208201111561010057600080fd5b8035906020019184602083028401116401000000008311171561012257600080fd5b919080806020026020016040519081016040528093929190818152602001838360200280828437600081840152601f19601f82011690508083019250505050505050919291929050505061029c565b005b6102566004803603606081101561018957600080fd5b81019080803573ffffffffffffffffffffffffffffffffffffffff16906020019092919080359060200190929190803590602001906401000000008111156101d057600080fd5b8201836020820111156101e257600080fd5b8035906020019184600183028401116401000000008311171561020457600080fd5b91908080601f016020809104026020016040519081016040528093929190818152602001838380828437600081840152601f19601f820116905080830192505050505050509192919290505050610461565b005b60006020528060005260406000206000915090508060000154908060010160009054906101000a900473ffffffffffffffffffffffffffffffffffffffff16905082565b6001600081548092919060010191905055506000815111156103a557604051806060016040528060015481526020013373ffffffffffffffffffffffffffffffffffffffff16815260200160006040519080825280602002602001820160405280156103175781602001602082028038833980820191505090505b5081525060008060015481526020019081526020016000206000820151816000015560208201518160010160006101000a81548173ffffffffffffffffffffffffffffffffffffffff021916908373ffffffffffffffffffffffffffffffffffffffff160217905550604082015181600201908051906020019061039c929190610616565b5090505061045e565b604051806060016040528060015481526020013373ffffffffffffffffffffffffffffffffffffffff1681526020018281525060008060015481526020019081526020016000206000820151816000015560208201518160010160006101000a81548173ffffffffffffffffffffffffffffffffffffffff021916908373ffffffffffffffffffffffffffffffffffffffff1602179055506040820151816002019080519060200190610459929190610616565b509050505b50565b8160008082815260200190815260200160002060010160009054906101000a900473ffffffffffffffffffffffffffffffffffffffff1673ffffffffffffffffffffffffffffffffffffffff163373ffffffffffffffffffffffffffffffffffffffff1614610538576040517f08c379a000000000000000000000000000000000000000000000000000000000815260040180806020018281038252601e8152602001807f43616c6c6572206973206e6f204272696566696e67617574686f72697479000081525060200191505060405180910390fd5b7f8dad04b632d4137f723622a1a37211ecd9c76a60727638f830dcce5539d76c08848484604051808473ffffffffffffffffffffffffffffffffffffffff1673ffffffffffffffffffffffffffffffffffffffff16815260200183815260200180602001828103825283818151815260200191508051906020019080838360005b838110156105d45780820151818401526020810190506105b9565b50505050905090810190601f1680156106015780820380516001836020036101000a031916815260200191505b5094505050505060405180910390a150505050565b828054828255906000526020600020908101928215610652579160200282015b82811115610651578251825591602001919060010190610636565b5b50905061065f9190610663565b5090565b61068591905b80821115610681576000816000905550600101610669565b5090565b9056fea265627a7a72315820e033fff3a2f97a7f0c8596fb7549f59d319eea7138a14920be83b6ef19f4944f64736f6c63430005100032",
  "source": "// SPDX-License-Identifier: MIT\npragma solidity >=0.4.22 <0.8.0;\n\ncontract SafetyBriefing {\n    mapping(uint256 => Briefing) public briefings;\n    uint256 briefingsCount;\n\n    struct Briefing {\n        uint256 briefingId;\n        address briefingAuthority;\n        uint256[] requiredBriefings;\n    }\n\n    event BriefingVerified(\n        address clientAddress,\n        uint256 briefingId,\n        string validity\n    );\n\n    function createBriefing(uint256[] memory requiredBriefings) public {\n        briefingsCount++;\n\n        if (requiredBriefings.length > 0) {\n            briefings[briefingsCount] = Briefing(\n                briefingsCount,\n                msg.sender,\n                new uint256[](0)\n            );\n        } else {\n            briefings[briefingsCount] = Briefing(\n                briefingsCount,\n                msg.sender,\n                requiredBriefings\n            );\n        }\n    }\n\n    function verifyBriefing(\n        address _clientAddress,\n        uint256 _briefingId,\n        string memory _validity\n    ) public isBriefingAuthority(_briefingId) {\n        emit BriefingVerified(_clientAddress, _briefingId, _validity);\n    }\n\n    //----------------------------------------------------------\n    // Modifier\n    //----------------------------------------------------------\n    modifier isBriefingAuthority(uint256 _id) {\n        require(\n            msg.sender == briefings[_id].briefingAuthority,\n            \"Caller is no Briefingauthority\"\n        );\n        _;\n    }\n}\n",
  "sourcePath": "/home/dizzle/Dev/Dapp/contracts/SafetyBriefing.sol",
  "compiler": {
    "name": "solc",
    "version": "0.5.16+commit.9c3226ce.Emscripten.clang"
  },
  "schemaVersion": "3.4.7",
  "updatedAt": "2022-08-17T12:38:58.545Z",
  "devdoc": {
    "methods": {}
  },
  "userdoc": {
    "methods": {}
  }
}