{
  "contractName": "TrainingValidate",
  "abi": [
    {
      "constant": true,
      "inputs": [
        {
          "internalType": "address",
          "name": "_address",
          "type": "address"
        }
      ],
      "name": "isUser",
      "outputs": [
        {
          "internalType": "bool",
          "name": "",
          "type": "bool"
        }
      ],
      "payable": false,
      "stateMutability": "view",
      "type": "function"
    }
  ],
  "bytecode": "0x608060405234801561001057600080fd5b5060c68061001f6000396000f3fe6080604052348015600f57600080fd5b506004361060285760003560e01c80634209fff114602d575b600080fd5b606c60048036036020811015604157600080fd5b81019080803573ffffffffffffffffffffffffffffffffffffffff1690602001909291905050506086565b604051808215151515815260200191505060405180910390f35b60006001905091905056fea265627a7a72315820f4ac0d91f7e457bfc41c32580893d583df8d41ba1543d5f9bc0dc7df42c1318564736f6c63430005100032",
  "source": "// SPDX-License-Identifier: MIT\npragma solidity >=0.4.22 <0.8.0;\n\ncontract TrainingValidate {\n    struct StudentInfo {\n        uint256 index;\n        string major;\n        string gradYear;\n        string name;\n    }\n\n    mapping(address => StudentInfo) students;\n    mapping(address => StudentInfo) thirdPartyStudents;\n\n    address[] userIndex;\n\n    function isUser(address _address) public view returns (bool) {\n        return true;\n    }\n}\n",
  "sourcePath": "/home/dizzle/Dev/Dapp/contracts/TrainingValidate.sol",
  "compiler": {
    "name": "solc",
    "version": "0.5.16+commit.9c3226ce.Emscripten.clang"
  },
  "schemaVersion": "3.4.7",
  "updatedAt": "2022-08-12T20:48:29.546Z",
  "networkType": "ethereum",
  "devdoc": {
    "methods": {}
  },
  "userdoc": {
    "methods": {}
  }
}