{
  "contractName": "TrainingContract",
  "abi": [
    {
      "constant": false,
      "inputs": [
        {
          "internalType": "uint256",
          "name": "_trainingId",
          "type": "uint256"
        },
        {
          "internalType": "address",
          "name": "_memberAddress",
          "type": "address"
        }
      ],
      "name": "hasRequiredTraining",
      "outputs": [],
      "payable": false,
      "stateMutability": "nonpayable",
      "type": "function"
    },
    {
      "constant": false,
      "inputs": [
        {
          "internalType": "uint256",
          "name": "_universityId",
          "type": "uint256"
        },
        {
          "internalType": "address",
          "name": "_memberAddress",
          "type": "address"
        }
      ],
      "name": "isUniversityMember",
      "outputs": [],
      "payable": false,
      "stateMutability": "nonpayable",
      "type": "function"
    }
  ],
  "bytecode": "0x608060405234801561001057600080fd5b5061010a806100206000396000f3fe6080604052348015600f57600080fd5b506004361060325760003560e01c8063c1b915b7146037578063f9efc3e5146082575b600080fd5b608060048036036040811015604b57600080fd5b8101908080359060200190929190803573ffffffffffffffffffffffffffffffffffffffff16906020019092919050505060cd565b005b60cb60048036036040811015609657600080fd5b8101908080359060200190929190803573ffffffffffffffffffffffffffffffffffffffff16906020019092919050505060d1565b005b5050565b505056fea265627a7a7231582061e09e3d1ea95db90a169a5786d8ca4ca4673f0134e1e91ca7d2d505e9d5ecbd64736f6c63430005100032",
  "source": "pragma solidity >=0.4.0 <0.6.0;\n\ncontract TrainingContract {\n    struct Training {\n        uint256 trainingId;\n        address instpector;\n    }\n\n    struct Ressource {\n        uint256 trainingId;\n        Training[] requiredTraining;\n    }\n\n    struct Member {\n        Training[] PassedTrainings;\n    }\n\n    mapping(uint256 => Ressource) ressources;\n    mapping(uint256 => Member) members;\n\n    function hasRequiredTraining(uint256 _trainingId, address _memberAddress)\n        public\n    {}\n\n    function isUniversityMember(uint256 _universityId, address _memberAddress)\n        public\n    {}\n}\n",
  "sourcePath": "/home/dizzle/Dev/Dapp/contracts/test.sol",
  "compiler": {
    "name": "solc",
    "version": "0.5.16+commit.9c3226ce.Emscripten.clang"
  },
  "schemaVersion": "3.4.7",
  "updatedAt": "2022-08-23T12:47:43.965Z",
  "devdoc": {
    "methods": {}
  },
  "userdoc": {
    "methods": {}
  }
}